{
  "address": "0x729c310186a57833f622630a16d13f710b83272a",
  "abi": [
    {
      "inputs": [
        {
          "internalType": "address",
          "name": "_accountFacet",
          "type": "address"
        },
        {
          "internalType": "address",
          "name": "_entryPoint",
          "type": "address"
        },
        {
          "internalType": "address",
          "name": "_facetRegistry",
          "type": "address"
        },
        {
          "internalType": "address",
          "name": "_defaultFallback",
          "type": "address"
        }
      ],
      "stateMutability": "nonpayable",
      "type": "constructor"
    },
    {
      "anonymous": false,
      "inputs": [
        {
          "indexed": false,
          "internalType": "address",
          "name": "",
          "type": "address"
        }
      ],
      "name": "BarzDeployed",
      "type": "event"
    },
    {
      "inputs": [],
      "name": "accountFacet",
      "outputs": [
        {
          "internalType": "address",
          "name": "",
          "type": "address"
        }
      ],
      "stateMutability": "view",
      "type": "function"
    },
    {
      "inputs": [
        {
          "internalType": "address",
          "name": "_verificationFacet",
          "type": "address"
        },
        {
          "internalType": "bytes",
          "name": "_owner",
          "type": "bytes"
        },
        {
          "internalType": "uint256",
          "name": "_salt",
          "type": "uint256"
        }
      ],
      "name": "createAccount",
      "outputs": [
        {
          "internalType": "contract Barz",
          "name": "barz",
          "type": "address"
        }
      ],
      "stateMutability": "nonpayable",
      "type": "function"
    },
    {
      "inputs": [],
      "name": "defaultFallback",
      "outputs": [
        {
          "internalType": "address",
          "name": "",
          "type": "address"
        }
      ],
      "stateMutability": "view",
      "type": "function"
    },
    {
      "inputs": [],
      "name": "entryPoint",
      "outputs": [
        {
          "internalType": "address",
          "name": "",
          "type": "address"
        }
      ],
      "stateMutability": "view",
      "type": "function"
    },
    {
      "inputs": [],
      "name": "facetRegistry",
      "outputs": [
        {
          "internalType": "address",
          "name": "",
          "type": "address"
        }
      ],
      "stateMutability": "view",
      "type": "function"
    },
    {
      "inputs": [
        {
          "internalType": "address",
          "name": "_verificationFacet",
          "type": "address"
        },
        {
          "internalType": "bytes",
          "name": "_owner",
          "type": "bytes"
        },
        {
          "internalType": "uint256",
          "name": "_salt",
          "type": "uint256"
        }
      ],
      "name": "getAddress",
      "outputs": [
        {
          "internalType": "address",
          "name": "barzAddress",
          "type": "address"
        }
      ],
      "stateMutability": "view",
      "type": "function"
    },
    {
      "inputs": [
        {
          "internalType": "address",
          "name": "_accountFacet",
          "type": "address"
        },
        {
          "internalType": "address",
          "name": "_verificationFacet",
          "type": "address"
        },
        {
          "internalType": "address",
          "name": "_entryPoint",
          "type": "address"
        },
        {
          "internalType": "address",
          "name": "_facetRegistry",
          "type": "address"
        },
        {
          "internalType": "address",
          "name": "_defaultFallback",
          "type": "address"
        },
        {
          "internalType": "bytes",
          "name": "_ownerPublicKey",
          "type": "bytes"
        }
      ],
      "name": "getBytecode",
      "outputs": [
        {
          "internalType": "bytes",
          "name": "barzBytecode",
          "type": "bytes"
        }
      ],
      "stateMutability": "pure",
      "type": "function"
    },
    {
      "inputs": [],
      "name": "getCreationCode",
      "outputs": [
        {
          "internalType": "bytes",
          "name": "creationCode",
          "type": "bytes"
        }
      ],
      "stateMutability": "pure",
      "type": "function"
    }
  ],
  "transactionHash": "0x14ca36cbfa0588970f481be916dec02642b0705a459e523ed7acd1afba50a9de",
  "args": [
    "0xFde53272dcd7938d16E031A6989753c321728332",
    "0x5FF137D4b0FDCD49DcA30c7CF57E578a026d2789",
    "0xAfCb70e6e9514E2A15B23A01d2a9b9f7A34f2c33",
    "0x2e7f1dAe1F3799d20f5c31bEFdc7A620f664728D"
  ],
  "numDeployments": 3,
  "solcInputHash": "4356503edd8ae34e73cb6dd1c8e2fc8a",
  "bytecode": "0x61010060405234801561001157600080fd5b50604051610eba380380610eba8339810160408190526100309161006e565b6001600160a01b0393841660805291831660a052821660c0521660e0526100c2565b80516001600160a01b038116811461006957600080fd5b919050565b6000806000806080858703121561008457600080fd5b61008d85610052565b935061009b60208601610052565b92506100a960408601610052565b91506100b760608601610052565b905092959194509250565b60805160a05160c05160e051610d886101326000396000818161013b015281816102b3015261048101526000818160bf01528181610292015261046001526000818161016301528181610271015261043f01526000818161018b0152818161024f015261041d0152610d886000f3fe60806040523480156200001157600080fd5b5060043610620000925760003560e01c806344409a82116200006257806344409a821462000135578063b0d691fe146200015d578063b0f5d4641462000185578063c8a7adf514620001ad57600080fd5b8062c194db14620000975780630a1acd7314620000b9578063296601cd146200010757806333bb64a7146200011e575b600080fd5b620000a1620001c4565b604051620000b091906200056c565b60405180910390f35b620000e17f000000000000000000000000000000000000000000000000000000000000000081565b60405173ffffffffffffffffffffffffffffffffffffffff9091168152602001620000b0565b620000e16200011836600462000635565b6200020e565b620000a16200012f36600462000695565b6200036d565b620000e17f000000000000000000000000000000000000000000000000000000000000000081565b620000e17f000000000000000000000000000000000000000000000000000000000000000081565b620000e17f000000000000000000000000000000000000000000000000000000000000000081565b620000e1620001be36600462000635565b62000414565b606060405180602001620001d89062000538565b7fffffffffffffffffffffffffffffffffffffffffffffffffffffffffffffffe082820381018352601f90910116604052919050565b6000806200021f8686868662000414565b905073ffffffffffffffffffffffffffffffffffffffff81163b8015620002495750905062000365565b8360001b7f0000000000000000000000000000000000000000000000000000000000000000887f00000000000000000000000000000000000000000000000000000000000000007f00000000000000000000000000000000000000000000000000000000000000007f00000000000000000000000000000000000000000000000000000000000000008b8b604051620002e29062000538565b620002f497969594939291906200073a565b8190604051809103906000f590508015801562000315573d6000803e3d6000fd5b5060405173ffffffffffffffffffffffffffffffffffffffff821681529093507f9e6e326008e68f57877e2bae766a5745c162e42359e34834a7f0661fa82d31b19060200160405180910390a150505b949350505050565b6060600060405180602001620003839062000538565b6020820181038252601f19601f8201166040525090508089898989898989604051602001620003b997969594939291906200073a565b604080517fffffffffffffffffffffffffffffffffffffffffffffffffffffffffffffffe081840301815290829052620003f79291602001620007cd565b604051602081830303815290604052915050979650505050505050565b600080620004a87f0000000000000000000000000000000000000000000000000000000000000000877f00000000000000000000000000000000000000000000000000000000000000007f00000000000000000000000000000000000000000000000000000000000000007f00000000000000000000000000000000000000000000000000000000000000008a8a6200036d565b8051602091820120604080517fff00000000000000000000000000000000000000000000000000000000000000818501523060601b7fffffffffffffffffffffffffffffffffffffffff0000000000000000000000001660218201526035810196909652605580870192909252805180870390920182526075909501909452835193019290922095945050505050565b610552806200080183390190565b60005b838110156200056357818101518382015260200162000549565b50506000910152565b60208152600082518060208401526200058d81604085016020870162000546565b601f017fffffffffffffffffffffffffffffffffffffffffffffffffffffffffffffffe0169190910160400192915050565b803573ffffffffffffffffffffffffffffffffffffffff81168114620005e457600080fd5b919050565b60008083601f840112620005fc57600080fd5b50813567ffffffffffffffff8111156200061557600080fd5b6020830191508360208285010111156200062e57600080fd5b9250929050565b600080600080606085870312156200064c57600080fd5b6200065785620005bf565b9350602085013567ffffffffffffffff8111156200067457600080fd5b6200068287828801620005e9565b9598909750949560400135949350505050565b600080600080600080600060c0888a031215620006b157600080fd5b620006bc88620005bf565b9650620006cc60208901620005bf565b9550620006dc60408901620005bf565b9450620006ec60608901620005bf565b9350620006fc60808901620005bf565b925060a088013567ffffffffffffffff8111156200071957600080fd5b620007278a828b01620005e9565b989b979a50959850939692959293505050565b600073ffffffffffffffffffffffffffffffffffffffff808a16835280891660208401528088166040840152808716606084015280861660808401525060c060a08301528260c0830152828460e0840137600060e0848401015260e07fffffffffffffffffffffffffffffffffffffffffffffffffffffffffffffffe0601f850116830101905098975050505050505050565b60008351620007e181846020880162000546565b835190830190620007f781836020880162000546565b0194935050505056fe608060405260405161055238038061055283398101604081905261002291610163565b6000858585858560405160240161003d959493929190610264565b60408051601f198184030181529181526020820180516001600160e01b0316634a93641760e01b1790525190915060009081906001600160a01b038a16906100869085906102c3565b600060405180830381855af49150503d80600081146100c1576040519150601f19603f3d011682016040523d82523d6000602084013e6100c6565b606091505b50915091508115806100e157506100dc816102df565b600114155b156100ff57604051636ff35f8960e01b815260040160405180910390fd5b505050505050505050610306565b80516001600160a01b038116811461012457600080fd5b919050565b634e487b7160e01b600052604160045260246000fd5b60005b8381101561015a578181015183820152602001610142565b50506000910152565b60008060008060008060c0878903121561017c57600080fd5b6101858761010d565b95506101936020880161010d565b94506101a16040880161010d565b93506101af6060880161010d565b92506101bd6080880161010d565b60a08801519092506001600160401b03808211156101da57600080fd5b818901915089601f8301126101ee57600080fd5b81518181111561020057610200610129565b604051601f8201601f19908116603f0116810190838211818310171561022857610228610129565b816040528281528c602084870101111561024157600080fd5b61025283602083016020880161013f565b80955050505050509295509295509295565b600060018060a01b0380881683528087166020840152808616604084015280851660608401525060a0608083015282518060a08401526102ab8160c085016020870161013f565b601f01601f19169190910160c0019695505050505050565b600082516102d581846020870161013f565b9190910192915050565b80516020808301519190811015610300576000198160200360031b1b821691505b50919050565b61023d806103156000396000f3fe60806040523661000b57005b600080357fffffffff000000000000000000000000000000000000000000000000000000001681527f183cde5d4f6bb7b445b8fc2f7f15d0fd1d162275aded24183babbffee7cd491f6020819052604090912054819060601c80610125576004838101546040517fcdffacc60000000000000000000000000000000000000000000000000000000081526000357fffffffff00000000000000000000000000000000000000000000000000000000169281019290925273ffffffffffffffffffffffffffffffffffffffff169063cdffacc690602401602060405180830381865afa1580156100fe573d6000803e3d6000fd5b505050506040513d601f19601f8201168201806040525081019061012291906101ca565b90505b73ffffffffffffffffffffffffffffffffffffffff81166101a6576040517f08c379a000000000000000000000000000000000000000000000000000000000815260206004820152601d60248201527f4261727a3a2046756e6374696f6e20646f6573206e6f74206578697374000000604482015260640160405180910390fd5b3660008037600080366000845af43d6000803e8080156101c5573d6000f35b3d6000fd5b6000602082840312156101dc57600080fd5b815173ffffffffffffffffffffffffffffffffffffffff8116811461020057600080fd5b939250505056fea26469706673582212200f3fa76ace3be8675d8b4c0d6c210a922fff2c2f1444023b817d1f6c908cd56a64736f6c63430008150033a2646970667358221220329ad45a4ef4915180001cb1fc90a5f97ad94a0b280426a580cba65fce28c0f164736f6c63430008150033",
  "devdoc": {
    "author": "David Yongjun Kim (@Powerstream3604)",
    "details": "Contract to easily deploy Barz to a pre-computed address with a single call",
    "kind": "dev",
    "methods": {
      "constructor": {
        "params": {
          "_accountFacet": "Account Facet to be used to create Barz",
          "_defaultFallback": "Default Fallback Handler to be used to create Barz",
          "_entryPoint": "Entrypoint contract to be used to create Barz. This uses canonical EntryPoint deployed by EF",
          "_facetRegistry": "Facet Registry to be used to create Barz"
        }
      },
      "createAccount(address,bytes,uint256)": {
        "params": {
          "_owner": "Public Key of the owner to initialize barz account",
          "_salt": "Salt used for deploying barz with create2",
          "_verificationFacet": "Address of verification facet used for creating the barz account"
        },
        "returns": {
          "barz": "Instance of Barz contract deployed with the given parameters"
        }
      },
      "getAddress(address,bytes,uint256)": {
        "params": {
          "_owner": "Public Key of the owner to initialize barz account",
          "_salt": "Salt used for deploying barz with create2",
          "_verificationFacet": "Address of verification facet used for creating the barz account"
        },
        "returns": {
          "barzAddress": "Precalculated Barz address"
        }
      },
      "getBytecode(address,address,address,address,address,bytes)": {
        "params": {
          "_accountFacet": "Account Facet to be used to create Barz",
          "_defaultFallback": "Default Fallback Handler to be used to create Barz",
          "_entryPoint": "Entrypoint contract to be used to create Barz. This uses canonical EntryPoint deployed by EF",
          "_facetRegistry": "Facet Registry to be used to create Barz",
          "_ownerPublicKey": "Public Key of owner to be used to initialize Barz ownership",
          "_verificationFacet": "Verification Facet to be used to create Barz"
        },
        "returns": {
          "barzBytecode": "Bytecode of Barz"
        }
      },
      "getCreationCode()": {
        "returns": {
          "creationCode": "Creation code of Barz"
        }
      }
    },
    "title": "Barz Factory",
    "version": 1
  },
  "userdoc": {
    "kind": "user",
    "methods": {
      "constructor": {
        "notice": "Sets the initialization data for Barz contract initialization"
      },
      "createAccount(address,bytes,uint256)": {
        "notice": "Creates the Barz with a single call. It creates the Barz contract with the givent verification facet"
      },
      "getAddress(address,bytes,uint256)": {
        "notice": "Calculates the address of Barz with the given parameters"
      },
      "getBytecode(address,address,address,address,address,bytes)": {
        "notice": "Returns the bytecode of Barz with the given parameter"
      },
      "getCreationCode()": {
        "notice": "Returns the creation code of the Barz contract"
      }
    },
    "version": 1
  },
  "storageLayout": {
    "storage": [],
    "types": null
  }
}