{
  "address": "0xCe36b85d12D81cd619C745c7717f3396E184Ac7C",
  "abi": [
    {
      "inputs": [
        {
          "internalType": "bytes4",
          "name": "_functionSelector",
          "type": "bytes4"
        }
      ],
      "name": "facetAddress",
      "outputs": [
        {
          "internalType": "address",
          "name": "facetAddress_",
          "type": "address"
        }
      ],
      "stateMutability": "view",
      "type": "function"
    },
    {
      "inputs": [
        {
          "internalType": "bytes4",
          "name": "_functionSelector",
          "type": "bytes4"
        }
      ],
      "name": "facetAddressFromStorage",
      "outputs": [
        {
          "internalType": "address",
          "name": "facetAddress_",
          "type": "address"
        }
      ],
      "stateMutability": "view",
      "type": "function"
    },
    {
      "inputs": [],
      "name": "facetAddresses",
      "outputs": [
        {
          "internalType": "address[]",
          "name": "facetAddresses_",
          "type": "address[]"
        }
      ],
      "stateMutability": "view",
      "type": "function"
    },
    {
      "inputs": [],
      "name": "facetAddressesFromStorage",
      "outputs": [
        {
          "internalType": "address[]",
          "name": "facetAddresses_",
          "type": "address[]"
        }
      ],
      "stateMutability": "view",
      "type": "function"
    },
    {
      "inputs": [
        {
          "internalType": "address",
          "name": "_facet",
          "type": "address"
        }
      ],
      "name": "facetFunctionSelectors",
      "outputs": [
        {
          "internalType": "bytes4[]",
          "name": "facetFunctionSelectors_",
          "type": "bytes4[]"
        }
      ],
      "stateMutability": "view",
      "type": "function"
    },
    {
      "inputs": [
        {
          "internalType": "address",
          "name": "_facet",
          "type": "address"
        }
      ],
      "name": "facetFunctionSelectorsFromStorage",
      "outputs": [
        {
          "internalType": "bytes4[]",
          "name": "facetFunctionSelectors_",
          "type": "bytes4[]"
        }
      ],
      "stateMutability": "view",
      "type": "function"
    },
    {
      "inputs": [],
      "name": "facets",
      "outputs": [
        {
          "components": [
            {
              "internalType": "address",
              "name": "facetAddress",
              "type": "address"
            },
            {
              "internalType": "bytes4[]",
              "name": "functionSelectors",
              "type": "bytes4[]"
            }
          ],
          "internalType": "struct IDiamondLoupe.Facet[]",
          "name": "facets_",
          "type": "tuple[]"
        }
      ],
      "stateMutability": "view",
      "type": "function"
    },
    {
      "inputs": [],
      "name": "facetsFromStorage",
      "outputs": [
        {
          "components": [
            {
              "internalType": "address",
              "name": "facetAddress",
              "type": "address"
            },
            {
              "internalType": "bytes4[]",
              "name": "functionSelectors",
              "type": "bytes4[]"
            }
          ],
          "internalType": "struct IDiamondLoupe.Facet[]",
          "name": "facets_",
          "type": "tuple[]"
        }
      ],
      "stateMutability": "view",
      "type": "function"
    },
    {
      "inputs": [
        {
          "internalType": "bytes4",
          "name": "_interfaceId",
          "type": "bytes4"
        }
      ],
      "name": "supportsInterface",
      "outputs": [
        {
          "internalType": "bool",
          "name": "isSupported",
          "type": "bool"
        }
      ],
      "stateMutability": "view",
      "type": "function"
    }
  ],
  "args": [],
  "numDeployments": 3,
  "solcInputHash": "4356503edd8ae34e73cb6dd1c8e2fc8a",
  "bytecode": "0x608060405234801561001057600080fd5b5061240b806100206000396000f3fe608060405234801561001057600080fd5b50600436106100a35760003560e01c8063adfca15e11610076578063d42139a91161005b578063d42139a914610169578063e3a2f6fe14610171578063f9796ccf1461018457600080fd5b8063adfca15e1461011e578063cdffacc61461013157600080fd5b806301a55022146100a857806301ffc9a7146100d157806352ef6b2c146100f45780637a0ed62714610109575b600080fd5b6100bb6100b6366004611e4b565b61018c565b6040516100c89190611e68565b60405180910390f35b6100e46100df366004611efc565b61019d565b60405190151581526020016100c8565b6100fc610454565b6040516100c89190611f19565b610111610518565b6040516100c89190611f67565b6100bb61012c366004611e4b565b610a63565b61014461013f366004611efc565b610b07565b60405173ffffffffffffffffffffffffffffffffffffffff90911681526020016100c8565b6100fc610c24565b61014461017f366004611efc565b610c33565b610111610c8c565b606061019782610c96565b92915050565b60007fffffffff0000000000000000000000000000000000000000000000000000000082167f01ffc9a700000000000000000000000000000000000000000000000000000000148061023057507fffffffff0000000000000000000000000000000000000000000000000000000082167f1f931c1c00000000000000000000000000000000000000000000000000000000145b8061027c57507fffffffff0000000000000000000000000000000000000000000000000000000082167f48e2b09300000000000000000000000000000000000000000000000000000000145b806102c857507fffffffff0000000000000000000000000000000000000000000000000000000082167f4e2312e000000000000000000000000000000000000000000000000000000000145b8061031457507fffffffff0000000000000000000000000000000000000000000000000000000082167f150b7a0200000000000000000000000000000000000000000000000000000000145b8061035f57507fffffffff0000000000000000000000000000000000000000000000000000000082167e23de2900000000000000000000000000000000000000000000000000000000145b806103ab57507fffffffff0000000000000000000000000000000000000000000000000000000082167f1626ba7e00000000000000000000000000000000000000000000000000000000145b806103f757507fffffffff0000000000000000000000000000000000000000000000000000000082167fa4c0ed3600000000000000000000000000000000000000000000000000000000145b806101975750507fffffffff000000000000000000000000000000000000000000000000000000001660009081527f183cde5d4f6bb7b445b8fc2f7f15d0fd1d162275aded24183babbffee7cd4922602052604090205460ff1690565b60606000610460610518565b80519091508067ffffffffffffffff81111561047e5761047e61205d565b6040519080825280602002602001820160405280156104a7578160200160208202803683370190505b50925060005b81811015610512578281815181106104c7576104c761208c565b6020026020010151600001518482815181106104e5576104e561208c565b73ffffffffffffffffffffffffffffffffffffffff909216602092830291909101909101526001016104ad565b50505090565b606060007f183cde5d4f6bb7b445b8fc2f7f15d0fd1d162275aded24183babbffee7cd491f600490810154604080517f7a0ed627000000000000000000000000000000000000000000000000000000008152905173ffffffffffffffffffffffffffffffffffffffff90921692637a0ed6279282820192600092908290030181865afa1580156105ac573d6000803e3d6000fd5b505050506040513d6000823e601f3d9081017fffffffffffffffffffffffffffffffffffffffffffffffffffffffffffffffe01682016040526105f29190810190612157565b905060006105fe610e57565b805190915060608060005b838110156106b55760008582815181106106255761062561208c565b60200260200101516020015151905060005b818110156106ab5761069e85858986815181106106565761065661208c565b60200260200101516020015184815181106106735761067361208c565b60200260200101518a878151811061068d5761068d61208c565b60200260200101516000015161134a565b9095509350600101610637565b5050600101610609565b506000805b865181101561081b576000805b8883815181106106d9576106d961208c565b602002602001015160200151518110156107ff57600073ffffffffffffffffffffffffffffffffffffffff1661074687878c878151811061071c5761071c61208c565b60200260200101516020015185815181106107395761073961208c565b60200260200101516115f1565b73ffffffffffffffffffffffffffffffffffffffff16146107e9578883815181106107735761077361208c565b6020026020010151602001515160010361079c576107918984611637565b9850600193506107ff565b6107c38984815181106107b1576107b161208c565b6020026020010151602001518261182a565b8984815181106107d5576107d561208c565b602002602001015160200181905250600191505b816107f6576001016106c7565b600091506106c7565b508261081057816001019150610815565b600092505b506106ba565b5050600085518461082c9190612304565b90508067ffffffffffffffff8111156108475761084761205d565b60405190808252806020026020018201604052801561088d57816020015b6040805180820190915260008152606060208201528152602001906001900390816108655790505b5096506000805b82811015610a585785811015610a0c578681815181106108b6576108b661208c565b60200260200101518982815181106108d0576108d061208c565b60200260200101819052506000805b8951811015610a05578981815181106108fa576108fa61208c565b60200260200101516000015173ffffffffffffffffffffffffffffffffffffffff168b848151811061092e5761092e61208c565b60200260200101516000015173ffffffffffffffffffffffffffffffffffffffff16036109ef5761099989848151811061096a5761096a61208c565b6020026020010151602001518b83815181106109885761098861208c565b602002602001015160200151611a3d565b8b84815181106109ab576109ab61208c565b6020026020010151602001819052506109c48a82611637565b9950600191506109e18b60018d516109dc9190612317565b611637565b9a506109ec8561232a565b94505b816109fc576001016108df565b600091506108df565b5050610a50565b878281518110610a1e57610a1e61208c565b6020026020010151898281518110610a3857610a3861208c565b602002602001018190525081610a4d9061235f565b91505b600101610894565b505050505050505090565b60606000610a6f610518565b805190915060005b81811015610aff578473ffffffffffffffffffffffffffffffffffffffff16838281518110610aa857610aa861208c565b60200260200101516000015173ffffffffffffffffffffffffffffffffffffffff1603610af757828181518110610ae157610ae161208c565b6020026020010151602001519350505050919050565b600101610a77565b505050919050565b7fffffffff00000000000000000000000000000000000000000000000000000000811660009081527f183cde5d4f6bb7b445b8fc2f7f15d0fd1d162275aded24183babbffee7cd491f602081905260409091205460601c9081610c1e576004818101546040517fcdffacc60000000000000000000000000000000000000000000000000000000081527fffffffff0000000000000000000000000000000000000000000000000000000086169281019290925273ffffffffffffffffffffffffffffffffffffffff169063cdffacc690602401602060405180830381865afa158015610bf7573d6000803e3d6000fd5b505050506040513d601f19601f82011682018060405250810190610c1b9190612397565b91505b50919050565b6060610c2e611b8b565b905090565b7fffffffff00000000000000000000000000000000000000000000000000000000811660009081527f183cde5d4f6bb7b445b8fc2f7f15d0fd1d162275aded24183babbffee7cd491f602052604081205460601c610197565b6060610c2e610e57565b7f183cde5d4f6bb7b445b8fc2f7f15d0fd1d162275aded24183babbffee7cd4921546060907f183cde5d4f6bb7b445b8fc2f7f15d0fd1d162275aded24183babbffee7cd491f9060009061ffff1667ffffffffffffffff811115610cfc57610cfc61205d565b604051908082528060200260200182016040528015610d25578160200160208202803683370190505b5092506000805b600284015461ffff16821015610e4d576000818152600185016020526040812054905b6008811015610e385783610d628161235f565b600288015490955061ffff1685119050610e3857600581901b82901b7fffffffff00000000000000000000000000000000000000000000000000000000811660009081526020889052604090205460601c73ffffffffffffffffffffffffffffffffffffffff8a16819003610e235781898881518110610de457610de461208c565b7fffffffff000000000000000000000000000000000000000000000000000000009092166020928302919091019091015286610e1f8161235f565b9750505b50508080610e309061235f565b915050610d4f565b50508080610e459061235f565b915050610d2c565b5050825250919050565b7f183cde5d4f6bb7b445b8fc2f7f15d0fd1d162275aded24183babbffee7cd4921546060907f183cde5d4f6bb7b445b8fc2f7f15d0fd1d162275aded24183babbffee7cd491f9061ffff1667ffffffffffffffff811115610eba57610eba61205d565b604051908082528060200260200182016040528015610f0057816020015b604080518082019091526000815260606020820152815260200190600190039081610ed85790505b50600282015490925060009061ffff1667ffffffffffffffff811115610f2857610f2861205d565b604051908082528060200260200182016040528015610f51578160200160208202803683370190505b50905060008060005b600285015461ffff168210156112d7576000818152600186016020526040812054905b60088110156112c25783610f908161235f565b600289015490955061ffff16851190506112c257600581901b82901b7fffffffff00000000000000000000000000000000000000000000000000000000811660009081526020899052604081205460601c90805b88811015611148578273ffffffffffffffffffffffffffffffffffffffff168c82815181106110155761101561208c565b60200260200101516000015173ffffffffffffffffffffffffffffffffffffffff160361113657838c828151811061104f5761104f61208c565b6020026020010151602001518b838151811061106d5761106d61208c565b602002602001015161ffff16815181106110895761108961208c565b60200260200101907bffffffffffffffffffffffffffffffffffffffffffffffffffffffff191690817bffffffffffffffffffffffffffffffffffffffffffffffffffffffff19168152505060ff8a82815181106110e9576110e961208c565b602002602001015161ffff16106110ff57600080fd5b8981815181106111115761111161208c565b602002602001018051809190611126906123b4565b61ffff1690525060019150611148565b806111408161235f565b915050610fe4565b508015611157575050506112b0565b818b898151811061116a5761116a61208c565b602090810291909101015173ffffffffffffffffffffffffffffffffffffffff909116905260028a015461ffff1667ffffffffffffffff8111156111b0576111b061205d565b6040519080825280602002602001820160405280156111d9578160200160208202803683370190505b508b89815181106111ec576111ec61208c565b602002602001015160200181905250828b898151811061120e5761120e61208c565b60200260200101516020015160008151811061122c5761122c61208c565b60200260200101907bffffffffffffffffffffffffffffffffffffffffffffffffffffffff191690817bffffffffffffffffffffffffffffffffffffffffffffffffffffffff191681525050600189898151811061128c5761128c61208c565b61ffff90921660209283029190910190910152876112a98161235f565b9850505050505b806112ba8161235f565b915050610f7d565b505080806112cf9061235f565b915050610f5a565b5060005b8281101561133f5760008482815181106112f7576112f761208c565b602002602001015161ffff16905060008783815181106113195761131961208c565b6020026020010151602001519050818152505080806113379061235f565b9150506112db565b508185525050505090565b60608060006113598786611da0565b8751909150808210156113b857848783815181106113795761137961208c565b602002602001019073ffffffffffffffffffffffffffffffffffffffff16908173ffffffffffffffffffffffffffffffffffffffff16815250506115df565b60006113c5826001612304565b67ffffffffffffffff8111156113dd576113dd61205d565b604051908082528060200260200182016040528015611406578160200160208202803683370190505b5090506000885160016114199190612304565b67ffffffffffffffff8111156114315761143161205d565b60405190808252806020026020018201604052801561145a578160200160208202803683370190505b50905060005b83811015611539578a818151811061147a5761147a61208c565b60200260200101518382815181106114945761149461208c565b60200260200101907bffffffffffffffffffffffffffffffffffffffffffffffffffffffff191690817bffffffffffffffffffffffffffffffffffffffffffffffffffffffff1916815250508981815181106114f2576114f261208c565b602002602001015182828151811061150c5761150c61208c565b73ffffffffffffffffffffffffffffffffffffffff90921660209283029190910190910152600101611460565b508782848151811061154d5761154d61208c565b60200260200101907bffffffffffffffffffffffffffffffffffffffffffffffffffffffff191690817bffffffffffffffffffffffffffffffffffffffffffffffffffffffff19168152505086818a51815181106115ad576115ad61208c565b73ffffffffffffffffffffffffffffffffffffffff9092166020928302919091019091015290945092506115e8915050565b87879350935050505b94509492505050565b6000806115fe8584611da0565b905084518110611612576000915050611630565b8381815181106116245761162461208c565b60200260200101519150505b9392505050565b6060825182106116a8576040517f08c379a000000000000000000000000000000000000000000000000000000000815260206004820152600d60248201527f496e76616c696420696e6465780000000000000000000000000000000000000060448201526064015b60405180910390fd5b8251600003611713576040517f08c379a000000000000000000000000000000000000000000000000000000000815260206004820152600d60248201527f496e76616c696420617272617900000000000000000000000000000000000000604482015260640161169f565b6000600184516117239190612317565b67ffffffffffffffff81111561173b5761173b61205d565b60405190808252806020026020018201604052801561178157816020015b6040805180820190915260008152606060208201528152602001906001900390816117595790505b50805190915060005b8181101561182057848110156117d6578581815181106117ac576117ac61208c565b60200260200101518382815181106117c6576117c661208c565b6020026020010181905250611818565b856117e2826001612304565b815181106117f2576117f261208c565b602002602001015183828151811061180c5761180c61208c565b60200260200101819052505b60010161178a565b5090949350505050565b606082518210611896576040517f08c379a000000000000000000000000000000000000000000000000000000000815260206004820152600d60248201527f496e76616c696420696e64657800000000000000000000000000000000000000604482015260640161169f565b8251600003611901576040517f08c379a000000000000000000000000000000000000000000000000000000000815260206004820152600d60248201527f496e76616c696420617272617900000000000000000000000000000000000000604482015260640161169f565b6000600184516119119190612317565b67ffffffffffffffff8111156119295761192961205d565b604051908082528060200260200182016040528015611952578160200160208202803683370190505b50805190915060005b8181101561182057848110156119cd5785818151811061197d5761197d61208c565b60200260200101518382815181106119975761199761208c565b7fffffffff0000000000000000000000000000000000000000000000000000000090921660209283029190910190910152611a35565b856119d9826001612304565b815181106119e9576119e961208c565b6020026020010151838281518110611a0357611a0361208c565b7fffffffff00000000000000000000000000000000000000000000000000000000909216602092830291909101909101525b60010161195b565b81518151606091906000611a518284612304565b67ffffffffffffffff811115611a6957611a6961205d565b604051908082528060200260200182016040528015611a92578160200160208202803683370190505b50905060005b83811015611b0557868181518110611ab257611ab261208c565b6020026020010151828281518110611acc57611acc61208c565b7fffffffff0000000000000000000000000000000000000000000000000000000090921660209283029190910190910152600101611a98565b5060005b82811015611b8157858181518110611b2357611b2361208c565b6020026020010151828286611b389190612304565b81518110611b4857611b4861208c565b7fffffffff0000000000000000000000000000000000000000000000000000000090921660209283029190910190910152600101611b09565b5095945050505050565b7f183cde5d4f6bb7b445b8fc2f7f15d0fd1d162275aded24183babbffee7cd4921546060907f183cde5d4f6bb7b445b8fc2f7f15d0fd1d162275aded24183babbffee7cd491f9061ffff1667ffffffffffffffff811115611bee57611bee61205d565b604051908082528060200260200182016040528015611c17578160200160208202803683370190505b50915060008060005b600284015461ffff16821015611d98576000818152600185016020526040812054905b6008811015611d835783611c568161235f565b600288015490955061ffff1685119050611d8357600581901b82901b7fffffffff00000000000000000000000000000000000000000000000000000000811660009081526020889052604081205460601c90805b88811015611d19578a8181518110611cc457611cc461208c565b602002602001015173ffffffffffffffffffffffffffffffffffffffff168373ffffffffffffffffffffffffffffffffffffffff1603611d075760019150611d19565b80611d118161235f565b915050611caa565b508015611d2857505050611d71565b818a8981518110611d3b57611d3b61208c565b73ffffffffffffffffffffffffffffffffffffffff9092166020928302919091019091015287611d6a8161235f565b9850505050505b80611d7b8161235f565b915050611c43565b50508080611d909061235f565b915050611c20565b505082525090565b8151600090815b81811015611e1e57837bffffffffffffffffffffffffffffffffffffffffffffffffffffffff1916858281518110611de157611de161208c565b60200260200101517bffffffffffffffffffffffffffffffffffffffffffffffffffffffff191603611e165791506101979050565b600101611da7565b509392505050565b73ffffffffffffffffffffffffffffffffffffffff81168114611e4857600080fd5b50565b600060208284031215611e5d57600080fd5b813561163081611e26565b6020808252825182820181905260009190848201906040850190845b81811015611ec25783517fffffffff000000000000000000000000000000000000000000000000000000001683529284019291840191600101611e84565b50909695505050505050565b7fffffffff0000000000000000000000000000000000000000000000000000000081168114611e4857600080fd5b600060208284031215611f0e57600080fd5b813561163081611ece565b6020808252825182820181905260009190848201906040850190845b81811015611ec257835173ffffffffffffffffffffffffffffffffffffffff1683529284019291840191600101611f35565b60006020808301818452808551808352604092508286019150828160051b8701018488016000805b8481101561204e578984037fffffffffffffffffffffffffffffffffffffffffffffffffffffffffffffffc00186528251805173ffffffffffffffffffffffffffffffffffffffff168552880151888501889052805188860181905290890190839060608701905b808310156120395783517fffffffff00000000000000000000000000000000000000000000000000000000168252928b019260019290920191908b0190611ff7565b50978a01979550505091870191600101611f8f565b50919998505050505050505050565b7f4e487b7100000000000000000000000000000000000000000000000000000000600052604160045260246000fd5b7f4e487b7100000000000000000000000000000000000000000000000000000000600052603260045260246000fd5b6040805190810167ffffffffffffffff811182821017156120de576120de61205d565b60405290565b604051601f82017fffffffffffffffffffffffffffffffffffffffffffffffffffffffffffffffe016810167ffffffffffffffff8111828210171561212b5761212b61205d565b604052919050565b600067ffffffffffffffff82111561214d5761214d61205d565b5060051b60200190565b6000602080838503121561216a57600080fd5b825167ffffffffffffffff8082111561218257600080fd5b818501915085601f83011261219657600080fd5b81516121a96121a482612133565b6120e4565b81815260059190911b830184019084810190888311156121c857600080fd5b8585015b838110156122c8578051858111156121e45760008081fd5b86016040818c037fffffffffffffffffffffffffffffffffffffffffffffffffffffffffffffffe00181131561221a5760008081fd5b6122226120bb565b8983015161222f81611e26565b815282820151888111156122435760008081fd5b8084019350508c603f8401126122595760008081fd5b898301516122696121a482612133565b81815260059190911b84018301908b8101908f8311156122895760008081fd5b948401945b828610156122b357855194506122a385611ece565b848252948c0194908c019061228e565b838d01525050855250509186019186016121cc565b5098975050505050505050565b7f4e487b7100000000000000000000000000000000000000000000000000000000600052601160045260246000fd5b80820180821115610197576101976122d5565b81810381811115610197576101976122d5565b600081612339576123396122d5565b507fffffffffffffffffffffffffffffffffffffffffffffffffffffffffffffffff0190565b60007fffffffffffffffffffffffffffffffffffffffffffffffffffffffffffffffff8203612390576123906122d5565b5060010190565b6000602082840312156123a957600080fd5b815161163081611e26565b600061ffff8083168181036123cb576123cb6122d5565b600101939250505056fea26469706673582212205959d8d85aad6f29d5fc37d5a52c404c25392cec49195c3b761da0e863e99b0f64736f6c63430008150033",
  "devdoc": {
    "author": "David Yongjun Kim (@Powerstream3604)",
    "details": "DiamondLoupe contract compatible with EIP-2535",
    "kind": "dev",
    "methods": {
      "facetAddress(bytes4)": {
        "details": "If facet is not found return address(0).",
        "params": {
          "_functionSelector": "The function selector."
        },
        "returns": {
          "facetAddress_": "The facet address."
        }
      },
      "facetAddressFromStorage(bytes4)": {
        "params": {
          "_functionSelector": "Function selector to fetch the facet address from diamond storage"
        },
        "returns": {
          "facetAddress_": "Facet address mapped with the function selector"
        }
      },
      "facetAddresses()": {
        "returns": {
          "facetAddresses_": "facetAddresses_"
        }
      },
      "facetAddressesFromStorage()": {
        "returns": {
          "facetAddresses_": "All facet addresses attached directly to diamond storage"
        }
      },
      "facetFunctionSelectors(address)": {
        "params": {
          "_facet": "The facet address."
        },
        "returns": {
          "facetFunctionSelectors_": "facetFunctionSelectors_"
        }
      },
      "facetFunctionSelectorsFromStorage(address)": {
        "params": {
          "_facet": "Facet address to fetch the facet function selectors from diamond storage"
        },
        "returns": {
          "facetFunctionSelectors_": "Facet function selectors of the given facet address"
        }
      },
      "facets()": {
        "details": "Barz uses a special architecture called default fallback handler. Default Fallback handler is used as a middleware      that holds the mapping of facet function selector and facet address that Barz uses. This helps Barz to reduce      significant amount of gas during the initialization process.      Hence, this method aggregates both the facet information from DefaulFallbackHandler and in diamond storage and shows the data to users.",
        "returns": {
          "facets_": "Facet"
        }
      },
      "facetsFromStorage()": {
        "returns": {
          "facets_": "Facet information attached directly to diamond storage"
        }
      },
      "supportsInterface(bytes4)": {
        "params": {
          "_interfaceId": "Interface ID for detecting the interface"
        },
        "returns": {
          "isSupported": "Bool value showing if the standard is supported in the contract"
        }
      }
    },
    "title": "DiamondLoupe Facet",
    "version": 1
  },
  "userdoc": {
    "kind": "user",
    "methods": {
      "facetAddress(bytes4)": {
        "notice": "Gets the facet that supports the given selector."
      },
      "facetAddressFromStorage(bytes4)": {
        "notice": "Returns the facet address attached to the given function selector. This excludes the facets from the default fallback handler"
      },
      "facetAddresses()": {
        "notice": "Get all the facet addresses used by Barz."
      },
      "facetAddressesFromStorage()": {
        "notice": "Returns all facet addresses attached directly to diamond storage. This excludes the facets from the default fallback handler"
      },
      "facetFunctionSelectors(address)": {
        "notice": "Gets all the function selectors provided by a facet."
      },
      "facetFunctionSelectorsFromStorage(address)": {
        "notice": "Returns function selectors of given facet address attached directly to diamond storage. This excludes the facets from the default fallback handler"
      },
      "facets()": {
        "notice": "Gets all facets and their selectors."
      },
      "facetsFromStorage()": {
        "notice": "Returns the facet from the diamond storage. This excludes the facets from the default fallback handler"
      },
      "supportsInterface(bytes4)": {
        "notice": "SupportInterface to be compatible with EIP 165"
      }
    },
    "version": 1
  },
  "storageLayout": {
    "storage": [],
    "types": null
  }
}