{
  "address": "0x3143E1C0Af0Cdc153423863923Cf4e3818e34Daa",
  "abi": [
    {
      "inputs": [
        {
          "internalType": "address",
          "name": "",
          "type": "address"
        },
        {
          "internalType": "address",
          "name": "",
          "type": "address"
        },
        {
          "internalType": "uint256[]",
          "name": "",
          "type": "uint256[]"
        },
        {
          "internalType": "uint256[]",
          "name": "",
          "type": "uint256[]"
        },
        {
          "internalType": "bytes",
          "name": "",
          "type": "bytes"
        }
      ],
      "name": "onERC1155BatchReceived",
      "outputs": [
        {
          "internalType": "bytes4",
          "name": "",
          "type": "bytes4"
        }
      ],
      "stateMutability": "pure",
      "type": "function"
    },
    {
      "inputs": [
        {
          "internalType": "address",
          "name": "",
          "type": "address"
        },
        {
          "internalType": "address",
          "name": "",
          "type": "address"
        },
        {
          "internalType": "uint256",
          "name": "",
          "type": "uint256"
        },
        {
          "internalType": "uint256",
          "name": "",
          "type": "uint256"
        },
        {
          "internalType": "bytes",
          "name": "",
          "type": "bytes"
        }
      ],
      "name": "onERC1155Received",
      "outputs": [
        {
          "internalType": "bytes4",
          "name": "",
          "type": "bytes4"
        }
      ],
      "stateMutability": "pure",
      "type": "function"
    },
    {
      "inputs": [
        {
          "internalType": "address",
          "name": "",
          "type": "address"
        },
        {
          "internalType": "address",
          "name": "",
          "type": "address"
        },
        {
          "internalType": "uint256",
          "name": "",
          "type": "uint256"
        },
        {
          "internalType": "bytes",
          "name": "",
          "type": "bytes"
        }
      ],
      "name": "onERC721Received",
      "outputs": [
        {
          "internalType": "bytes4",
          "name": "",
          "type": "bytes4"
        }
      ],
      "stateMutability": "pure",
      "type": "function"
    },
    {
      "inputs": [
        {
          "internalType": "address",
          "name": "",
          "type": "address"
        },
        {
          "internalType": "uint256",
          "name": "",
          "type": "uint256"
        },
        {
          "internalType": "bytes",
          "name": "",
          "type": "bytes"
        }
      ],
      "name": "onTokenTransfer",
      "outputs": [
        {
          "internalType": "bool",
          "name": "",
          "type": "bool"
        }
      ],
      "stateMutability": "pure",
      "type": "function"
    },
    {
      "inputs": [
        {
          "internalType": "address",
          "name": "",
          "type": "address"
        },
        {
          "internalType": "address",
          "name": "",
          "type": "address"
        },
        {
          "internalType": "address",
          "name": "",
          "type": "address"
        },
        {
          "internalType": "uint256",
          "name": "",
          "type": "uint256"
        },
        {
          "internalType": "bytes",
          "name": "",
          "type": "bytes"
        },
        {
          "internalType": "bytes",
          "name": "",
          "type": "bytes"
        }
      ],
      "name": "tokensReceived",
      "outputs": [],
      "stateMutability": "pure",
      "type": "function"
    }
  ],
  "transactionHash": "0x6668484184644c2a5f201d3e3c29339f13fb8d838944b12afd3378c6dfed9664",
  "args": [],
  "numDeployments": 3,
  "solcInputHash": "0c861e53801b64e5ccc05669ea62a977",
  "bytecode": "0x608060405234801561001057600080fd5b50610502806100206000396000f3fe608060405234801561001057600080fd5b50600436106100665760003560e01c8063a4c0ed3611610050578063a4c0ed36146100f3578063bc197c811461011b578063f23a6e611461015657600080fd5b806223de291461006b578063150b7a0214610085575b600080fd5b610083610079366004610201565b5050505050505050565b005b6100bd6100933660046102ac565b7f150b7a020000000000000000000000000000000000000000000000000000000095945050505050565b6040517fffffffff0000000000000000000000000000000000000000000000000000000090911681526020015b60405180910390f35b61010b61010136600461031b565b6001949350505050565b60405190151581526020016100ea565b6100bd6101293660046103ba565b7fbc197c810000000000000000000000000000000000000000000000000000000098975050505050505050565b6100bd610164366004610454565b7ff23a6e61000000000000000000000000000000000000000000000000000000009695505050505050565b803573ffffffffffffffffffffffffffffffffffffffff811681146101b357600080fd5b919050565b60008083601f8401126101ca57600080fd5b50813567ffffffffffffffff8111156101e257600080fd5b6020830191508360208285010111156101fa57600080fd5b9250929050565b60008060008060008060008060c0898b03121561021d57600080fd5b6102268961018f565b975061023460208a0161018f565b965061024260408a0161018f565b955060608901359450608089013567ffffffffffffffff8082111561026657600080fd5b6102728c838d016101b8565b909650945060a08b013591508082111561028b57600080fd5b506102988b828c016101b8565b999c989b5096995094979396929594505050565b6000806000806000608086880312156102c457600080fd5b6102cd8661018f565b94506102db6020870161018f565b935060408601359250606086013567ffffffffffffffff8111156102fe57600080fd5b61030a888289016101b8565b969995985093965092949392505050565b6000806000806060858703121561033157600080fd5b61033a8561018f565b935060208501359250604085013567ffffffffffffffff81111561035d57600080fd5b610369878288016101b8565b95989497509550505050565b60008083601f84011261038757600080fd5b50813567ffffffffffffffff81111561039f57600080fd5b6020830191508360208260051b85010111156101fa57600080fd5b60008060008060008060008060a0898b0312156103d657600080fd5b6103df8961018f565b97506103ed60208a0161018f565b9650604089013567ffffffffffffffff8082111561040a57600080fd5b6104168c838d01610375565b909850965060608b013591508082111561042f57600080fd5b61043b8c838d01610375565b909650945060808b013591508082111561028b57600080fd5b60008060008060008060a0878903121561046d57600080fd5b6104768761018f565b95506104846020880161018f565b94506040870135935060608701359250608087013567ffffffffffffffff8111156104ae57600080fd5b6104ba89828a016101b8565b979a969950949750929593949250505056fea2646970667358221220ae9a97061ae9e1485161ca9c8d3228a23e47b18755fa935f51b40e927816ca2964736f6c63430008150033",
  "devdoc": {
    "author": "David Yongjun Kim (@Powerstream3604)",
    "details": "Contract that enables receiving ERC721/ERC1155/ERC777/ERC677 Tokens with safe transfer",
    "kind": "dev",
    "methods": {},
    "title": "TokenReceiver Facet",
    "version": 1
  },
  "userdoc": {
    "kind": "user",
    "methods": {
      "onERC1155BatchReceived(address,address,uint256[],uint256[],bytes)": {
        "notice": "Handles ERC1155 Token batch callback. return Standardized onERC1155BatchReceived return value."
      },
      "onERC1155Received(address,address,uint256,uint256,bytes)": {
        "notice": "Handles ERC1155 Token callback. return Standardized onERC1155Received return value."
      },
      "onERC721Received(address,address,uint256,bytes)": {
        "notice": "Handles ERC721 Token callback.  return Standardized onERC721Received return value."
      },
      "onTokenTransfer(address,uint256,bytes)": {
        "notice": "Handles ERC677 Token callback. return true."
      },
      "tokensReceived(address,address,address,uint256,bytes,bytes)": {
        "notice": "Handles ERC777 Token callback. Does not return value, empty implementation."
      }
    },
    "version": 1
  },
  "storageLayout": {
    "storage": [],
    "types": null
  }
}