{
  "address": "0x2e7f1dAe1F3799d20f5c31bEFdc7A620f664728D",
  "abi": [
    {
      "inputs": [
        {
          "internalType": "address",
          "name": "_diamondCutFacet",
          "type": "address"
        },
        {
          "internalType": "address",
          "name": "_accountFacet",
          "type": "address"
        },
        {
          "internalType": "address",
          "name": "_tokenReceiverFacet",
          "type": "address"
        },
        {
          "internalType": "address",
          "name": "_diamondLoupeFacet",
          "type": "address"
        }
      ],
      "stateMutability": "payable",
      "type": "constructor"
    },
    {
      "inputs": [
        {
          "internalType": "address",
          "name": "_initializationContractAddress",
          "type": "address"
        },
        {
          "internalType": "bytes",
          "name": "_calldata",
          "type": "bytes"
        }
      ],
      "name": "InitializationFunctionReverted",
      "type": "error"
    },
    {
      "anonymous": false,
      "inputs": [
        {
          "components": [
            {
              "internalType": "address",
              "name": "facetAddress",
              "type": "address"
            },
            {
              "internalType": "enum IDiamondCut.FacetCutAction",
              "name": "action",
              "type": "uint8"
            },
            {
              "internalType": "bytes4[]",
              "name": "functionSelectors",
              "type": "bytes4[]"
            }
          ],
          "indexed": false,
          "internalType": "struct IDiamondCut.FacetCut[]",
          "name": "_diamondCut",
          "type": "tuple[]"
        },
        {
          "indexed": false,
          "internalType": "address",
          "name": "_init",
          "type": "address"
        },
        {
          "indexed": false,
          "internalType": "bytes",
          "name": "_calldata",
          "type": "bytes"
        }
      ],
      "name": "DiamondCut",
      "type": "event"
    },
    {
      "inputs": [
        {
          "internalType": "bytes4",
          "name": "_functionSelector",
          "type": "bytes4"
        }
      ],
      "name": "facetAddress",
      "outputs": [
        {
          "internalType": "address",
          "name": "facetAddress_",
          "type": "address"
        }
      ],
      "stateMutability": "view",
      "type": "function"
    },
    {
      "inputs": [],
      "name": "facetAddresses",
      "outputs": [
        {
          "internalType": "address[]",
          "name": "facetAddresses_",
          "type": "address[]"
        }
      ],
      "stateMutability": "view",
      "type": "function"
    },
    {
      "inputs": [
        {
          "internalType": "address",
          "name": "_facet",
          "type": "address"
        }
      ],
      "name": "facetFunctionSelectors",
      "outputs": [
        {
          "internalType": "bytes4[]",
          "name": "facetFunctionSelectors_",
          "type": "bytes4[]"
        }
      ],
      "stateMutability": "view",
      "type": "function"
    },
    {
      "inputs": [],
      "name": "facets",
      "outputs": [
        {
          "components": [
            {
              "internalType": "address",
              "name": "facetAddress",
              "type": "address"
            },
            {
              "internalType": "bytes4[]",
              "name": "functionSelectors",
              "type": "bytes4[]"
            }
          ],
          "internalType": "struct IDiamondLoupe.Facet[]",
          "name": "facets_",
          "type": "tuple[]"
        }
      ],
      "stateMutability": "view",
      "type": "function"
    }
  ],
  "transactionHash": "0xde4fe864bb60e7fafbe1cc44c4165a36db83a7d9ab7cadbd45a2a645afdeae81",
  "args": [
    "0x0B9504140771C3688Ff041917192277D2f52E1e0",
    "0xFde53272dcd7938d16E031A6989753c321728332",
    "0x3143E1C0Af0Cdc153423863923Cf4e3818e34Daa",
    "0xCe36b85d12D81cd619C745c7717f3396E184Ac7C"
  ],
  "numDeployments": 1,
  "solcInputHash": "ad34345aa73d96f52b3e14df983b6b29",
  "bytecode": "0x6080604052604051620020183803806200201883398101604081905262000026916200156b565b60408051600480825260a08201909252600091816020015b604080516060808201835260008083526020830152918101919091528152602001906001900390816200003e5750506040805160018082528183019092529192506000919060208083019080368337019050509050631f931c1c60e01b81600081518110620000b157620000b1620015c8565b6001600160e01b03199290921660209283029190910182015260408051600580825260c08201909252600092909190820160a08036833701905050905063b61d27f660e01b816000815181106200010c576200010c620015c8565b6001600160e01b03199092166020928302919091019091015280516323f0ed1560e11b9082906001908110620001465762000146620015c8565b6001600160e01b0319909216602092830291909101909101528051633a871cdd60e01b9082906002908110620001805762000180620015c8565b6001600160e01b0319909216602092830291909101909101528051631a10fa5160e31b9082906003908110620001ba57620001ba620015c8565b6001600160e01b031990921660209283029190910190910152805163586b48ff60e11b9082906004908110620001f457620001f4620015c8565b6001600160e01b03199290921660209283029190910182015260408051600580825260c08201909252600092909190820160a08036833701905050905063150b7a0260e01b816000815181106200024f576200024f620015c8565b6001600160e01b031990921660209283029190910190910152805163f23a6e6160e01b9082906001908110620002895762000289620015c8565b6001600160e01b031990921660209283029190910190910152805163bc197c8160e01b9082906002908110620002c357620002c3620015c8565b6001600160e01b03199092166020928302919091019091015280516223de2960e01b9082906003908110620002fc57620002fc620015c8565b6001600160e01b0319909216602092830291909101909101528051635260769b60e11b9082906004908110620003365762000336620015c8565b6001600160e01b0319929092166020928302919091018201526040805160098082526101408201909252600092909190820161012080368337019050509050637a0ed62760e01b81600081518110620003935762000393620015c8565b6001600160e01b03199092166020928302919091019091015280516356fe50af60e11b9082906001908110620003cd57620003cd620015c8565b6001600160e01b03199092166020928302919091019091015280516314bbdacb60e21b9082906002908110620004075762000407620015c8565b6001600160e01b03199092166020928302919091019091015280516366ffd66360e11b9082906003908110620004415762000441620015c8565b6001600160e01b03199092166020928302919091019091015280516301ffc9a760e01b90829060049081106200047b576200047b620015c8565b6001600160e01b031990921660209283029190910190910152805163f9796ccf60e01b9082906005908110620004b557620004b5620015c8565b6001600160e01b031990921660209283029190910190910152805162d2a81160e11b9082906006908110620004ee57620004ee620015c8565b6001600160e01b031990921660209283029190910190910152805163d42139a960e01b9082906007908110620005285762000528620015c8565b6001600160e01b03199092166020928302919091019091015280516371d17b7f60e11b9082906008908110620005625762000562620015c8565b6001600160e01b031990921660209283029190910182015260408051606081019091526001600160a01b038b168152908101600081526020018581525085600081518110620005b557620005b5620015c8565b60200260200101819052506040518060600160405280896001600160a01b0316815260200160006002811115620005f057620005f0620015de565b815260200184815250856001815181106200060f576200060f620015c8565b60200260200101819052506040518060600160405280886001600160a01b03168152602001600060028111156200064a576200064a620015de565b81526020018381525085600281518110620006695762000669620015c8565b60200260200101819052506040518060600160405280876001600160a01b0316815260200160006002811115620006a457620006a4620015de565b81526020018281525085600381518110620006c357620006c3620015c8565b6020026020010181905250620006f1856000604051806020016040528060008152506200070060201b60201c565b5050505050505050506200184c565b60005b83518110156200090c576000848281518110620007245762000724620015c8565b602002602001015160200151905060006002811115620007485762000748620015de565b8160028111156200075d576200075d620015de565b03620007bb57620007b58583815181106200077c576200077c620015c8565b6020026020010151600001518684815181106200079d576200079d620015c8565b6020026020010151604001516200095b60201b60201c565b620008f6565b6001816002811115620007d257620007d2620015de565b036200082a57620007b5858381518110620007f157620007f1620015c8565b602002602001015160000151868481518110620008125762000812620015c8565b60200260200101516040015162000bf760201b60201c565b6002816002811115620008415762000841620015de565b036200089957620007b5858381518110620008605762000860620015c8565b602002602001015160000151868481518110620008815762000881620015c8565b60200260200101516040015162000ea160201b60201c565b60405162461bcd60e51b815260206004820152602760248201527f4c69624469616d6f6e644375743a20496e636f727265637420466163657443756044820152663a20b1ba34b7b760c91b60648201526084015b60405180910390fd5b508062000903816200160a565b91505062000703565b507f8faa70878671ccd212d20771b795c50af8fd3ff6cf27f4bde57e5d4de0aeb67383838360405162000942939291906200167a565b60405180910390a162000956828262001005565b505050565b805180620009af5760405162461bcd60e51b815260206004820152602b602482015260008051602062001ff883398151915260448201526a1858d95d081d1bc818dd5d60aa1b6064820152608401620008ed565b60008051602062001f8c8339815191526001600160a01b03841662000a2c5760405162461bcd60e51b815260206004820152602c60248201527f4c69624469616d6f6e644375743a204164642066616365742063616e2774206260448201526b65206164647265737328302960a01b6064820152608401620008ed565b6001600160a01b0384166000908152600182016020526040812054906001600160601b038216900362000a655762000a658286620010dd565b60005b8381101562000bef57600085828151811062000a885762000a88620015c8565b6020908102919091018101516001600160e01b031981166000908152918690526040909120549091506001600160a01b0316801562000b305760405162461bcd60e51b815260206004820152603560248201527f4c69624469616d6f6e644375743a2043616e2774206164642066756e6374696f60448201527f6e207468617420616c72656164792065786973747300000000000000000000006064820152608401620008ed565b6001600160e01b0319821660008181526020878152604080832080546001600160a01b03908116600160a01b6001600160601b038c16021782558d168085526001808c0185529285208054938401815585528385206008840401805463ffffffff60079095166004026101000a948502191660e08a901c94909402939093179092559390925287905281546001600160a01b0319161790558362000bd48162001781565b9450505050808062000be6906200160a565b91505062000a68565b505050505050565b80518062000c4b5760405162461bcd60e51b815260206004820152602b602482015260008051602062001ff883398151915260448201526a1858d95d081d1bc818dd5d60aa1b6064820152608401620008ed565b60008051602062001f8c8339815191526001600160a01b03841662000ccc5760405162461bcd60e51b815260206004820152603060248201527f4c69624469616d6f6e644375743a205265706c6163652066616365742063616e60448201526f2774206265206164647265737328302960801b6064820152608401620008ed565b6001600160a01b0384166000908152600182016020526040812054906001600160601b038216900362000d055762000d058286620010dd565b60005b8381101562000bef57600085828151811062000d285762000d28620015c8565b6020908102919091018101516001600160e01b031981166000908152918690526040909120549091506001600160a01b03908116908816810362000dd55760405162461bcd60e51b815260206004820152603560248201527f4c69624469616d6f6e644375743a2043616e2774207265706c6163652066756e60448201527f6374696f6e20776974682073616d6520666163657400000000000000000000006064820152608401620008ed565b62000de28582846200114a565b6001600160e01b0319821660008181526020878152604080832080546001600160a01b03908116600160a01b6001600160601b038c16021782558d168085526001808c0185529285208054938401815585528385206008840401805463ffffffff60079095166004026101000a948502191660e08a901c94909402939093179092559390925287905281546001600160a01b0319161790558362000e868162001781565b9450505050808062000e98906200160a565b91505062000d08565b80518062000ef55760405162461bcd60e51b815260206004820152602b602482015260008051602062001ff883398151915260448201526a1858d95d081d1bc818dd5d60aa1b6064820152608401620008ed565b60008051602062001f8c8339815191526001600160a01b0384161562000f845760405162461bcd60e51b815260206004820152603660248201527f4c69624469616d6f6e644375743a2052656d6f7665206661636574206164647260448201527f657373206d7573742062652061646472657373283029000000000000000000006064820152608401620008ed565b60005b8281101562000ffe57600084828151811062000fa75762000fa7620015c8565b6020908102919091018101516001600160e01b031981166000908152918590526040909120549091506001600160a01b031662000fe68482846200114a565b5050808062000ff5906200160a565b91505062000f87565b5050505050565b6001600160a01b03821662001018575050565b6200103d8260405180606001604052806028815260200162001fac602891396200152a565b600080836001600160a01b0316836040516200105a9190620017b2565b600060405180830381855af49150503d806000811462001097576040519150601f19603f3d011682016040523d82523d6000602084013e6200109c565b606091505b509150915081620010d757805115620010b85780518082602001fd5b838360405163192105d760e01b8152600401620008ed929190620017d0565b50505050565b620011028160405180606001604052806024815260200162001fd4602491396200152a565b6002820180546001600160a01b0390921660008181526001948501602090815260408220860185905594840183559182529290200180546001600160a01b0319169091179055565b6001600160a01b038216620011c85760405162461bcd60e51b815260206004820152603760248201527f4c69624469616d6f6e644375743a2043616e27742072656d6f76652066756e6360448201527f74696f6e207468617420646f65736e27742065786973740000000000000000006064820152608401620008ed565b306001600160a01b03831603620012395760405162461bcd60e51b815260206004820152602e60248201527f4c69624469616d6f6e644375743a2043616e27742072656d6f766520696d6d7560448201526d3a30b1363290333ab731ba34b7b760911b6064820152608401620008ed565b6001600160e01b03198116600090815260208481526040808320546001600160a01b0386168452600180880190935290832054600160a01b9091046001600160601b031692916200128a91620017fe565b905080821462001383576001600160a01b03841660009081526001860160205260408120805483908110620012c357620012c3620015c8565b600091825260208083206008830401546001600160a01b038916845260018a019091526040909220805460079092166004026101000a90920460e01b925082919085908110620013175762001317620015c8565b600091825260208083206008830401805463ffffffff60079094166004026101000a938402191660e09590951c929092029390931790556001600160e01b03199290921682528690526040902080546001600160a01b0316600160a01b6001600160601b038516021790555b6001600160a01b03841660009081526001860160205260409020805480620013af57620013af6200181a565b60008281526020808220600860001990940193840401805463ffffffff600460078716026101000a0219169055919092556001600160e01b0319851682528690526040812081905581900362000ffe5760028501546000906200141590600190620017fe565b6001600160a01b0386166000908152600180890160205260409091200154909150808214620014cb576000876002018381548110620014585762001458620015c8565b6000918252602090912001546002890180546001600160a01b0390921692508291849081106200148c576200148c620015c8565b600091825260208083209190910180546001600160a01b0319166001600160a01b03948516179055929091168152600189810190925260409020018190555b86600201805480620014e157620014e16200181a565b60008281526020808220830160001990810180546001600160a01b03191690559092019092556001600160a01b0388168252600189810190915260408220015550505050505050565b813b8181620010d75760405162461bcd60e51b8152600401620008ed919062001830565b80516001600160a01b03811681146200156657600080fd5b919050565b600080600080608085870312156200158257600080fd5b6200158d856200154e565b93506200159d602086016200154e565b9250620015ad604086016200154e565b9150620015bd606086016200154e565b905092959194509250565b634e487b7160e01b600052603260045260246000fd5b634e487b7160e01b600052602160045260246000fd5b634e487b7160e01b600052601160045260246000fd5b6000600182016200161f576200161f620015f4565b5060010190565b60005b838110156200164357818101518382015260200162001629565b50506000910152565b600081518084526200166681602086016020860162001626565b601f01601f19169290920160200192915050565b60006060808301818452808751808352608092508286019150828160051b8701016020808b0160005b848110156200174f57898403607f19018652815180516001600160a01b03168552838101518986019060038110620016eb57634e487b7160e01b600052602160045260246000fd5b868601526040918201519186018a905281519081905290840190600090898701905b80831015620017395783516001600160e01b03191682529286019260019290920191908601906200170d565b50978501979550505090820190600101620016a3565b50506001600160a01b038a169088015286810360408801526200177381896200164c565b9a9950505050505050505050565b60006001600160601b038281166002600160601b03198101620017a857620017a8620015f4565b6001019392505050565b60008251620017c681846020870162001626565b9190910192915050565b6001600160a01b0383168152604060208201819052600090620017f6908301846200164c565b949350505050565b81810381811115620018145762001814620015f4565b92915050565b634e487b7160e01b600052603160045260246000fd5b6020815260006200184560208301846200164c565b9392505050565b610730806200185c6000396000f3fe608060405234801561001057600080fd5b506004361061004c5760003560e01c806352ef6b2c146100515780637a0ed6271461006f578063adfca15e14610084578063cdffacc6146100a4575b600080fd5b610059610140565b60405161006691906104ab565b60405180910390f35b6100776101d1565b6040516100669190610562565b61009761009236600461060a565b6103d1565b6040516100669190610647565b61011b6100b236600461065a565b7fffffffff000000000000000000000000000000000000000000000000000000001660009081527f183cde5d4f6bb7b445b8fc2f7f15d0fd1d162275aded24183babbffee7cd491f602052604090205473ffffffffffffffffffffffffffffffffffffffff1690565b60405173ffffffffffffffffffffffffffffffffffffffff9091168152602001610066565b60607f183cde5d4f6bb7b445b8fc2f7f15d0fd1d162275aded24183babbffee7cd491f6002018054806020026020016040519081016040528092919081815260200182805480156101c757602002820191906000526020600020905b815473ffffffffffffffffffffffffffffffffffffffff16815260019091019060200180831161019c575b5050505050905090565b7f183cde5d4f6bb7b445b8fc2f7f15d0fd1d162275aded24183babbffee7cd4921546060907f183cde5d4f6bb7b445b8fc2f7f15d0fd1d162275aded24183babbffee7cd491f908067ffffffffffffffff8111156102315761023161069c565b60405190808252806020026020018201604052801561027757816020015b60408051808201909152600081526060602082015281526020019060019003908161024f5790505b50925060005b818110156103cb57600083600201828154811061029c5761029c6106cb565b9060005260206000200160009054906101000a900473ffffffffffffffffffffffffffffffffffffffff169050808583815181106102dc576102dc6106cb565b60209081029190910181015173ffffffffffffffffffffffffffffffffffffffff928316905290821660009081526001860182526040908190208054825181850281018501909352808352919290919083018282801561039d57602002820191906000526020600020906000905b82829054906101000a900460e01b7bffffffffffffffffffffffffffffffffffffffffffffffffffffffff19168152602001906004019060208260030104928301926001038202915080841161034a5790505b50505050508583815181106103b4576103b46106cb565b60209081029190910181015101525060010161027d565b50505090565b73ffffffffffffffffffffffffffffffffffffffff811660009081527f183cde5d4f6bb7b445b8fc2f7f15d0fd1d162275aded24183babbffee7cd4920602090815260409182902080548351818402810184019094528084526060939283018282801561049f57602002820191906000526020600020906000905b82829054906101000a900460e01b7bffffffffffffffffffffffffffffffffffffffffffffffffffffffff19168152602001906004019060208260030104928301926001038202915080841161044c5790505b50505050509050919050565b6020808252825182820181905260009190848201906040850190845b818110156104f957835173ffffffffffffffffffffffffffffffffffffffff16835292840192918401916001016104c7565b50909695505050505050565b600081518084526020808501945080840160005b838110156105575781517fffffffff000000000000000000000000000000000000000000000000000000001687529582019590820190600101610519565b509495945050505050565b60006020808301818452808551808352604092508286019150828160051b87010184880160005b838110156105fc578883037fffffffffffffffffffffffffffffffffffffffffffffffffffffffffffffffc00185528151805173ffffffffffffffffffffffffffffffffffffffff1684528701518784018790526105e987850182610505565b9588019593505090860190600101610589565b509098975050505050505050565b60006020828403121561061c57600080fd5b813573ffffffffffffffffffffffffffffffffffffffff8116811461064057600080fd5b9392505050565b6020815260006106406020830184610505565b60006020828403121561066c57600080fd5b81357fffffffff000000000000000000000000000000000000000000000000000000008116811461064057600080fd5b7f4e487b7100000000000000000000000000000000000000000000000000000000600052604160045260246000fd5b7f4e487b7100000000000000000000000000000000000000000000000000000000600052603260045260246000fdfea264697066735822122024a872696a5ad50024326567061c50adea63ff0d49edf0ac60339459d33d571664736f6c63430008150033183cde5d4f6bb7b445b8fc2f7f15d0fd1d162275aded24183babbffee7cd491f4c69624469616d6f6e644375743a205f696e6974206164647265737320686173206e6f20636f64654c69624469616d6f6e644375743a204e657720666163657420686173206e6f20636f64654c69624469616d6f6e644375743a204e6f2073656c6563746f727320696e2066",
  "devdoc": {
    "author": "David Yongjun Kim (@Powerstream3604)",
    "details": "A default fallback handler for Barz",
    "kind": "dev",
    "methods": {
      "constructor": {
        "details": "This contract is also a diamond that holds the default facets to reduce gas cost for wallet activation.      Within the constructor this conducts diamond cut to initially setup the diamond. This is a non-upgradeable contract",
        "params": {
          "_accountFacet": "Address account facet",
          "_diamondCutFacet": "Address if diamond cut facet",
          "_diamondLoupeFacet": "Address of diamond loupe facet",
          "_tokenReceiverFacet": "Address of token receiver facet"
        }
      },
      "facetAddress(bytes4)": {
        "details": "If facet is not found return address(0).",
        "params": {
          "_functionSelector": "The function selector."
        },
        "returns": {
          "facetAddress_": "The facet address."
        }
      },
      "facetAddresses()": {
        "returns": {
          "facetAddresses_": "facetAddresses_"
        }
      },
      "facetFunctionSelectors(address)": {
        "params": {
          "_facet": "The facet address."
        },
        "returns": {
          "facetFunctionSelectors_": "facetFunctionSelectors_"
        }
      },
      "facets()": {
        "returns": {
          "facets_": "The facet struct array including all facet information"
        }
      }
    },
    "title": "DefaultFallbackHandler",
    "version": 1
  },
  "userdoc": {
    "kind": "user",
    "methods": {
      "constructor": {
        "notice": "Sets the middleware diamond for Barz wallet as a fallback handler"
      },
      "facetAddress(bytes4)": {
        "notice": "Gets the facet that supports the given selector."
      },
      "facetAddresses()": {
        "notice": "Get all the facet addresses used by a diamond."
      },
      "facetFunctionSelectors(address)": {
        "notice": "Gets all the function selectors provided by a facet."
      },
      "facets()": {
        "notice": "Returns the facet information of call facets registered to this diamond."
      }
    },
    "version": 1
  },
  "storageLayout": {
    "storage": [],
    "types": null
  }
}