{
  "address": "0xFde53272dcd7938d16E031A6989753c321728332",
  "abi": [
    {
      "inputs": [],
      "stateMutability": "nonpayable",
      "type": "constructor"
    },
    {
      "inputs": [],
      "name": "AccountFacet__CallNotSuccessful",
      "type": "error"
    },
    {
      "inputs": [],
      "name": "AccountFacet__InitializationFailure",
      "type": "error"
    },
    {
      "inputs": [],
      "name": "AccountFacet__InvalidArrayLength",
      "type": "error"
    },
    {
      "inputs": [],
      "name": "AccountFacet__NonExistentVerificationFacet",
      "type": "error"
    },
    {
      "inputs": [],
      "name": "AccountFacet__RestrictionsFailure",
      "type": "error"
    },
    {
      "inputs": [
        {
          "internalType": "address",
          "name": "_initializationContractAddress",
          "type": "address"
        },
        {
          "internalType": "bytes",
          "name": "_calldata",
          "type": "bytes"
        }
      ],
      "name": "InitializationFunctionReverted",
      "type": "error"
    },
    {
      "inputs": [],
      "name": "LibAppStorage__AccountMustBeUninitialized",
      "type": "error"
    },
    {
      "anonymous": false,
      "inputs": [
        {
          "indexed": true,
          "internalType": "contract IEntryPoint",
          "name": "entryPoint",
          "type": "address"
        },
        {
          "indexed": true,
          "internalType": "bytes",
          "name": "ownerPublicKey",
          "type": "bytes"
        }
      ],
      "name": "AccountInitialized",
      "type": "event"
    },
    {
      "anonymous": false,
      "inputs": [
        {
          "components": [
            {
              "internalType": "address",
              "name": "facetAddress",
              "type": "address"
            },
            {
              "internalType": "enum IDiamondCut.FacetCutAction",
              "name": "action",
              "type": "uint8"
            },
            {
              "internalType": "bytes4[]",
              "name": "functionSelectors",
              "type": "bytes4[]"
            }
          ],
          "indexed": false,
          "internalType": "struct IDiamondCut.FacetCut[]",
          "name": "_diamondCut",
          "type": "tuple[]"
        },
        {
          "indexed": false,
          "internalType": "address",
          "name": "_init",
          "type": "address"
        },
        {
          "indexed": false,
          "internalType": "bytes",
          "name": "_calldata",
          "type": "bytes"
        }
      ],
      "name": "DiamondCut",
      "type": "event"
    },
    {
      "anonymous": false,
      "inputs": [
        {
          "indexed": false,
          "internalType": "bytes32",
          "name": "",
          "type": "bytes32"
        }
      ],
      "name": "VerificationFailure",
      "type": "event"
    },
    {
      "anonymous": false,
      "inputs": [
        {
          "indexed": false,
          "internalType": "bytes32",
          "name": "",
          "type": "bytes32"
        }
      ],
      "name": "VerificationSuccess",
      "type": "event"
    },
    {
      "inputs": [],
      "name": "entryPoint",
      "outputs": [
        {
          "internalType": "contract IEntryPoint",
          "name": "",
          "type": "address"
        }
      ],
      "stateMutability": "view",
      "type": "function"
    },
    {
      "inputs": [
        {
          "internalType": "address",
          "name": "_dest",
          "type": "address"
        },
        {
          "internalType": "uint256",
          "name": "_value",
          "type": "uint256"
        },
        {
          "internalType": "bytes",
          "name": "_func",
          "type": "bytes"
        }
      ],
      "name": "execute",
      "outputs": [],
      "stateMutability": "nonpayable",
      "type": "function"
    },
    {
      "inputs": [
        {
          "internalType": "address[]",
          "name": "_dest",
          "type": "address[]"
        },
        {
          "internalType": "uint256[]",
          "name": "_value",
          "type": "uint256[]"
        },
        {
          "internalType": "bytes[]",
          "name": "_func",
          "type": "bytes[]"
        }
      ],
      "name": "executeBatch",
      "outputs": [],
      "stateMutability": "nonpayable",
      "type": "function"
    },
    {
      "inputs": [],
      "name": "getNonce",
      "outputs": [
        {
          "internalType": "uint256",
          "name": "",
          "type": "uint256"
        }
      ],
      "stateMutability": "view",
      "type": "function"
    },
    {
      "inputs": [
        {
          "internalType": "address",
          "name": "_verificationFacet",
          "type": "address"
        },
        {
          "internalType": "address",
          "name": "_anEntryPoint",
          "type": "address"
        },
        {
          "internalType": "address",
          "name": "_facetRegistry",
          "type": "address"
        },
        {
          "internalType": "address",
          "name": "_defaultFallBackHandler",
          "type": "address"
        },
        {
          "internalType": "bytes",
          "name": "_ownerPublicKey",
          "type": "bytes"
        }
      ],
      "name": "initialize",
      "outputs": [
        {
          "internalType": "uint256",
          "name": "initSuccess",
          "type": "uint256"
        }
      ],
      "stateMutability": "nonpayable",
      "type": "function"
    },
    {
      "inputs": [
        {
          "components": [
            {
              "internalType": "address",
              "name": "sender",
              "type": "address"
            },
            {
              "internalType": "uint256",
              "name": "nonce",
              "type": "uint256"
            },
            {
              "internalType": "bytes",
              "name": "initCode",
              "type": "bytes"
            },
            {
              "internalType": "bytes",
              "name": "callData",
              "type": "bytes"
            },
            {
              "internalType": "uint256",
              "name": "callGasLimit",
              "type": "uint256"
            },
            {
              "internalType": "uint256",
              "name": "verificationGasLimit",
              "type": "uint256"
            },
            {
              "internalType": "uint256",
              "name": "preVerificationGas",
              "type": "uint256"
            },
            {
              "internalType": "uint256",
              "name": "maxFeePerGas",
              "type": "uint256"
            },
            {
              "internalType": "uint256",
              "name": "maxPriorityFeePerGas",
              "type": "uint256"
            },
            {
              "internalType": "bytes",
              "name": "paymasterAndData",
              "type": "bytes"
            },
            {
              "internalType": "bytes",
              "name": "signature",
              "type": "bytes"
            }
          ],
          "internalType": "struct UserOperation",
          "name": "userOp",
          "type": "tuple"
        },
        {
          "internalType": "bytes32",
          "name": "userOpHash",
          "type": "bytes32"
        },
        {
          "internalType": "uint256",
          "name": "missingAccountFunds",
          "type": "uint256"
        }
      ],
      "name": "validateUserOp",
      "outputs": [
        {
          "internalType": "uint256",
          "name": "validationData",
          "type": "uint256"
        }
      ],
      "stateMutability": "nonpayable",
      "type": "function"
    }
  ],
  "transactionHash": "0x9976cce066816a0077462d0bd62d4085ab53bc5093aca054e63f91c7de263ee5",
  "args": [],
  "numDeployments": 1,
  "solcInputHash": "ad34345aa73d96f52b3e14df983b6b29",
  "bytecode": "0x608060405234801561001057600080fd5b5061001961001e565b61008e565b600080805260208190527fad3228b676f7d3cd4284a5443f17f1962b36e491b30a40b2405849e597ba5fb554610100900460ff1615610070576040516338fc28cb60e01b815260040160405180910390fd5b600080805260209190915260409020805461ff001916610100179055565b6129b6806200009e6000396000f3fe608060405234801561001057600080fd5b50600436106100725760003560e01c8063b0d691fe11610050578063b0d691fe146100c5578063b61d27f61461010c578063d087d2881461011f57600080fd5b80633a871cdd1461007757806347e1da2a1461009d5780634a936417146100b2575b600080fd5b61008a610085366004611fb5565b610127565b6040519081526020015b60405180910390f35b6100b06100ab366004612055565b61014d565b005b61008a6100c036600461215a565b610450565b60015465010000000000900473ffffffffffffffffffffffffffffffffffffffff1660405173ffffffffffffffffffffffffffffffffffffffff9091168152602001610094565b6100b061011a3660046121ce565b6106d0565b61008a61089d565b600061013161095e565b61013b8484610a16565b905061014682610c5d565b9392505050565b6000805260036020527f3617319a054d772f909f7c479a2cebe5066e836a939412e32403c99029b92eff5467ffffffffffffffff9081164290911610156101f5576040517f08c379a000000000000000000000000000000000000000000000000000000000815260206004820152600e60248201527f4163636f756e74204c6f636b656400000000000000000000000000000000000060448201526064015b60405180910390fd5b6101fd61095e565b848114158061020c5750848314155b15610243576040517fdde5716100000000000000000000000000000000000000000000000000000000815260040160405180910390fd5b60006102b87fac87185d000000000000000000000000000000000000000000000000000000006000527f183cde5d4f6bb7b445b8fc2f7f15d0fd1d162275aded24183babbffee7cd491f6020527f6d9f2463c8c0d8cb8be556a773ab21d4321328909a1725f2ef7cae0c320e95da5460601c90565b905073ffffffffffffffffffffffffffffffffffffffff811661038f5760005b86811015610389576103818888838181106102f5576102f5612228565b905060200201602081019061030a9190612257565b87878481811061031c5761031c612228565b9050602002013586868581811061033557610335612228565b90506020028101906103479190612272565b8080601f016020809104026020016040519081016040528093929190818152602001838380828437600092019190915250610cc892505050565b6001016102d8565b50610447565b60005b868110156104455761043d8888838181106103af576103af612228565b90506020020160208101906103c49190612257565b8787848181106103d6576103d6612228565b905060200201358686858181106103ef576103ef612228565b90506020028101906104019190612272565b8080601f016020809104026020016040519081016040528093929190818152602001838380828437600092019190915250889250610d45915050565b600101610392565b505b50505050505050565b600061045a610e0d565b6001805473ffffffffffffffffffffffffffffffffffffffff88811665010000000000027fffffffffffffff0000000000000000000000000000000000000000ffffffffff90921691909117909155600280548783167fffffffffffffffffffffffff0000000000000000000000000000000000000000918216179091557f183cde5d4f6bb7b445b8fc2f7f15d0fd1d162275aded24183babbffee7cd492380549287169290911691909117905561051187610eb3565b60008383604051602401610526929190612320565b604080517fffffffffffffffffffffffffffffffffffffffffffffffffffffffffffffffe08184030181529181526020820180517bffffffffffffffffffffffffffffffffffffffffffffffffffffffff167fcd9b47e40000000000000000000000000000000000000000000000000000000017905251909150600090819073ffffffffffffffffffffffffffffffffffffffff8b16906105c8908590612360565b600060405180830381855af49150503d8060008114610603576040519150601f19603f3d011682016040523d82523d6000602084013e610608565b606091505b5091509150811580610623575061061e8161237c565b600114155b1561065a576040517f1602372100000000000000000000000000000000000000000000000000000000815260040160405180910390fd5b60019350858560405161066e9291906123c1565b60405190819003812060015490916501000000000090910473ffffffffffffffffffffffffffffffffffffffff16907fd429ff0b972be4ae725700a373d05007287994e4c86cb83315b43ffa85b595fd90600090a35050509695505050505050565b6000805260036020527f3617319a054d772f909f7c479a2cebe5066e836a939412e32403c99029b92eff5467ffffffffffffffff908116429091161015610773576040517f08c379a000000000000000000000000000000000000000000000000000000000815260206004820152600e60248201527f4163636f756e74204c6f636b656400000000000000000000000000000000000060448201526064016101ec565b61077b61095e565b60006107f07fac87185d000000000000000000000000000000000000000000000000000000006000527f183cde5d4f6bb7b445b8fc2f7f15d0fd1d162275aded24183babbffee7cd491f6020527f6d9f2463c8c0d8cb8be556a773ab21d4321328909a1725f2ef7cae0c320e95da5460601c90565b905073ffffffffffffffffffffffffffffffffffffffff81166108535761084e858585858080601f016020809104026020016040519081016040528093929190818152602001838380828437600092019190915250610cc892505050565b610896565b610896858585858080601f016020809104026020016040519081016040528093929190818152602001838380828437600092019190915250879250610d45915050565b5050505050565b60015460009065010000000000900473ffffffffffffffffffffffffffffffffffffffff166040517f35567e1a0000000000000000000000000000000000000000000000000000000081523060048201526000602482015273ffffffffffffffffffffffffffffffffffffffff91909116906335567e1a90604401602060405180830381865afa158015610935573d6000803e3d6000fd5b505050506040513d601f19601f8201168201806040525081019061095991906123d1565b905090565b60015465010000000000900473ffffffffffffffffffffffffffffffffffffffff1673ffffffffffffffffffffffffffffffffffffffff163373ffffffffffffffffffffffffffffffffffffffff1614610a14576040517f08c379a000000000000000000000000000000000000000000000000000000000815260206004820152601c60248201527f6163636f756e743a206e6f742066726f6d20456e747279506f696e740000000060448201526064016101ec565b565b600154610100900460e01b7fffffffff000000000000000000000000000000000000000000000000000000001660009081527f183cde5d4f6bb7b445b8fc2f7f15d0fd1d162275aded24183babbffee7cd491f602052604081205460601c80610aab576040517f6eb2360200000000000000000000000000000000000000000000000000000000815260040160405180910390fd5b600154604051600091610100900460e01b90610acd908790879060240161244e565b604051602081830303815290604052907bffffffffffffffffffffffffffffffffffffffffffffffffffffffff19166020820180517bffffffffffffffffffffffffffffffffffffffffffffffffffffffff838183161783525050505090506000808373ffffffffffffffffffffffffffffffffffffffff1683604051610b549190612360565b600060405180830381855af49150503d8060008114610b8f576040519150601f19603f3d011682016040523d82523d6000602084013e610b94565b606091505b509150915081610bd0576040517f3cbbb65000000000000000000000000000000000000000000000000000000000815260040160405180910390fd5b610bd98161237c565b94506000859003610c1c576040518681527f19e781916118c373dadcb7776fae0a2dbb6bbdeedae143ce68031e22801ef8659060200160405180910390a1610c50565b6040518681527fbbfee2df7f28b899771f1015dc85d7840ff9f6162f23f6aa99686e8fbd2ce1319060200160405180910390a15b5050505092915050565b50565b8015610c5a5760405160009033907fffffffffffffffffffffffffffffffffffffffffffffffffffffffffffffffff90849084818181858888f193505050503d8060008114610896576040519150601f19603f3d011682016040523d82523d6000602084013e610896565b6000808473ffffffffffffffffffffffffffffffffffffffff168484604051610cf19190612360565b60006040518083038185875af1925050503d8060008114610d2e576040519150601f19603f3d011682016040523d82523d6000602084013e610d33565b606091505b50915091508161089657805160208201fd5b610d5181858585611117565b15610d88576040517f01f595e300000000000000000000000000000000000000000000000000000000815260040160405180910390fd5b6000808573ffffffffffffffffffffffffffffffffffffffff168585604051610db19190612360565b60006040518083038185875af1925050503d8060008114610dee576040519150601f19603f3d011682016040523d82523d6000602084013e610df3565b606091505b509150915081610e0557805160208201fd5b505050505050565b600080805260208190527fad3228b676f7d3cd4284a5443f17f1962b36e491b30a40b2405849e597ba5fb554610100900460ff1615610e78576040517f38fc28cb00000000000000000000000000000000000000000000000000000000815260040160405180910390fd5b60008080526020919091526040902080547fffffffffffffffffffffffffffffffffffffffffffffffffffffffffffff00ff16610100179055565b604080516001808252818301909252600091816020015b60408051606080820183526000808352602083015291810191909152815260200190600190039081610eca57905050905060008273ffffffffffffffffffffffffffffffffffffffff16633253960f6040518163ffffffff1660e01b8152600401602060405180830381865afa158015610f48573d6000803e3d6000fd5b505050506040513d601f19601f82011682018060405250810190610f6c9190612592565b604080516003808252608082019092529192506000919060208201606080368337019050509050631626ba7e60e01b81600081518110610fae57610fae612228565b60200260200101907bffffffffffffffffffffffffffffffffffffffffffffffffffffffff191690817bffffffffffffffffffffffffffffffffffffffffffffffffffffffff191681525050818160018151811061100e5761100e612228565b7fffffffff000000000000000000000000000000000000000000000000000000009092166020928302919091019091015280517f8da5cb5b00000000000000000000000000000000000000000000000000000000908290600290811061107657611076612228565b7fffffffff00000000000000000000000000000000000000000000000000000000909216602092830291909101820152604080516060810190915273ffffffffffffffffffffffffffffffffffffffff861681529081016000815260200182815250836000815181106110eb576110eb612228565b602002602001018190525061111183600060405180602001604052806000815250611264565b50505050565b60008030858585604051602401611131949392919061264d565b604080517fffffffffffffffffffffffffffffffffffffffffffffffffffffffffffffffe08184030181529181526020820180517bffffffffffffffffffffffffffffffffffffffffffffffffffffffff167fac87185d0000000000000000000000000000000000000000000000000000000017905251909150600090819073ffffffffffffffffffffffffffffffffffffffff8916906111d3908590612360565b600060405180830381855af49150503d806000811461120e576040519150601f19603f3d011682016040523d82523d6000602084013e611213565b606091505b50915091508161124f576040517f01f595e300000000000000000000000000000000000000000000000000000000815260040160405180910390fd5b6112588161237c565b98975050505050505050565b7f183cde5d4f6bb7b445b8fc2f7f15d0fd1d162275aded24183babbffee7cd4921547f183cde5d4f6bb7b445b8fc2f7f15d0fd1d162275aded24183babbffee7cd491f9061ffff8116908190600090600716156112d35750600381901c60009081526001840160205260409020545b60005b87518110156113505761134383838a84815181106112f6576112f6612228565b6020026020010151600001518b858151811061131457611314612228565b6020026020010151602001518c868151811061133257611332612228565b6020026020010151604001516113f0565b90935091506001016112d6565b50828214611389576002840180547fffffffffffffffffffffffffffffffffffffffffffffffffffffffffffff00001661ffff84161790555b60078216156113ab57600382901c600090815260018501602052604090208190555b7f8faa70878671ccd212d20771b795c50af8fd3ff6cf27f4bde57e5d4de0aeb6738787876040516113de93929190612696565b60405180910390a16104478686611e81565b600080807f183cde5d4f6bb7b445b8fc2f7f15d0fd1d162275aded24183babbffee7cd491f905060008451116114a8576040517f08c379a000000000000000000000000000000000000000000000000000000000815260206004820152602b60248201527f4c69624469616d6f6e644375743a204e6f2073656c6563746f727320696e206660448201527f6163657420746f2063757400000000000000000000000000000000000000000060648201526084016101ec565b60008560028111156114bc576114bc6125d4565b0361168c576114e38660405180606001604052806024815260200161290d60249139611f7a565b60005b845181101561168657600085828151811061150357611503612228565b6020908102919091018101517fffffffff000000000000000000000000000000000000000000000000000000008116600090815291859052604090912054909150606081901c156115d6576040517f08c379a000000000000000000000000000000000000000000000000000000000815260206004820152603560248201527f4c69624469616d6f6e644375743a2043616e2774206164642066756e6374696f60448201527f6e207468617420616c726561647920657869737473000000000000000000000060648201526084016101ec565b7fffffffff0000000000000000000000000000000000000000000000000000000080831660008181526020879052604090207fffffffffffffffffffffffffffffffffffffffff00000000000000000000000060608d901b168e17905560e060058e901b811692831c199c909c1690821c179a81900361166a5760038c901c600090815260018601602052604081209b909b555b8b6116748161282d565b9c5050600190930192506114e6915050565b50611e75565b60018560028111156116a0576116a06125d4565b03611990576116c78660405180606001604052806028815260200161295960289139611f7a565b60005b84518110156116865760008582815181106116e7576116e7612228565b6020908102919091018101517fffffffff000000000000000000000000000000000000000000000000000000008116600090815291859052604090912054909150606081901c3081036117bc576040517f08c379a000000000000000000000000000000000000000000000000000000000815260206004820152602f60248201527f4c69624469616d6f6e644375743a2043616e2774207265706c61636520696d6d60448201527f757461626c652066756e6374696f6e000000000000000000000000000000000060648201526084016101ec565b8973ffffffffffffffffffffffffffffffffffffffff168173ffffffffffffffffffffffffffffffffffffffff1603611877576040517f08c379a000000000000000000000000000000000000000000000000000000000815260206004820152603860248201527f4c69624469616d6f6e644375743a2043616e2774207265706c6163652066756e60448201527f6374696f6e20776974682073616d652066756e6374696f6e000000000000000060648201526084016101ec565b73ffffffffffffffffffffffffffffffffffffffff811661191a576040517f08c379a000000000000000000000000000000000000000000000000000000000815260206004820152603860248201527f4c69624469616d6f6e644375743a2043616e2774207265706c6163652066756e60448201527f6374696f6e207468617420646f65736e2774206578697374000000000000000060648201526084016101ec565b507fffffffff0000000000000000000000000000000000000000000000000000000090911660009081526020849052604090206bffffffffffffffffffffffff919091167fffffffffffffffffffffffffffffffffffffffff00000000000000000000000060608a901b161790556001016116ca565b60028560028111156119a4576119a46125d4565b03611ded5773ffffffffffffffffffffffffffffffffffffffff861615611a4d576040517f08c379a000000000000000000000000000000000000000000000000000000000815260206004820152603660248201527f4c69624469616d6f6e644375743a2052656d6f7665206661636574206164647260448201527f657373206d75737420626520616464726573732830290000000000000000000060648201526084016101ec565b600388901c6007891660005b8651811015611dcd5760008a9003611a955782611a7581612865565b60008181526001870160205260409020549b50935060079250611aa39050565b81611a9f81612865565b9250505b6000806000808a8581518110611abb57611abb612228565b6020908102919091018101517fffffffff0000000000000000000000000000000000000000000000000000000081166000908152918a9052604090912054909150606081901c611b8d576040517f08c379a000000000000000000000000000000000000000000000000000000000815260206004820152603760248201527f4c69624469616d6f6e644375743a2043616e27742072656d6f76652066756e6360448201527f74696f6e207468617420646f65736e277420657869737400000000000000000060648201526084016101ec565b30606082901c03611c20576040517f08c379a000000000000000000000000000000000000000000000000000000000815260206004820152602e60248201527f4c69624469616d6f6e644375743a2043616e27742072656d6f766520696d6d7560448201527f7461626c652066756e6374696f6e00000000000000000000000000000000000060648201526084016101ec565b600587901b8f901b94507fffffffff0000000000000000000000000000000000000000000000000000000080861690831614611cbe577fffffffff000000000000000000000000000000000000000000000000000000008516600090815260208a90526040902080547fffffffffffffffffffffffffffffffffffffffff000000000000000000000000166bffffffffffffffffffffffff83161790555b7fffffffff0000000000000000000000000000000000000000000000000000000091909116600090815260208990526040812055600381901c611fff16925060051b60e0169050858214611d53576000828152600188016020526040902080547fffffffff0000000000000000000000000000000000000000000000000000000080841c19909116908516831c179055611da4565b80837bffffffffffffffffffffffffffffffffffffffffffffffffffffffff1916901c817fffffffff0000000000000000000000000000000000000000000000000000000060001b901c198e16179c505b84600003611dc257600086815260018801602052604081208190559c505b505050600101611a59565b5080611dda83600861289a565b611de491906128b7565b99505050611e75565b6040517f08c379a000000000000000000000000000000000000000000000000000000000815260206004820152602760248201527f4c69624469616d6f6e644375743a20496e636f7272656374204661636574437560448201527f74416374696f6e0000000000000000000000000000000000000000000000000060648201526084016101ec565b50959694955050505050565b73ffffffffffffffffffffffffffffffffffffffff8216611ea0575050565b611ec28260405180606001604052806028815260200161293160289139611f7a565b6000808373ffffffffffffffffffffffffffffffffffffffff1683604051611eea9190612360565b600060405180830381855af49150503d8060008114611f25576040519150601f19603f3d011682016040523d82523d6000602084013e611f2a565b606091505b50915091508161111157805115611f445780518082602001fd5b83836040517f192105d70000000000000000000000000000000000000000000000000000000081526004016101ec9291906128ca565b813b8181611111576040517f08c379a00000000000000000000000000000000000000000000000000000000081526004016101ec91906128f9565b600080600060608486031215611fca57600080fd5b833567ffffffffffffffff811115611fe157600080fd5b84016101608187031215611ff457600080fd5b95602085013595506040909401359392505050565b60008083601f84011261201b57600080fd5b50813567ffffffffffffffff81111561203357600080fd5b6020830191508360208260051b850101111561204e57600080fd5b9250929050565b6000806000806000806060878903121561206e57600080fd5b863567ffffffffffffffff8082111561208657600080fd5b6120928a838b01612009565b909850965060208901359150808211156120ab57600080fd5b6120b78a838b01612009565b909650945060408901359150808211156120d057600080fd5b506120dd89828a01612009565b979a9699509497509295939492505050565b803573ffffffffffffffffffffffffffffffffffffffff8116811461211357600080fd5b919050565b60008083601f84011261212a57600080fd5b50813567ffffffffffffffff81111561214257600080fd5b60208301915083602082850101111561204e57600080fd5b60008060008060008060a0878903121561217357600080fd5b61217c876120ef565b955061218a602088016120ef565b9450612198604088016120ef565b93506121a6606088016120ef565b9250608087013567ffffffffffffffff8111156121c257600080fd5b6120dd89828a01612118565b600080600080606085870312156121e457600080fd5b6121ed856120ef565b935060208501359250604085013567ffffffffffffffff81111561221057600080fd5b61221c87828801612118565b95989497509550505050565b7f4e487b7100000000000000000000000000000000000000000000000000000000600052603260045260246000fd5b60006020828403121561226957600080fd5b610146826120ef565b60008083357fffffffffffffffffffffffffffffffffffffffffffffffffffffffffffffffe18436030181126122a757600080fd5b83018035915067ffffffffffffffff8211156122c257600080fd5b60200191503681900382131561204e57600080fd5b8183528181602085013750600060208284010152600060207fffffffffffffffffffffffffffffffffffffffffffffffffffffffffffffffe0601f840116840101905092915050565b6020815260006123346020830184866122d7565b949350505050565b60005b8381101561235757818101518382015260200161233f565b50506000910152565b6000825161237281846020870161233c565b9190910192915050565b805160208083015191908110156123bb577fffffffffffffffffffffffffffffffffffffffffffffffffffffffffffffffff8160200360031b1b821691505b50919050565b8183823760009101908152919050565b6000602082840312156123e357600080fd5b5051919050565b60008083357fffffffffffffffffffffffffffffffffffffffffffffffffffffffffffffffe184360301811261241f57600080fd5b830160208101925035905067ffffffffffffffff81111561243f57600080fd5b80360382131561204e57600080fd5b6040815261247c60408201612462856120ef565b73ffffffffffffffffffffffffffffffffffffffff169052565b60208301356060820152600061249560408501856123ea565b6101608060808601526124ad6101a0860183856122d7565b92506124bc60608801886123ea565b92507fffffffffffffffffffffffffffffffffffffffffffffffffffffffffffffffc0808786030160a08801526124f48585846122d7565b9450608089013560c088015260a089013560e0880152610100935060c089013584880152610120915060e089013582880152610140848a01358189015261253d838b018b6123ea565b955092508188870301848901526125558686856122d7565b9550612563818b018b6123ea565b9550935050808786030161018088015250506125808383836122d7565b93505050508260208301529392505050565b6000602082840312156125a457600080fd5b81517fffffffff000000000000000000000000000000000000000000000000000000008116811461014657600080fd5b7f4e487b7100000000000000000000000000000000000000000000000000000000600052602160045260246000fd5b6000815180845261261b81602086016020860161233c565b601f017fffffffffffffffffffffffffffffffffffffffffffffffffffffffffffffffe0169290920160200192915050565b600073ffffffffffffffffffffffffffffffffffffffff80871683528086166020840152508360408301526080606083015261268c6080830184612603565b9695505050505050565b60006060808301818452808751808352608092508286019150828160051b8701016020808b0160005b848110156127c1577fffffffffffffffffffffffffffffffffffffffffffffffffffffffffffffff808a8503018652815188850173ffffffffffffffffffffffffffffffffffffffff82511686528482015160038110612748577f4e487b7100000000000000000000000000000000000000000000000000000000600052602160045260246000fd5b868601526040918201519186018a905281519081905290840190600090898701905b808310156127ac5783517fffffffff0000000000000000000000000000000000000000000000000000000016825292860192600192909201919086019061276a565b509785019795505050908201906001016126bf565b505073ffffffffffffffffffffffffffffffffffffffff8a169088015286810360408801526127f08189612603565b9a9950505050505050505050565b7f4e487b7100000000000000000000000000000000000000000000000000000000600052601160045260246000fd5b60007fffffffffffffffffffffffffffffffffffffffffffffffffffffffffffffffff820361285e5761285e6127fe565b5060010190565b600081612874576128746127fe565b507fffffffffffffffffffffffffffffffffffffffffffffffffffffffffffffffff0190565b80820281158282048414176128b1576128b16127fe565b92915050565b808201808211156128b1576128b16127fe565b73ffffffffffffffffffffffffffffffffffffffff831681526040602082015260006123346040830184612603565b602081526000610146602083018461260356fe4c69624469616d6f6e644375743a2041646420666163657420686173206e6f20636f64654c69624469616d6f6e644375743a205f696e6974206164647265737320686173206e6f20636f64654c69624469616d6f6e644375743a205265706c61636520666163657420686173206e6f20636f6465a2646970667358221220a952f19990a20474450919a2df9ddff4430a71350892e0954f2bb073575ad64864736f6c63430008150033",
  "devdoc": {
    "author": "David Yongjun Kim (@Powerstream3604)",
    "details": "Account module contract that provides the account features and initialization of signer      compatible with EIP-1271 & EIP-4337",
    "kind": "dev",
    "methods": {
      "execute(address,uint256,bytes)": {
        "details": "This method executes the calldata coming from the EntryPoint.      Barz will make a call to this function for majority of typical execution(e.g. Swap, Token Transfer)",
        "params": {
          "_dest": "Address of destination where the call will be forwarded to",
          "_func": "Bytes of calldata to execute in the destination address",
          "_value": "Amount of native coin the owner is willing to send(e.g. ETH, BNB)"
        }
      },
      "executeBatch(address[],uint256[],bytes[])": {
        "details": "This method batch executes the calldata coming from the EntryPoint.      Barz will make a call to this function for majority of typical execution(e.g. Swap, Token Transfer)",
        "params": {
          "_dest": "Array of addresses of destination where the call will be forwarded to",
          "_func": "Array of bytes of calldata to execute in the destination address",
          "_value": "Array of amount of native coin the owner is willing to send(e.g. ETH, BNB)"
        }
      },
      "initialize(address,address,address,address,bytes)": {
        "details": "This method can only be called during the initialization or signature migration.      If the proxy contract was created without initialization, anyone can call initialize.      Barz calls initialize in constructor in an atomic transaction during deployment",
        "params": {
          "_anEntryPoint": "Entrypoint contract defined in EIP-4337 handling the flow of UserOp",
          "_defaultFallBackHandler": "Middleware contract for default facets",
          "_facetRegistry": "Registry of Facets that hold all facet information",
          "_ownerPublicKey": "Bytes of owner public key",
          "_verificationFacet": "Facet contract handling the verificationi"
        }
      }
    },
    "title": "Account Facet",
    "version": 1
  },
  "userdoc": {
    "kind": "user",
    "methods": {
      "constructor": {
        "notice": "This constructor ensures that this contract can only be used as singleton for Proxy contracts"
      },
      "entryPoint()": {
        "notice": "Returns the address of EntryPoint contract registered to Barz account"
      },
      "execute(address,uint256,bytes)": {
        "notice": "Calls the destination with inputted calldata and value from EntryPoint"
      },
      "executeBatch(address[],uint256[],bytes[])": {
        "notice": "Batch calls the destination with inputted calldata and value from EntryPoint"
      },
      "getNonce()": {
        "notice": "Return the account nonce. This method returns the next sequential nonce. For a nonce of a specific key, use `entrypoint.getNonce(account, key)`"
      },
      "initialize(address,address,address,address,bytes)": {
        "notice": "Initializes the initial storage of the Barz contract."
      },
      "validateUserOp((address,uint256,bytes,bytes,uint256,uint256,uint256,uint256,uint256,bytes,bytes),bytes32,uint256)": {
        "notice": "Validate user's signature and nonce. subclass doesn't need to override this method. Instead, it should override the specific internal validation methods."
      }
    },
    "version": 1
  },
  "storageLayout": {
    "storage": [
      {
        "astId": 27866,
        "contract": "contracts/facets/AccountFacet.sol:AccountFacet",
        "label": "s",
        "offset": 0,
        "slot": "0",
        "type": "t_struct(AppStorage)27613_storage"
      }
    ],
    "types": {
      "t_bytes4": {
        "encoding": "inplace",
        "label": "bytes4",
        "numberOfBytes": "4"
      },
      "t_contract(IEntryPoint)12286": {
        "encoding": "inplace",
        "label": "contract IEntryPoint",
        "numberOfBytes": "20"
      },
      "t_contract(IFacetRegistry)26148": {
        "encoding": "inplace",
        "label": "contract IFacetRegistry",
        "numberOfBytes": "20"
      },
      "t_mapping(t_uint256,t_struct(InitializersStorage)27592_storage)": {
        "encoding": "mapping",
        "key": "t_uint256",
        "label": "mapping(uint256 => struct InitializersStorage)",
        "numberOfBytes": "32",
        "value": "t_struct(InitializersStorage)27592_storage"
      },
      "t_mapping(t_uint256,t_struct(Lock)27585_storage)": {
        "encoding": "mapping",
        "key": "t_uint256",
        "label": "mapping(uint256 => struct Lock)",
        "numberOfBytes": "32",
        "value": "t_struct(Lock)27585_storage"
      },
      "t_struct(AppStorage)27613_storage": {
        "encoding": "inplace",
        "label": "struct AppStorage",
        "members": [
          {
            "astId": 27597,
            "contract": "contracts/facets/AccountFacet.sol:AccountFacet",
            "label": "initStorage",
            "offset": 0,
            "slot": "0",
            "type": "t_mapping(t_uint256,t_struct(InitializersStorage)27592_storage)"
          },
          {
            "astId": 27599,
            "contract": "contracts/facets/AccountFacet.sol:AccountFacet",
            "label": "signerMigration",
            "offset": 0,
            "slot": "1",
            "type": "t_uint8"
          },
          {
            "astId": 27601,
            "contract": "contracts/facets/AccountFacet.sol:AccountFacet",
            "label": "validateOwnerSignatureSelector",
            "offset": 1,
            "slot": "1",
            "type": "t_bytes4"
          },
          {
            "astId": 27604,
            "contract": "contracts/facets/AccountFacet.sol:AccountFacet",
            "label": "entryPoint",
            "offset": 5,
            "slot": "1",
            "type": "t_contract(IEntryPoint)12286"
          },
          {
            "astId": 27607,
            "contract": "contracts/facets/AccountFacet.sol:AccountFacet",
            "label": "facetRegistry",
            "offset": 0,
            "slot": "2",
            "type": "t_contract(IFacetRegistry)26148"
          },
          {
            "astId": 27612,
            "contract": "contracts/facets/AccountFacet.sol:AccountFacet",
            "label": "locks",
            "offset": 0,
            "slot": "3",
            "type": "t_mapping(t_uint256,t_struct(Lock)27585_storage)"
          }
        ],
        "numberOfBytes": "128"
      },
      "t_struct(InitializersStorage)27592_storage": {
        "encoding": "inplace",
        "label": "struct InitializersStorage",
        "members": [
          {
            "astId": 27587,
            "contract": "contracts/facets/AccountFacet.sol:AccountFacet",
            "label": "signerInitialized",
            "offset": 0,
            "slot": "0",
            "type": "t_uint8"
          },
          {
            "astId": 27589,
            "contract": "contracts/facets/AccountFacet.sol:AccountFacet",
            "label": "accountInitialized",
            "offset": 1,
            "slot": "0",
            "type": "t_uint8"
          },
          {
            "astId": 27591,
            "contract": "contracts/facets/AccountFacet.sol:AccountFacet",
            "label": "restrictionsInitialized",
            "offset": 2,
            "slot": "0",
            "type": "t_uint8"
          }
        ],
        "numberOfBytes": "32"
      },
      "t_struct(Lock)27585_storage": {
        "encoding": "inplace",
        "label": "struct Lock",
        "members": [
          {
            "astId": 27582,
            "contract": "contracts/facets/AccountFacet.sol:AccountFacet",
            "label": "release",
            "offset": 0,
            "slot": "0",
            "type": "t_uint64"
          },
          {
            "astId": 27584,
            "contract": "contracts/facets/AccountFacet.sol:AccountFacet",
            "label": "locker",
            "offset": 8,
            "slot": "0",
            "type": "t_bytes4"
          }
        ],
        "numberOfBytes": "32"
      },
      "t_uint256": {
        "encoding": "inplace",
        "label": "uint256",
        "numberOfBytes": "32"
      },
      "t_uint64": {
        "encoding": "inplace",
        "label": "uint64",
        "numberOfBytes": "8"
      },
      "t_uint8": {
        "encoding": "inplace",
        "label": "uint8",
        "numberOfBytes": "1"
      }
    }
  }
}