{
  "address": "0x58Cb9Abe27fcd6f72354E98Cf5cc46BEAA2182DF",
  "abi": [
    {
      "inputs": [],
      "stateMutability": "nonpayable",
      "type": "constructor"
    },
    {
      "inputs": [],
      "name": "LibAppStorage__AccountMustBeUninitialized",
      "type": "error"
    },
    {
      "inputs": [],
      "name": "LibAppStorage__SignerAlreadyUninitialized",
      "type": "error"
    },
    {
      "inputs": [],
      "name": "LibAppStorage__SignerMustBeUninitialized",
      "type": "error"
    },
    {
      "inputs": [],
      "name": "Secp256k1VerificationFacet__InvalidSignerLength",
      "type": "error"
    },
    {
      "inputs": [],
      "name": "VerificationFacet__InitializationFailure",
      "type": "error"
    },
    {
      "inputs": [],
      "name": "VerificationFacet__InvalidFacetMapping",
      "type": "error"
    },
    {
      "inputs": [],
      "name": "VerificationFacet__ValidateOwnerSignatureSelectorAlreadySet",
      "type": "error"
    },
    {
      "inputs": [],
      "name": "VerificationFacet__ValidateOwnerSignatureSelectorNotSet",
      "type": "error"
    },
    {
      "anonymous": false,
      "inputs": [
        {
          "indexed": false,
          "internalType": "bytes",
          "name": "",
          "type": "bytes"
        }
      ],
      "name": "SignerInitialized",
      "type": "event"
    },
    {
      "anonymous": false,
      "inputs": [],
      "name": "SignerUninitialized",
      "type": "event"
    },
    {
      "inputs": [
        {
          "internalType": "bytes",
          "name": "_publicKey",
          "type": "bytes"
        }
      ],
      "name": "initializeSigner",
      "outputs": [
        {
          "internalType": "uint256",
          "name": "initSuccess",
          "type": "uint256"
        }
      ],
      "stateMutability": "nonpayable",
      "type": "function"
    },
    {
      "inputs": [
        {
          "internalType": "bytes",
          "name": "_publicKey",
          "type": "bytes"
        }
      ],
      "name": "isValidKeyType",
      "outputs": [
        {
          "internalType": "bool",
          "name": "isValid",
          "type": "bool"
        }
      ],
      "stateMutability": "pure",
      "type": "function"
    },
    {
      "inputs": [
        {
          "internalType": "bytes32",
          "name": "_hash",
          "type": "bytes32"
        },
        {
          "internalType": "bytes",
          "name": "_signature",
          "type": "bytes"
        }
      ],
      "name": "isValidSignature",
      "outputs": [
        {
          "internalType": "bytes4",
          "name": "magicValue",
          "type": "bytes4"
        }
      ],
      "stateMutability": "view",
      "type": "function"
    },
    {
      "inputs": [],
      "name": "owner",
      "outputs": [
        {
          "internalType": "bytes",
          "name": "signer",
          "type": "bytes"
        }
      ],
      "stateMutability": "view",
      "type": "function"
    },
    {
      "inputs": [],
      "name": "self",
      "outputs": [
        {
          "internalType": "address",
          "name": "",
          "type": "address"
        }
      ],
      "stateMutability": "view",
      "type": "function"
    },
    {
      "inputs": [],
      "name": "uninitializeSigner",
      "outputs": [
        {
          "internalType": "uint256",
          "name": "uninitSuccess",
          "type": "uint256"
        }
      ],
      "stateMutability": "nonpayable",
      "type": "function"
    },
    {
      "inputs": [
        {
          "components": [
            {
              "internalType": "address",
              "name": "sender",
              "type": "address"
            },
            {
              "internalType": "uint256",
              "name": "nonce",
              "type": "uint256"
            },
            {
              "internalType": "bytes",
              "name": "initCode",
              "type": "bytes"
            },
            {
              "internalType": "bytes",
              "name": "callData",
              "type": "bytes"
            },
            {
              "internalType": "uint256",
              "name": "callGasLimit",
              "type": "uint256"
            },
            {
              "internalType": "uint256",
              "name": "verificationGasLimit",
              "type": "uint256"
            },
            {
              "internalType": "uint256",
              "name": "preVerificationGas",
              "type": "uint256"
            },
            {
              "internalType": "uint256",
              "name": "maxFeePerGas",
              "type": "uint256"
            },
            {
              "internalType": "uint256",
              "name": "maxPriorityFeePerGas",
              "type": "uint256"
            },
            {
              "internalType": "bytes",
              "name": "paymasterAndData",
              "type": "bytes"
            },
            {
              "internalType": "bytes",
              "name": "signature",
              "type": "bytes"
            }
          ],
          "internalType": "struct UserOperation",
          "name": "userOp",
          "type": "tuple"
        },
        {
          "internalType": "bytes32",
          "name": "userOpHash",
          "type": "bytes32"
        }
      ],
      "name": "validateOwnerSignature",
      "outputs": [
        {
          "internalType": "uint256",
          "name": "validationData",
          "type": "uint256"
        }
      ],
      "stateMutability": "view",
      "type": "function"
    },
    {
      "inputs": [],
      "name": "validateOwnerSignatureSelector",
      "outputs": [
        {
          "internalType": "bytes4",
          "name": "ownerSignatureValidatorSelector",
          "type": "bytes4"
        }
      ],
      "stateMutability": "pure",
      "type": "function"
    },
    {
      "inputs": [
        {
          "components": [
            {
              "internalType": "address",
              "name": "sender",
              "type": "address"
            },
            {
              "internalType": "uint256",
              "name": "nonce",
              "type": "uint256"
            },
            {
              "internalType": "bytes",
              "name": "initCode",
              "type": "bytes"
            },
            {
              "internalType": "bytes",
              "name": "callData",
              "type": "bytes"
            },
            {
              "internalType": "uint256",
              "name": "callGasLimit",
              "type": "uint256"
            },
            {
              "internalType": "uint256",
              "name": "verificationGasLimit",
              "type": "uint256"
            },
            {
              "internalType": "uint256",
              "name": "preVerificationGas",
              "type": "uint256"
            },
            {
              "internalType": "uint256",
              "name": "maxFeePerGas",
              "type": "uint256"
            },
            {
              "internalType": "uint256",
              "name": "maxPriorityFeePerGas",
              "type": "uint256"
            },
            {
              "internalType": "bytes",
              "name": "paymasterAndData",
              "type": "bytes"
            },
            {
              "internalType": "bytes",
              "name": "signature",
              "type": "bytes"
            }
          ],
          "internalType": "struct UserOperation",
          "name": "userOp",
          "type": "tuple"
        },
        {
          "internalType": "bytes32",
          "name": "userOpHash",
          "type": "bytes32"
        },
        {
          "internalType": "address",
          "name": "signer",
          "type": "address"
        }
      ],
      "name": "validateSignature",
      "outputs": [
        {
          "internalType": "uint256",
          "name": "isValid",
          "type": "uint256"
        }
      ],
      "stateMutability": "pure",
      "type": "function"
    }
  ],
  "transactionHash": "0xf4bd12ab073ace805cd854b8cb036dc81ec4849770ad98e2e06e5c05f290f196",
  "args": [],
  "numDeployments": 1,
  "solcInputHash": "ad34345aa73d96f52b3e14df983b6b29",
  "bytecode": "0x60a060405234801561001057600080fd5b50610019610022565b3060805261008b565b600080805260208190527fad3228b676f7d3cd4284a5443f17f1962b36e491b30a40b2405849e597ba5fb55460ff161561006f57604051637c2cde8b60e01b815260040160405180910390fd5b600080805260209190915260409020805460ff19166001179055565b6080516111946100ad6000396000818161013f015261066401526111946000f3fe608060405234801561001057600080fd5b50600436106100a35760003560e01c80638da5cb5b11610076578063cd00e50a1161005b578063cd00e50a14610218578063cd9b47e414610220578063f45007c31461023357600080fd5b80638da5cb5b146101865780638dd50121146101f757600080fd5b80631626ba7e146100a85780633253960f146100f1578063392dd6d9146101175780637104ddb21461013a575b600080fd5b6100bb6100b6366004610de8565b610246565b6040517fffffffff0000000000000000000000000000000000000000000000000000000090911681526020015b60405180910390f35b7f8dd50121000000000000000000000000000000000000000000000000000000006100bb565b61012a610125366004610e2f565b6102f4565b60405190151581526020016100e8565b6101617f000000000000000000000000000000000000000000000000000000000000000081565b60405173ffffffffffffffffffffffffffffffffffffffff90911681526020016100e8565b7f9d0217145d12a316adea26b4f622aec07fb71e6638d613bb415476f4c179eecc546040805160609290921b7fffffffffffffffffffffffffffffffffffffffff00000000000000000000000016602083015280518083036014018152603490920190526040516100e89190610e64565b61020a610205366004610ee9565b610366565b6040519081526020016100e8565b61020a6103b8565b61020a61022e366004610f2e565b6104d6565b61020a610241366004610fa0565b6107b7565b60007f9d0217145d12a316adea26b4f622aec07fb71e6638d613bb415476f4c179eecc5473ffffffffffffffffffffffffffffffffffffffff1661028a848461087c565b73ffffffffffffffffffffffffffffffffffffffff16146102cb577fffffffff000000000000000000000000000000000000000000000000000000006102ed565b7f1626ba7e000000000000000000000000000000000000000000000000000000005b9392505050565b60008151604114801561036057508160008151811061031557610315611014565b6020910101517fff00000000000000000000000000000000000000000000000000000000000000167f0400000000000000000000000000000000000000000000000000000000000000145b92915050565b7f9d0217145d12a316adea26b4f622aec07fb71e6638d613bb415476f4c179eecc8054600091906103b0908590859073ffffffffffffffffffffffffffffffffffffffff166107b7565b949350505050565b60006103c26108a0565b6103ca6108e0565b7f9d0217145d12a316adea26b4f622aec07fb71e6638d613bb415476f4c179eecc80547fffffffffffffffffffffffff00000000000000000000000000000000000000001681556000610424600154610100900460e01b90565b7fffffffff00000000000000000000000000000000000000000000000000000000160361047d576040517f127c609a00000000000000000000000000000000000000000000000000000000815260040160405180910390fd5b600180547fffffffffffffffffffffffffffffffffffffffffffffffffffffff00000000ff169055604051600192507fcccd30db6bc000b8bb8d11162228d2d69e3c361983ca3ae8c1365ce64b0fae9e90600090a15090565b60006104e061097f565b61051f83838080601f0160208091040260200160405190810160405280939291908181526020018383808284376000920191909152506102f492505050565b610555576040517f22281e8500000000000000000000000000000000000000000000000000000000815260040160405180910390fd5b7f9d0217145d12a316adea26b4f622aec07fb71e6638d613bb415476f4c179eecc6105838360018187611043565b60405161059192919061106d565b60405190819003902081547fffffffffffffffffffffffff00000000000000000000000000000000000000001673ffffffffffffffffffffffffffffffffffffffff9091161781556001547f8dd501210000000000000000000000000000000000000000000000000000000090600090610100900460e01b7fffffffff000000000000000000000000000000000000000000000000000000001614610662576040517f5f95a63c00000000000000000000000000000000000000000000000000000000815260040160405180910390fd5b7f000000000000000000000000000000000000000000000000000000000000000073ffffffffffffffffffffffffffffffffffffffff166106f3827fffffffff000000000000000000000000000000000000000000000000000000001660009081527f183cde5d4f6bb7b445b8fc2f7f15d0fd1d162275aded24183babbffee7cd491f602052604090205460601c90565b73ffffffffffffffffffffffffffffffffffffffff1614610740576040517fbb4752b700000000000000000000000000000000000000000000000000000000815260040160405180910390fd5b600180547fffffffffffffffffffffffffffffffffffffffffffffffffffffff00000000ff1661010060e084901c02179055600192507f6d54821a69ec281ed7ba1bf2729c700768c47df1d80fad646b0a14cc1d5c39ed85856040516107a792919061107d565b60405180910390a1505092915050565b7f19457468657265756d205369676e6564204d6573736167653a0a3332000000006000908152601c839052603c81206108346107f76101408701876110ca565b8080601f016020809104026020016040519081016040528093929190818152602001838380828437600092019190915250859392505061087c9050565b73ffffffffffffffffffffffffffffffffffffffff168373ffffffffffffffffffffffffffffffffffffffff160361086d576000610870565b60015b60ff1695945050505050565b600080600061088b8585610a1f565b9150915061089881610a64565b509392505050565b6001805460ff16146108de576040517f38fc28cb00000000000000000000000000000000000000000000000000000000815260040160405180910390fd5b565b600080805260208190527fad3228b676f7d3cd4284a5443f17f1962b36e491b30a40b2405849e597ba5fb55460ff16600114610948576040517fe00d7c7700000000000000000000000000000000000000000000000000000000815260040160405180910390fd5b60008080526020919091526040902080547fffffffffffffffffffffffffffffffffffffffffffffffffffffffffffffff00169055565b600080805260208190527fad3228b676f7d3cd4284a5443f17f1962b36e491b30a40b2405849e597ba5fb55460ff16156109e5576040517f7c2cde8b00000000000000000000000000000000000000000000000000000000815260040160405180910390fd5b60008080526020919091526040902080547fffffffffffffffffffffffffffffffffffffffffffffffffffffffffffffff00166001179055565b6000808251604103610a555760208301516040840151606085015160001a610a4987828585610c1f565b94509450505050610a5d565b506000905060025b9250929050565b6000816004811115610a7857610a7861112f565b03610a805750565b6001816004811115610a9457610a9461112f565b03610b00576040517f08c379a000000000000000000000000000000000000000000000000000000000815260206004820152601860248201527f45434453413a20696e76616c6964207369676e6174757265000000000000000060448201526064015b60405180910390fd5b6002816004811115610b1457610b1461112f565b03610b7b576040517f08c379a000000000000000000000000000000000000000000000000000000000815260206004820152601f60248201527f45434453413a20696e76616c6964207369676e6174757265206c656e677468006044820152606401610af7565b6003816004811115610b8f57610b8f61112f565b03610c1c576040517f08c379a000000000000000000000000000000000000000000000000000000000815260206004820152602260248201527f45434453413a20696e76616c6964207369676e6174757265202773272076616c60448201527f75650000000000000000000000000000000000000000000000000000000000006064820152608401610af7565b50565b6000807f7fffffffffffffffffffffffffffffff5d576e7357a4501ddfe92f46681b20a0831115610c565750600090506003610d05565b6040805160008082526020820180845289905260ff881692820192909252606081018690526080810185905260019060a0016020604051602081039080840390855afa158015610caa573d6000803e3d6000fd5b50506040517fffffffffffffffffffffffffffffffffffffffffffffffffffffffffffffffe0015191505073ffffffffffffffffffffffffffffffffffffffff8116610cfe57600060019250925050610d05565b9150600090505b94509492505050565b7f4e487b7100000000000000000000000000000000000000000000000000000000600052604160045260246000fd5b600082601f830112610d4e57600080fd5b813567ffffffffffffffff80821115610d6957610d69610d0e565b604051601f83017fffffffffffffffffffffffffffffffffffffffffffffffffffffffffffffffe0908116603f01168101908282118183101715610daf57610daf610d0e565b81604052838152866020858801011115610dc857600080fd5b836020870160208301376000602085830101528094505050505092915050565b60008060408385031215610dfb57600080fd5b82359150602083013567ffffffffffffffff811115610e1957600080fd5b610e2585828601610d3d565b9150509250929050565b600060208284031215610e4157600080fd5b813567ffffffffffffffff811115610e5857600080fd5b6103b084828501610d3d565b600060208083528351808285015260005b81811015610e9157858101830151858201604001528201610e75565b5060006040828601015260407fffffffffffffffffffffffffffffffffffffffffffffffffffffffffffffffe0601f8301168501019250505092915050565b60006101608284031215610ee357600080fd5b50919050565b60008060408385031215610efc57600080fd5b823567ffffffffffffffff811115610f1357600080fd5b610f1f85828601610ed0565b95602094909401359450505050565b60008060208385031215610f4157600080fd5b823567ffffffffffffffff80821115610f5957600080fd5b818501915085601f830112610f6d57600080fd5b813581811115610f7c57600080fd5b866020828501011115610f8e57600080fd5b60209290920196919550909350505050565b600080600060608486031215610fb557600080fd5b833567ffffffffffffffff811115610fcc57600080fd5b610fd886828701610ed0565b93505060208401359150604084013573ffffffffffffffffffffffffffffffffffffffff8116811461100957600080fd5b809150509250925092565b7f4e487b7100000000000000000000000000000000000000000000000000000000600052603260045260246000fd5b6000808585111561105357600080fd5b8386111561106057600080fd5b5050820193919092039150565b8183823760009101908152919050565b60208152816020820152818360408301376000818301604090810191909152601f9092017fffffffffffffffffffffffffffffffffffffffffffffffffffffffffffffffe0160101919050565b60008083357fffffffffffffffffffffffffffffffffffffffffffffffffffffffffffffffe18436030181126110ff57600080fd5b83018035915067ffffffffffffffff82111561111a57600080fd5b602001915036819003821315610a5d57600080fd5b7f4e487b7100000000000000000000000000000000000000000000000000000000600052602160045260246000fdfea2646970667358221220de3368e3f3953432149ec8ab61e8db05409a34e6f3f223f6bc0a20072fa01cf364736f6c63430008150033",
  "devdoc": {
    "author": "David Yongjun Kim (@Powerstream3604)Ruslan Serebriakov (@rsrbk)",
    "details": "Default Ethereum's elliptic curve",
    "kind": "dev",
    "methods": {
      "initializeSigner(bytes)": {
        "details": "This method checks if the signer has already been initialized. If already initialized, it reverts.      It checks if the public key is in the light format and initializes signer storage in k1 storage.",
        "params": {
          "_publicKey": "Bytes of owner public key"
        },
        "returns": {
          "initSuccess": "Uint value representing the success of init operation"
        }
      },
      "isValidKeyType(bytes)": {
        "details": "For this Secp256k1Verification Facet, the public key length should be 65 in an uncompressed public key format",
        "params": {
          "_publicKey": "Bytes of public key for format check"
        },
        "returns": {
          "isValid": "Boolean variable representing if the format of public key is valid"
        }
      },
      "isValidSignature(bytes32,bytes)": {
        "details": "This method verifies the signature if the owner indeed signed the hash. Returns magic value if true",
        "params": {
          "_hash": "Hash value the owner signed",
          "_signature": "Signature that signed the above hash"
        },
        "returns": {
          "magicValue": "Bytes4 value representing the success/failure of validation"
        }
      },
      "owner()": {
        "returns": {
          "signer": "Bytes of owner address"
        }
      },
      "uninitializeSigner()": {
        "details": "This method checks if the signature migration is undergoing, signer is initialized and sets the signer to zero value.",
        "returns": {
          "uninitSuccess": "Uint value representing the success of uninit operation"
        }
      },
      "validateOwnerSignature((address,uint256,bytes,bytes,uint256,uint256,uint256,uint256,uint256,bytes,bytes),bytes32)": {
        "details": "This method validates if the user operation is signed by the owner. It internally calls validateSignature with      signer public key.",
        "params": {
          "userOp": "UserOperation including all information for execution",
          "userOpHash": "Hash of UserOperation given from EntryPoint. This hash is used for signature validation"
        },
        "returns": {
          "validationData": "Uint value representing whether the validation is successful. 0 for success, 1 for failure"
        }
      },
      "validateOwnerSignatureSelector()": {
        "returns": {
          "ownerSignatureValidatorSelector": "Bytes4 selector of function signature to validate account owner's UserOperation signature"
        }
      },
      "validateSignature((address,uint256,bytes,bytes,uint256,uint256,uint256,uint256,uint256,bytes,bytes),bytes32,address)": {
        "details": "This method uses OpenZeppelin library to validate if the signature of UserOperation is signed by the signer address",
        "params": {
          "signer": "Address of signer who signed the contract, to be validated",
          "userOp": "UserOperation including all information for execution",
          "userOpHash": "Hash of UserOperation given from EntryPoint. This hash is used for signature validation"
        },
        "returns": {
          "isValid": "Uint value representing whether the validation is successful. 0 for success, 1 for failure"
        }
      }
    },
    "title": "Secp256k1 verification facet",
    "version": 1
  },
  "userdoc": {
    "kind": "user",
    "methods": {
      "constructor": {
        "notice": "This constructor ensures that this contract can only be used as singleton for Proxy contracts"
      },
      "initializeSigner(bytes)": {
        "notice": "Initializes the signer in K1 Facet Storage. This can only be called when the account is uninitialized or during signature migration."
      },
      "isValidKeyType(bytes)": {
        "notice": "Validates if the format of public key is valid for this verification facet"
      },
      "isValidSignature(bytes32,bytes)": {
        "notice": "Validates if the signature is valid. Function to be compatible with EIP-1271"
      },
      "owner()": {
        "notice": "Returns the owner of the account"
      },
      "uninitializeSigner()": {
        "notice": "Uninitialize signer in K1 Facet Storage. This can only be called when the account is undergoing signature migration         and has already been initialized."
      },
      "validateOwnerSignature((address,uint256,bytes,bytes,uint256,uint256,uint256,uint256,uint256,bytes,bytes),bytes32)": {
        "notice": "Validates if the user operation is signed by the owner."
      },
      "validateOwnerSignatureSelector()": {
        "notice": "Returns the selector of function to validate the signature of UserOperation"
      },
      "validateSignature((address,uint256,bytes,bytes,uint256,uint256,uint256,uint256,uint256,bytes,bytes),bytes32,address)": {
        "notice": "Validates if the signature of UserOperation is signed by the given signer"
      }
    },
    "version": 1
  },
  "storageLayout": {
    "storage": [],
    "types": null
  }
}