{
  "address": "0xeE1AF8E967eC04C84711842796A5E714D2FD33e6",
  "abi": [
    {
      "inputs": [],
      "stateMutability": "nonpayable",
      "type": "constructor"
    },
    {
      "inputs": [],
      "name": "LibAppStorage__AccountMustBeUninitialized",
      "type": "error"
    },
    {
      "inputs": [],
      "name": "LibAppStorage__SignerAlreadyUninitialized",
      "type": "error"
    },
    {
      "inputs": [],
      "name": "LibAppStorage__SignerMustBeUninitialized",
      "type": "error"
    },
    {
      "inputs": [],
      "name": "Secp256r1VerificationFacet__InvalidSignerLength",
      "type": "error"
    },
    {
      "inputs": [],
      "name": "VerificationFacet__InitializationFailure",
      "type": "error"
    },
    {
      "inputs": [],
      "name": "VerificationFacet__InvalidFacetMapping",
      "type": "error"
    },
    {
      "inputs": [],
      "name": "VerificationFacet__ValidateOwnerSignatureSelectorAlreadySet",
      "type": "error"
    },
    {
      "inputs": [],
      "name": "VerificationFacet__ValidateOwnerSignatureSelectorNotSet",
      "type": "error"
    },
    {
      "anonymous": false,
      "inputs": [
        {
          "indexed": false,
          "internalType": "bytes",
          "name": "",
          "type": "bytes"
        }
      ],
      "name": "SignerInitialized",
      "type": "event"
    },
    {
      "anonymous": false,
      "inputs": [],
      "name": "SignerUninitialized",
      "type": "event"
    },
    {
      "inputs": [
        {
          "internalType": "bytes",
          "name": "_publicKey",
          "type": "bytes"
        }
      ],
      "name": "initializeSigner",
      "outputs": [
        {
          "internalType": "uint256",
          "name": "initSuccess",
          "type": "uint256"
        }
      ],
      "stateMutability": "nonpayable",
      "type": "function"
    },
    {
      "inputs": [
        {
          "internalType": "bytes",
          "name": "_publicKey",
          "type": "bytes"
        }
      ],
      "name": "isValidKeyType",
      "outputs": [
        {
          "internalType": "bool",
          "name": "isValid",
          "type": "bool"
        }
      ],
      "stateMutability": "pure",
      "type": "function"
    },
    {
      "inputs": [
        {
          "internalType": "bytes32",
          "name": "_hash",
          "type": "bytes32"
        },
        {
          "internalType": "bytes",
          "name": "_signature",
          "type": "bytes"
        }
      ],
      "name": "isValidSignature",
      "outputs": [
        {
          "internalType": "bytes4",
          "name": "magicValue",
          "type": "bytes4"
        }
      ],
      "stateMutability": "view",
      "type": "function"
    },
    {
      "inputs": [],
      "name": "owner",
      "outputs": [
        {
          "internalType": "bytes",
          "name": "signer",
          "type": "bytes"
        }
      ],
      "stateMutability": "view",
      "type": "function"
    },
    {
      "inputs": [],
      "name": "self",
      "outputs": [
        {
          "internalType": "address",
          "name": "",
          "type": "address"
        }
      ],
      "stateMutability": "view",
      "type": "function"
    },
    {
      "inputs": [],
      "name": "uninitializeSigner",
      "outputs": [
        {
          "internalType": "uint256",
          "name": "uninitSuccess",
          "type": "uint256"
        }
      ],
      "stateMutability": "nonpayable",
      "type": "function"
    },
    {
      "inputs": [
        {
          "components": [
            {
              "internalType": "address",
              "name": "sender",
              "type": "address"
            },
            {
              "internalType": "uint256",
              "name": "nonce",
              "type": "uint256"
            },
            {
              "internalType": "bytes",
              "name": "initCode",
              "type": "bytes"
            },
            {
              "internalType": "bytes",
              "name": "callData",
              "type": "bytes"
            },
            {
              "internalType": "uint256",
              "name": "callGasLimit",
              "type": "uint256"
            },
            {
              "internalType": "uint256",
              "name": "verificationGasLimit",
              "type": "uint256"
            },
            {
              "internalType": "uint256",
              "name": "preVerificationGas",
              "type": "uint256"
            },
            {
              "internalType": "uint256",
              "name": "maxFeePerGas",
              "type": "uint256"
            },
            {
              "internalType": "uint256",
              "name": "maxPriorityFeePerGas",
              "type": "uint256"
            },
            {
              "internalType": "bytes",
              "name": "paymasterAndData",
              "type": "bytes"
            },
            {
              "internalType": "bytes",
              "name": "signature",
              "type": "bytes"
            }
          ],
          "internalType": "struct UserOperation",
          "name": "userOp",
          "type": "tuple"
        },
        {
          "internalType": "bytes32",
          "name": "userOpHash",
          "type": "bytes32"
        }
      ],
      "name": "validateOwnerSignature",
      "outputs": [
        {
          "internalType": "uint256",
          "name": "validationData",
          "type": "uint256"
        }
      ],
      "stateMutability": "view",
      "type": "function"
    },
    {
      "inputs": [],
      "name": "validateOwnerSignatureSelector",
      "outputs": [
        {
          "internalType": "bytes4",
          "name": "ownerSignatureValidatorSelector",
          "type": "bytes4"
        }
      ],
      "stateMutability": "pure",
      "type": "function"
    },
    {
      "inputs": [
        {
          "components": [
            {
              "internalType": "address",
              "name": "sender",
              "type": "address"
            },
            {
              "internalType": "uint256",
              "name": "nonce",
              "type": "uint256"
            },
            {
              "internalType": "bytes",
              "name": "initCode",
              "type": "bytes"
            },
            {
              "internalType": "bytes",
              "name": "callData",
              "type": "bytes"
            },
            {
              "internalType": "uint256",
              "name": "callGasLimit",
              "type": "uint256"
            },
            {
              "internalType": "uint256",
              "name": "verificationGasLimit",
              "type": "uint256"
            },
            {
              "internalType": "uint256",
              "name": "preVerificationGas",
              "type": "uint256"
            },
            {
              "internalType": "uint256",
              "name": "maxFeePerGas",
              "type": "uint256"
            },
            {
              "internalType": "uint256",
              "name": "maxPriorityFeePerGas",
              "type": "uint256"
            },
            {
              "internalType": "bytes",
              "name": "paymasterAndData",
              "type": "bytes"
            },
            {
              "internalType": "bytes",
              "name": "signature",
              "type": "bytes"
            }
          ],
          "internalType": "struct UserOperation",
          "name": "userOp",
          "type": "tuple"
        },
        {
          "internalType": "bytes32",
          "name": "userOpHash",
          "type": "bytes32"
        },
        {
          "internalType": "uint256[2]",
          "name": "q",
          "type": "uint256[2]"
        }
      ],
      "name": "validateSignature",
      "outputs": [
        {
          "internalType": "uint256",
          "name": "isValid",
          "type": "uint256"
        }
      ],
      "stateMutability": "view",
      "type": "function"
    }
  ],
  "transactionHash": "0x457b578dff060b16704222abb0e8d14bf09afe63c30ebc639b61785c37d6876d",
  "args": [],
  "numDeployments": 3,
  "solcInputHash": "4356503edd8ae34e73cb6dd1c8e2fc8a",
  "bytecode": "0x60a060405234801561001057600080fd5b50610019610022565b3060805261008b565b600080805260208190527fad3228b676f7d3cd4284a5443f17f1962b36e491b30a40b2405849e597ba5fb55460ff161561006f57604051637c2cde8b60e01b815260040160405180910390fd5b600080805260209190915260409020805460ff19166001179055565b608051611f746100ad6000396000818161016001526106e10152611f746000f3fe608060405234801561001057600080fd5b50600436106100a35760003560e01c80637104ddb2116100765780638dd501211161005b5780638dd50121146101bc578063cd00e50a146101cf578063cd9b47e4146101d757600080fd5b80637104ddb21461015b5780638da5cb5b146101a757600080fd5b806311cfe388146100a85780631626ba7e146100ce5780633253960f14610112578063392dd6d914610138575b600080fd5b6100bb6100b6366004611823565b6101ea565b6040519081526020015b60405180910390f35b6100e16100dc366004611956565b610252565b6040517fffffffff0000000000000000000000000000000000000000000000000000000090911681526020016100c5565b7f8dd50121000000000000000000000000000000000000000000000000000000006100e1565b61014b61014636600461199d565b6102fd565b60405190151581526020016100c5565b6101827f000000000000000000000000000000000000000000000000000000000000000081565b60405173ffffffffffffffffffffffffffffffffffffffff90911681526020016100c5565b6101af61036f565b6040516100c591906119f6565b6100bb6101ca366004611a47565b6103ba565b6100bb61041f565b6100bb6101e5366004611a8c565b61053a565b600061023982846101ff610140880188611afe565b8080601f01602080910402602001604051908101604052809392919081815260200183838082843760009201919091525061083692505050565b610244576001610247565b60005b60ff16949350505050565b60006102aa7f90969be7ff5e035b304bbc87b60c32b79faaf496bc52cb545bc487ff4b1653646040805180820191829052919060029082845b81548152602001906001019080831161028b5750505050508484610836565b6102d4577fffffffff000000000000000000000000000000000000000000000000000000006102f6565b7f1626ba7e000000000000000000000000000000000000000000000000000000005b9392505050565b60008151604114801561036957508160008151811061031e5761031e611b6a565b6020910101517fff00000000000000000000000000000000000000000000000000000000000000167f0400000000000000000000000000000000000000000000000000000000000000145b92915050565b6040516060907f90969be7ff5e035b304bbc87b60c32b79faaf496bc52cb545bc487ff4b165364906103a5908290602001611b99565b60405160208183030381529060405291505090565b60408051808201918290526000917f90969be7ff5e035b304bbc87b60c32b79faaf496bc52cb545bc487ff4b165364916104179186918691859060029082845b8154815260200190600101908083116103fa5750505050506101ea565b949350505050565b60006104296109b4565b6104316109f4565b60408051808201909152600080825260208201527f90969be7ff5e035b304bbc87b60c32b79faaf496bc52cb545bc487ff4b165364906104749082906002611675565b506000610488600154610100900460e01b90565b7fffffffff0000000000000000000000000000000000000000000000000000000016036104e1576040517f127c609a00000000000000000000000000000000000000000000000000000000815260040160405180910390fd5b600180547fffffffffffffffffffffffffffffffffffffffffffffffffffffff00000000ff169055604051600192507fcccd30db6bc000b8bb8d11162228d2d69e3c361983ca3ae8c1365ce64b0fae9e90600090a15090565b6000610544610a93565b61058383838080601f0160208091040260200160405190810160405280939291908181526020018383808284376000920191909152506102fd92505050565b6105b9576040517f6c334d2200000000000000000000000000000000000000000000000000000000815260040160405180910390fd5b60006105c88360018187611bcd565b8080601f01602080910402602001604051908101604052809392919081815260200183838082843760009201919091525092935061060992506116b8915050565b602082015181526040820151602082015260006106437f90969be7ff5e035b304bbc87b60c32b79faaf496bc52cb545bc487ff4b16536490565b9050610651818360026116d6565b507f8dd50121000000000000000000000000000000000000000000000000000000006000610686600154610100900460e01b90565b7fffffffff0000000000000000000000000000000000000000000000000000000016146106df576040517f5f95a63c00000000000000000000000000000000000000000000000000000000815260040160405180910390fd5b7f000000000000000000000000000000000000000000000000000000000000000073ffffffffffffffffffffffffffffffffffffffff16610770827fffffffff000000000000000000000000000000000000000000000000000000001660009081527f183cde5d4f6bb7b445b8fc2f7f15d0fd1d162275aded24183babbffee7cd491f602052604090205460601c90565b73ffffffffffffffffffffffffffffffffffffffff16146107bd576040517fbb4752b700000000000000000000000000000000000000000000000000000000815260040160405180910390fd5b600180547fffffffffffffffffffffffffffffffffffffffffffffffffffffff00000000ff1661010060e084901c02179055600194507f6d54821a69ec281ed7ba1bf2729c700768c47df1d80fad646b0a14cc1d5c39ed8787604051610824929190611bf7565b60405180910390a15050505092915050565b600080600080600080868060200190518101906108539190611c94565b9450945094509450945060008061088a8a60405160200161087691815260200190565b604051602081830303815290604052610b33565b905060008482856040516020016108a393929190611d47565b60405160208183030381529060405290506002816040516108c49190611d8a565b602060405180830381855afa1580156108e1573d6000803e3d6000fd5b5050506040513d601f19601f820116820180604052508101906109049190611da6565b9250505060006002858360405160200161091f929190611dbf565b604080517fffffffffffffffffffffffffffffffffffffffffffffffffffffffffffffffe08184030181529082905261095791611d8a565b602060405180830381855afa158015610974573d6000803e3d6000fd5b5050506040513d601f19601f820116820180604052508101906109979190611da6565b90506109a58b888884610c6f565b9b9a5050505050505050505050565b6001805460ff16146109f2576040517f38fc28cb00000000000000000000000000000000000000000000000000000000815260040160405180910390fd5b565b600080805260208190527fad3228b676f7d3cd4284a5443f17f1962b36e491b30a40b2405849e597ba5fb55460ff16600114610a5c576040517fe00d7c7700000000000000000000000000000000000000000000000000000000815260040160405180910390fd5b60008080526020919091526040902080547fffffffffffffffffffffffffffffffffffffffffffffffffffffffffffffff00169055565b600080805260208190527fad3228b676f7d3cd4284a5443f17f1962b36e491b30a40b2405849e597ba5fb55460ff1615610af9576040517f7c2cde8b00000000000000000000000000000000000000000000000000000000815260040160405180910390fd5b60008080526020919091526040902080547fffffffffffffffffffffffffffffffffffffffffffffffffffffffffffffff00166001179055565b60608151600003610b5257505060408051602081019091526000815290565b6000604051806060016040528060408152602001611eff6040913990506000600684516008610b819190611e10565b610b8b9190611e56565b9050600060068551610b9d9190611e6a565b1115610bb15780610bad81611e7e565b9150505b60008167ffffffffffffffff811115610bcc57610bcc61177c565b6040519080825280601f01601f191660200182016040528015610bf6576020820181803683370190505b509050600183016020820186875188015b80821015610c62576003820191508151603f8160121c168501518453600184019350603f81600c1c168501518453600184019350603f8160061c168501518453600184019350603f8116850151845350600183019250610c07565b5092979650505050505050565b6000610c9c60017fffffffff00000001000000000000000000000000ffffffffffffffffffffffff611eb6565b85511180610cd75750610cd060017fffffffff00000001000000000000000000000000ffffffffffffffffffffffff611eb6565b6020860151115b15610ce457506000610417565b831580610cef575082155b80610d1a57507fffffffff00000000ffffffffffffffffbce6faada7179e84f3b9cac2fc6325518410155b80610d4557507fffffffff00000000ffffffffffffffffbce6faada7179e84f3b9cac2fc6325518310155b15610d5257506000610417565b7fffffffff00000001000000000000000000000000ffffffffffffffffffffffff7f5ac635d8aa3a93e7b3ebbd55769886bc651d06b0cc53b0f63bce3c3e27d2604b7fffffffff00000001000000000000000000000000ffffffffffffffffffffffff8088600060200201517fffffffff00000001000000000000000000000000fffffffffffffffffffffffc0988517fffffffff00000001000000000000000000000000ffffffffffffffffffffffff90819080098a5109080860208601517fffffffff00000001000000000000000000000000ffffffffffffffffffffffff90800914610e4357506000610417565b6000610e4e86610e66565b9050610e5c81868686611062565b9695505050505050565b610e6e611704565b60405180606001604052806000815260200160008152602001600081525081600060108110610e9f57610e9f611b6a565b60200201526040805160608101909152808360006020020151815260200183600160028110610ed057610ed0611b6a565b60200201518152602001600181525081600160108110610ef257610ef2611b6a565b6020020152610f088160015b602002015161116f565b6040820152610f278160015b60200201518260025b60200201516111d1565b6060828101919091526040805191820181527f6b17d1f2e12c4247f8bce6e563a440f277037d812deb33a0f4a13945d898c29682527f4fe342e2fe1a7f9b8ee7eb4a7c0f9e162bce33576b315ececbb6406837bf51f560208301526001908201526080820152610fa18160045b6020020151826001610f1d565b60a0820152610fb1816004610f14565b60c0820152610fca8160045b6020020151826003610f1d565b60e0820152610fda816004610efe565b610100820152610feb816008610f94565b610120820152610ffc816008610f14565b61014082015261100d816008610fbd565b610160820152608081015161102490826008610f1d565b61018082015261103581600c610f94565b6101a082015261104681600c610f14565b6101c082015261105781600c610fbd565b6101e0820152919050565b600083158061106f575082155b8061109a57507fffffffff00000000ffffffffffffffffbce6faada7179e84f3b9cac2fc6325518410155b806110c557507fffffffff00000000ffffffffffffffffbce6faada7179e84f3b9cac2fc6325518310155b156110d257506000610417565b60006110fe847fffffffff00000000ffffffffffffffffbce6faada7179e84f3b9cac2fc632551611243565b905060007fffffffff00000000ffffffffffffffffbce6faada7179e84f3b9cac2fc632551828509905060007fffffffff00000000ffffffffffffffffbce6faada7179e84f3b9cac2fc632551838809905060008061115e8a858561125a565b509098149998505050505050505050565b61119360405180606001604052806000815260200160008152602001600081525090565b60008060006111af856000015186602001518760400151611346565b6040805160608101825293845260208401929092529082015295945050505050565b6111f560405180606001604052806000815260200160008152602001600081525090565b6000806000611220866000015187602001518860400151886000015189602001518a60400151611424565b604080516060810182529384526020840192909252908201529695505050505050565b60006102f683611254600285611eb6565b8461155c565b6000808080806080815b81156113285782156112955761127b858585611346565b9196509450925061128d858585611346565b919650945092505b50600c60fc89901c1660fe88901c17801561130b576113038585858d85601081106112c2576112c2611b6a565b6020020151518e86601081106112da576112da611b6a565b6020020151602001518f87601081106112f5576112f5611b6a565b602002015160400151611424565b919650945092505b600298891b989790971b968161132081611ec9565b925050611264565b6113338585856115b0565b909750955050505050505b935093915050565b6000806000846000036113615750600091508190508061141b565b7fffffffff00000001000000000000000000000000ffffffffffffffffffffffff8085860981828283097fffffffff00000001000000000000000000000000fffffffffffffffffffffffc099050818788098283828b0960040983848384096008099150838385868d8e09600309089250838160020984848509818110156113e65785015b039650868110156113f45783015b8387820384099550508085101561140a57938201935b909303925080808688096002099150505b93509350939050565b60008060008660000361143e575084915083905082611550565b83600003611453575087915086905085611550565b7fffffffff00000001000000000000000000000000ffffffffffffffffffffffff808889098186870982818d0983838b0984858a85098e0985868e87098c09868b8f08848410156114a357928701925b8484039350878460020988818209905088818609848410156114c457928901925b898585036002099350898485099c50898288099650898a8860020982089150818d10156114f0579b89019b5b818d039c5089818b87600209099450508b86101561150d57948801945b888c870384099a50838b101561152257998801995b838b039a508887890897508882830990508781101561153e5788015b88858983030999505050505050505050505b96509650969350505050565b60008184111561156c5781840693505b60405160208152602080820152602060408201528460608201528360808201528260a082015260208160c08360056136b0fa8080156100a357505051949350505050565b600080826000036115c65750600090508061133e565b60006115f2847fffffffff00000001000000000000000000000000ffffffffffffffffffffffff611243565b905060007fffffffff00000001000000000000000000000000ffffffffffffffffffffffff82830990507fffffffff00000001000000000000000000000000ffffffffffffffffffffffff81880993507fffffffff00000001000000000000000000000000ffffffffffffffffffffffff80838309870992505050935093915050565b82600281019282156116a8579160200282015b828111156116a8578251829060ff16905591602001919060010190611688565b506116b492915061174e565b5090565b60405180604001604052806002906020820280368337509192915050565b82600281019282156116a8579160200282015b828111156116a85782518255916020019190600101906116e9565b6040518061020001604052806010905b61173860405180606001604052806000815260200160008152602001600081525090565b8152602001906001900390816117145790505090565b5b808211156116b4576000815560010161174f565b6000610160828403121561177657600080fd5b50919050565b7f4e487b7100000000000000000000000000000000000000000000000000000000600052604160045260246000fd5b6040805190810167ffffffffffffffff811182821017156117ce576117ce61177c565b60405290565b604051601f82017fffffffffffffffffffffffffffffffffffffffffffffffffffffffffffffffe016810167ffffffffffffffff8111828210171561181b5761181b61177c565b604052919050565b60008060006080848603121561183857600080fd5b833567ffffffffffffffff81111561184f57600080fd5b61185b86828701611763565b935050602080850135925085605f86011261187557600080fd5b61187d6117ab565b80608087018881111561188f57600080fd5b604088015b818110156118ab5780358452928401928401611894565b50508093505050509250925092565b600067ffffffffffffffff8211156118d4576118d461177c565b50601f017fffffffffffffffffffffffffffffffffffffffffffffffffffffffffffffffe01660200190565b600082601f83011261191157600080fd5b813561192461191f826118ba565b6117d4565b81815284602083860101111561193957600080fd5b816020850160208301376000918101602001919091529392505050565b6000806040838503121561196957600080fd5b82359150602083013567ffffffffffffffff81111561198757600080fd5b61199385828601611900565b9150509250929050565b6000602082840312156119af57600080fd5b813567ffffffffffffffff8111156119c657600080fd5b61041784828501611900565b60005b838110156119ed5781810151838201526020016119d5565b50506000910152565b6020815260008251806020840152611a158160408501602087016119d2565b601f017fffffffffffffffffffffffffffffffffffffffffffffffffffffffffffffffe0169190910160400192915050565b60008060408385031215611a5a57600080fd5b823567ffffffffffffffff811115611a7157600080fd5b611a7d85828601611763565b95602094909401359450505050565b60008060208385031215611a9f57600080fd5b823567ffffffffffffffff80821115611ab757600080fd5b818501915085601f830112611acb57600080fd5b813581811115611ada57600080fd5b866020828501011115611aec57600080fd5b60209290920196919550909350505050565b60008083357fffffffffffffffffffffffffffffffffffffffffffffffffffffffffffffffe1843603018112611b3357600080fd5b83018035915067ffffffffffffffff821115611b4e57600080fd5b602001915036819003821315611b6357600080fd5b9250929050565b7f4e487b7100000000000000000000000000000000000000000000000000000000600052603260045260246000fd5b60008183825b6002811015611bbe578154835260209092019160019182019101611b9f565b50505060408201905092915050565b60008085851115611bdd57600080fd5b83861115611bea57600080fd5b5050820193919092039150565b60208152816020820152818360408301376000818301604090810191909152601f9092017fffffffffffffffffffffffffffffffffffffffffffffffffffffffffffffffe0160101919050565b6000611c5261191f846118ba565b9050828152838383011115611c6657600080fd5b6102f68360208301846119d2565b600082601f830112611c8557600080fd5b6102f683835160208501611c44565b600080600080600060a08688031215611cac57600080fd5b8551945060208601519350604086015167ffffffffffffffff80821115611cd257600080fd5b818801915088601f830112611ce657600080fd5b611cf589835160208501611c44565b94506060880151915080821115611d0b57600080fd5b611d1789838a01611c74565b93506080880151915080821115611d2d57600080fd5b50611d3a88828901611c74565b9150509295509295909350565b60008451611d598184602089016119d2565b845190830190611d6d8183602089016119d2565b8451910190611d808183602088016119d2565b0195945050505050565b60008251611d9c8184602087016119d2565b9190910192915050565b600060208284031215611db857600080fd5b5051919050565b60008351611dd18184602088016119d2565b9190910191825250602001919050565b7f4e487b7100000000000000000000000000000000000000000000000000000000600052601160045260246000fd5b808202811582820484141761036957610369611de1565b7f4e487b7100000000000000000000000000000000000000000000000000000000600052601260045260246000fd5b600082611e6557611e65611e27565b500490565b600082611e7957611e79611e27565b500690565b60007fffffffffffffffffffffffffffffffffffffffffffffffffffffffffffffffff8203611eaf57611eaf611de1565b5060010190565b8181038181111561036957610369611de1565b600081611ed857611ed8611de1565b507fffffffffffffffffffffffffffffffffffffffffffffffffffffffffffffffff019056fe4142434445464748494a4b4c4d4e4f505152535455565758595a6162636465666768696a6b6c6d6e6f707172737475767778797a303132333435363738392d5fa2646970667358221220d4142da7b16effb6b95f41adeff2bc8ce0d59d3b70ca8d55e6e83224bbfbec0a64736f6c63430008150033",
  "devdoc": {
    "author": "Ruslan Serebriakov (@rsrbk)David Yongjun Kim (@Powerstream3604)",
    "details": "Primarily used to verify user ops signed with passkeys",
    "kind": "dev",
    "methods": {
      "initializeSigner(bytes)": {
        "details": "This method checks if the signer has already been initialized. If already initialized, it reverts.      It checks if the public key is in the light format and initializes signer storage in k1 storage.",
        "params": {
          "_publicKey": "Bytes of owner public key"
        },
        "returns": {
          "initSuccess": "Uint value representing the success of init operation"
        }
      },
      "isValidKeyType(bytes)": {
        "details": "For this Secp256k1Verification Facet, the public key should in an uncompressed public key format",
        "params": {
          "_publicKey": "Bytes of public key for format check"
        },
        "returns": {
          "isValid": "Boolean variable representing if the format of public key is valid"
        }
      },
      "isValidSignature(bytes32,bytes)": {
        "details": "This method verifies the signature if the owner indeed signed the hash. Returns magic value if true",
        "params": {
          "_hash": "Hash value the owner signed",
          "_signature": "Signature that signed the above hash"
        },
        "returns": {
          "magicValue": "Bytes4 value representing the success/failure of validation"
        }
      },
      "owner()": {
        "returns": {
          "signer": "Bytes of owner address"
        }
      },
      "uninitializeSigner()": {
        "details": "This method checks if the signature migration is undergoing, signer is initialized and sets the signer to zero value.",
        "returns": {
          "uninitSuccess": "Uint value representing the success of uninit operation"
        }
      },
      "validateOwnerSignature((address,uint256,bytes,bytes,uint256,uint256,uint256,uint256,uint256,bytes,bytes),bytes32)": {
        "details": "This method validates if the user operation is signed by the owner. It internally calls validateSignature with      signer public key.",
        "params": {
          "userOp": "UserOperation including all information for execution",
          "userOpHash": "Hash of UserOperation given from EntryPoint. This hash is used for signature validation"
        },
        "returns": {
          "validationData": "Uint value representing whether the validation is successful. 0 for success, 1 for failure"
        }
      },
      "validateOwnerSignatureSelector()": {
        "returns": {
          "ownerSignatureValidatorSelector": "Bytes4 selector of function signature to validate account owner's UserOperation signature"
        }
      },
      "validateSignature((address,uint256,bytes,bytes,uint256,uint256,uint256,uint256,uint256,bytes,bytes),bytes32,uint256[2])": {
        "details": "This method uses OpenZeppelin library to validate if the signature of UserOperation is signed by the signer address",
        "params": {
          "q": "Public Key of signer who signed the contract, to be validated",
          "userOp": "UserOperation including all information for execution",
          "userOpHash": "Hash of UserOperation given from EntryPoint. This hash is used for signature validation"
        },
        "returns": {
          "isValid": "Uint value representing whether the validation is successful. 0 for success, 1 for failure"
        }
      }
    },
    "title": "Secp256r1 verification facet",
    "version": 1
  },
  "userdoc": {
    "kind": "user",
    "methods": {
      "constructor": {
        "notice": "This constructor ensures that this contract can only be used as singleton for Proxy contracts"
      },
      "initializeSigner(bytes)": {
        "notice": "Initializes the signer in R1 Facet Storage. This can only be called when the account is uninitialized or during signature migration."
      },
      "isValidKeyType(bytes)": {
        "notice": "Validates if the format of public key is valid for this verification facet"
      },
      "isValidSignature(bytes32,bytes)": {
        "notice": "Validates if the signature is valid. Function to be compatible with EIP-1271"
      },
      "owner()": {
        "notice": "Returns the owner of the account"
      },
      "uninitializeSigner()": {
        "notice": "Uninitialize signer in R1 Facet Storage. This can only be called when the account is undergoing signature migration         and has already been initialized."
      },
      "validateOwnerSignature((address,uint256,bytes,bytes,uint256,uint256,uint256,uint256,uint256,bytes,bytes),bytes32)": {
        "notice": "Validates if the user operation is signed by the owner."
      },
      "validateOwnerSignatureSelector()": {
        "notice": "Returns the selector of function to validate the signature of UserOperation"
      },
      "validateSignature((address,uint256,bytes,bytes,uint256,uint256,uint256,uint256,uint256,bytes,bytes),bytes32,uint256[2])": {
        "notice": "Validates if the signature of UserOperation is signed by the given signer"
      }
    },
    "version": 1
  },
  "storageLayout": {
    "storage": [],
    "types": null
  }
}