{
  "address": "0x0B9504140771C3688Ff041917192277D2f52E1e0",
  "abi": [
    {
      "inputs": [
        {
          "internalType": "address",
          "name": "_securityManager",
          "type": "address"
        }
      ],
      "stateMutability": "nonpayable",
      "type": "constructor"
    },
    {
      "inputs": [],
      "name": "CallerNotGuardian",
      "type": "error"
    },
    {
      "inputs": [],
      "name": "CallerNotGuardianOrOwner",
      "type": "error"
    },
    {
      "inputs": [],
      "name": "DiamondCutFacet__CannotRevokeUnapproved",
      "type": "error"
    },
    {
      "inputs": [],
      "name": "DiamondCutFacet__DuplicateApproval",
      "type": "error"
    },
    {
      "inputs": [],
      "name": "DiamondCutFacet__InsufficientApprovers",
      "type": "error"
    },
    {
      "inputs": [],
      "name": "DiamondCutFacet__InvalidApprovalValidationPeriod",
      "type": "error"
    },
    {
      "inputs": [],
      "name": "DiamondCutFacet__InvalidApprover",
      "type": "error"
    },
    {
      "inputs": [],
      "name": "DiamondCutFacet__InvalidApproverSignature",
      "type": "error"
    },
    {
      "inputs": [],
      "name": "DiamondCutFacet__InvalidArrayLength",
      "type": "error"
    },
    {
      "inputs": [],
      "name": "DiamondCutFacet__InvalidInitAddress",
      "type": "error"
    },
    {
      "inputs": [],
      "name": "DiamondCutFacet__InvalidRouteWithGuardian",
      "type": "error"
    },
    {
      "inputs": [],
      "name": "DiamondCutFacet__InvalidRouteWithoutGuardian",
      "type": "error"
    },
    {
      "inputs": [],
      "name": "DiamondCutFacet__LackOfOwnerApproval",
      "type": "error"
    },
    {
      "inputs": [],
      "name": "DiamondCutFacet__OwnerAlreadyApproved",
      "type": "error"
    },
    {
      "inputs": [],
      "name": "DuplicateApprover",
      "type": "error"
    },
    {
      "inputs": [
        {
          "internalType": "address",
          "name": "_initializationContractAddress",
          "type": "address"
        },
        {
          "internalType": "bytes",
          "name": "_calldata",
          "type": "bytes"
        }
      ],
      "name": "InitializationFunctionReverted",
      "type": "error"
    },
    {
      "inputs": [],
      "name": "UnregisteredFacetAndSelectors",
      "type": "error"
    },
    {
      "inputs": [],
      "name": "ZeroApproverLength",
      "type": "error"
    },
    {
      "anonymous": false,
      "inputs": [
        {
          "components": [
            {
              "internalType": "address",
              "name": "facetAddress",
              "type": "address"
            },
            {
              "internalType": "enum IDiamondCut.FacetCutAction",
              "name": "action",
              "type": "uint8"
            },
            {
              "internalType": "bytes4[]",
              "name": "functionSelectors",
              "type": "bytes4[]"
            }
          ],
          "indexed": false,
          "internalType": "struct IDiamondCut.FacetCut[]",
          "name": "_diamondCut",
          "type": "tuple[]"
        },
        {
          "indexed": false,
          "internalType": "address",
          "name": "_init",
          "type": "address"
        },
        {
          "indexed": false,
          "internalType": "bytes",
          "name": "_calldata",
          "type": "bytes"
        }
      ],
      "name": "DiamondCut",
      "type": "event"
    },
    {
      "anonymous": false,
      "inputs": [
        {
          "components": [
            {
              "internalType": "address",
              "name": "facetAddress",
              "type": "address"
            },
            {
              "internalType": "enum IDiamondCut.FacetCutAction",
              "name": "action",
              "type": "uint8"
            },
            {
              "internalType": "bytes4[]",
              "name": "functionSelectors",
              "type": "bytes4[]"
            }
          ],
          "indexed": false,
          "internalType": "struct IDiamondCut.FacetCut[]",
          "name": "diamondCut",
          "type": "tuple[]"
        }
      ],
      "name": "DiamondCutApprovalRevoked",
      "type": "event"
    },
    {
      "anonymous": false,
      "inputs": [
        {
          "components": [
            {
              "internalType": "address",
              "name": "facetAddress",
              "type": "address"
            },
            {
              "internalType": "enum IDiamondCut.FacetCutAction",
              "name": "action",
              "type": "uint8"
            },
            {
              "internalType": "bytes4[]",
              "name": "functionSelectors",
              "type": "bytes4[]"
            }
          ],
          "indexed": false,
          "internalType": "struct IDiamondCut.FacetCut[]",
          "name": "diamondCut",
          "type": "tuple[]"
        }
      ],
      "name": "DiamondCutApproved",
      "type": "event"
    },
    {
      "anonymous": false,
      "inputs": [
        {
          "indexed": false,
          "internalType": "bytes4",
          "name": "interfaceId",
          "type": "bytes4"
        },
        {
          "indexed": false,
          "internalType": "bool",
          "name": "_lag",
          "type": "bool"
        }
      ],
      "name": "SupportsInterfaceUpdated",
      "type": "event"
    },
    {
      "inputs": [
        {
          "internalType": "bytes32",
          "name": "_diamondCutHash",
          "type": "bytes32"
        },
        {
          "internalType": "address[]",
          "name": "_approvers",
          "type": "address[]"
        }
      ],
      "name": "_checkDuplicateOnChainApprover",
      "outputs": [],
      "stateMutability": "view",
      "type": "function"
    },
    {
      "inputs": [
        {
          "components": [
            {
              "internalType": "address",
              "name": "facetAddress",
              "type": "address"
            },
            {
              "internalType": "enum IDiamondCut.FacetCutAction",
              "name": "action",
              "type": "uint8"
            },
            {
              "internalType": "bytes4[]",
              "name": "functionSelectors",
              "type": "bytes4[]"
            }
          ],
          "internalType": "struct IDiamondCut.FacetCut[]",
          "name": "_diamondCut",
          "type": "tuple[]"
        }
      ],
      "name": "approveDiamondCut",
      "outputs": [],
      "stateMutability": "nonpayable",
      "type": "function"
    },
    {
      "inputs": [
        {
          "components": [
            {
              "internalType": "address",
              "name": "facetAddress",
              "type": "address"
            },
            {
              "internalType": "enum IDiamondCut.FacetCutAction",
              "name": "action",
              "type": "uint8"
            },
            {
              "internalType": "bytes4[]",
              "name": "functionSelectors",
              "type": "bytes4[]"
            }
          ],
          "internalType": "struct IDiamondCut.FacetCut[]",
          "name": "_diamondCut",
          "type": "tuple[]"
        },
        {
          "internalType": "address",
          "name": "_init",
          "type": "address"
        },
        {
          "internalType": "bytes",
          "name": "",
          "type": "bytes"
        }
      ],
      "name": "diamondCut",
      "outputs": [],
      "stateMutability": "nonpayable",
      "type": "function"
    },
    {
      "inputs": [
        {
          "components": [
            {
              "internalType": "address",
              "name": "facetAddress",
              "type": "address"
            },
            {
              "internalType": "enum IDiamondCut.FacetCutAction",
              "name": "action",
              "type": "uint8"
            },
            {
              "internalType": "bytes4[]",
              "name": "functionSelectors",
              "type": "bytes4[]"
            }
          ],
          "internalType": "struct IDiamondCut.FacetCut[]",
          "name": "_diamondCut",
          "type": "tuple[]"
        },
        {
          "internalType": "address[]",
          "name": "_approvers",
          "type": "address[]"
        },
        {
          "internalType": "bytes[]",
          "name": "_signatures",
          "type": "bytes[]"
        }
      ],
      "name": "diamondCutWithGuardian",
      "outputs": [],
      "stateMutability": "nonpayable",
      "type": "function"
    },
    {
      "inputs": [
        {
          "internalType": "bytes32",
          "name": "_diamondCutHash",
          "type": "bytes32"
        }
      ],
      "name": "getDiamondCutApprovalCountWithTimeValidity",
      "outputs": [
        {
          "internalType": "uint256",
          "name": "approvalCount",
          "type": "uint256"
        }
      ],
      "stateMutability": "view",
      "type": "function"
    },
    {
      "inputs": [
        {
          "components": [
            {
              "internalType": "address",
              "name": "facetAddress",
              "type": "address"
            },
            {
              "internalType": "enum IDiamondCut.FacetCutAction",
              "name": "action",
              "type": "uint8"
            },
            {
              "internalType": "bytes4[]",
              "name": "functionSelectors",
              "type": "bytes4[]"
            }
          ],
          "internalType": "struct IDiamondCut.FacetCut[]",
          "name": "_diamondCut",
          "type": "tuple[]"
        }
      ],
      "name": "getDiamondCutHash",
      "outputs": [
        {
          "internalType": "bytes32",
          "name": "cutHash",
          "type": "bytes32"
        }
      ],
      "stateMutability": "view",
      "type": "function"
    },
    {
      "inputs": [],
      "name": "getDiamondCutNonce",
      "outputs": [
        {
          "internalType": "uint128",
          "name": "cutNonce",
          "type": "uint128"
        }
      ],
      "stateMutability": "view",
      "type": "function"
    },
    {
      "inputs": [
        {
          "internalType": "bytes32",
          "name": "_diamondCutHash",
          "type": "bytes32"
        }
      ],
      "name": "getOwnerCutApprovalWithTimeValidity",
      "outputs": [
        {
          "internalType": "bool",
          "name": "isApprovedByOwner",
          "type": "bool"
        }
      ],
      "stateMutability": "view",
      "type": "function"
    },
    {
      "inputs": [
        {
          "internalType": "bytes32",
          "name": "_diamondCutHash",
          "type": "bytes32"
        },
        {
          "internalType": "address",
          "name": "_approver",
          "type": "address"
        }
      ],
      "name": "isCutApproved",
      "outputs": [
        {
          "internalType": "bool",
          "name": "isApproved",
          "type": "bool"
        }
      ],
      "stateMutability": "view",
      "type": "function"
    },
    {
      "inputs": [
        {
          "components": [
            {
              "internalType": "address",
              "name": "facetAddress",
              "type": "address"
            },
            {
              "internalType": "enum IDiamondCut.FacetCutAction",
              "name": "action",
              "type": "uint8"
            },
            {
              "internalType": "bytes4[]",
              "name": "functionSelectors",
              "type": "bytes4[]"
            }
          ],
          "internalType": "struct IDiamondCut.FacetCut[]",
          "name": "_diamondCut",
          "type": "tuple[]"
        }
      ],
      "name": "revokeDiamondCutApproval",
      "outputs": [],
      "stateMutability": "nonpayable",
      "type": "function"
    },
    {
      "inputs": [],
      "name": "securityManager",
      "outputs": [
        {
          "internalType": "contract ISecurityManager",
          "name": "",
          "type": "address"
        }
      ],
      "stateMutability": "view",
      "type": "function"
    },
    {
      "inputs": [
        {
          "internalType": "bytes4",
          "name": "_interfaceId",
          "type": "bytes4"
        },
        {
          "internalType": "bool",
          "name": "_flag",
          "type": "bool"
        }
      ],
      "name": "updateSupportsInterface",
      "outputs": [],
      "stateMutability": "nonpayable",
      "type": "function"
    }
  ],
  "transactionHash": "0x079e8c8c7c50724507b1e55159b29b915aabe3727561ff1172da76e018bedae6",
  "args": [
    "0xcBe266adbfd7CB32988128e7f37b7c8b3C5521A8"
  ],
  "numDeployments": 1,
  "solcInputHash": "ad34345aa73d96f52b3e14df983b6b29",
  "bytecode": "0x60a06040523480156200001157600080fd5b506040516200379b3803806200379b833981016040819052620000349162000046565b6001600160a01b031660805262000078565b6000602082840312156200005957600080fd5b81516001600160a01b03811681146200007157600080fd5b9392505050565b6080516137006200009b600039600081816101f10152611b2501526137006000f3fe608060405234801561001057600080fd5b50600436106100d45760003560e01c806379c0d58d11610081578063afb877bb1161005b578063afb877bb146101d9578063de675a6d146101ec578063e33ecf0a1461023857600080fd5b806379c0d58d14610192578063836d6bfb146101b35780638824a0bb146101c657600080fd5b806326fc3ef4116100b257806326fc3ef4146101145780632f4d98ea1461015c5780633c0985681461017f57600080fd5b806313c34f4b146100d95780631c776dd5146100ee5780631f931c1c14610101575b600080fd5b6100ec6100e7366004612a97565b61024b565b005b6100ec6100fc366004612ad9565b6104df565b6100ec61010f366004612b9c565b610a76565b7f19a78b668040d166f9eab1e050eacb85cec34faf6ccf7ddbc201b33f8bb1f9bf546040516fffffffffffffffffffffffffffffffff90911681526020015b60405180910390f35b61016f61016a366004612c4a565b610c7b565b6040519015158152602001610153565b6100ec61018d366004612ca4565b610c8d565b6101a56101a0366004612c4a565b610df2565b604051908152602001610153565b61016f6101c1366004612cdb565b610e4c565b6100ec6101d4366004612dd2565b610eed565b6100ec6101e7366004612a97565b610fe1565b6102137f000000000000000000000000000000000000000000000000000000000000000081565b60405173ffffffffffffffffffffffffffffffffffffffff9091168152602001610153565b6101a5610246366004612a97565b61130e565b3360009081527f9d17c72553b2484e633bd2ba080be8cdbe1716b54e87f338837ad775aee316b8602052604090205460ff1615801561028a5750303314155b156102c1576040517f6238ee3400000000000000000000000000000000000000000000000000000000815260040160405180910390fd5b6000805260036020527f3617319a054d772f909f7c479a2cebe5066e836a939412e32403c99029b92eff5467ffffffffffffffff908116429091161015610369576040517f08c379a000000000000000000000000000000000000000000000000000000000815260206004820152600e60248201527f4163636f756e74204c6f636b656400000000000000000000000000000000000060448201526064015b60405180910390fd5b60008080527f19a78b668040d166f9eab1e050eacb85cec34faf6ccf7ddbc201b33f8bb1f9be6020527f653b0501de88979dae3f7a0c0d7d06b6188ed90f72b20793f210fd368861e5d3906103be848461130e565b60008181526020848152604080832033845290915290205490915060ff16610412576040517fedc5708300000000000000000000000000000000000000000000000000000000815260040160405180910390fd5b60408051808201825260008082526020808301828152858352868252848320338452909152908390209151825491517fffffffffffffffffffffffffffffffffffffffffffffff0000000000000000009092169015157fffffffffffffffffffffffffffffffffffffffffffffff0000000000000000ff161761010067ffffffffffffffff90921691909102179055517f3c3d8c1f0b0faff6fe0ace6b485d0595a0106dce9e303f956fd941ebdbe9a98e906104d19086908690612f54565b60405180910390a150505050565b6000805260036020527f3617319a054d772f909f7c479a2cebe5066e836a939412e32403c99029b92eff5467ffffffffffffffff908116429091161015610582576040517f08c379a000000000000000000000000000000000000000000000000000000000815260206004820152600e60248201527f4163636f756e74204c6f636b65640000000000000000000000000000000000006044820152606401610360565b8281146105bb576040517fe854148500000000000000000000000000000000000000000000000000000000815260040160405180910390fd5b6105cd6105c886886130aa565b611435565b600080527fec37c9d3f62cbc43363a007dfdea31702a2aae2ada4d4d880588e00ded24d6086020527f9d17c72553b2484e633bd2ba080be8cdbe1716b54e87f338837ad775aee316b754600003610650576040517fa788861700000000000000000000000000000000000000000000000000000000815260040160405180910390fd5b600061065c878761130e565b905061069a8585808060200260200160405190810160405280939291908181526020018383602002808284376000920191909152506115b392505050565b506106d881868680806020026020016040519081016040528093929190818152602001838360200280828437600092019190915250610eed92505050565b60006106e382610c7b565b90506000816106f35760016106f6565b60005b60ff169050806107046116d0565b61070e9190613201565b61071784610df2565b6107219088613201565b1015610759576040517f709fb08000000000000000000000000000000000000000000000000000000000815260040160405180910390fd5b6000805b878110156109a0576107d989898381811061077a5761077a613214565b905060200201602081019061078f9190613243565b73ffffffffffffffffffffffffffffffffffffffff1660009081527f9d17c72553b2484e633bd2ba080be8cdbe1716b54e87f338837ad775aee316b8602052604090205460ff1690565b1580156108225750308989838181106107f4576107f4613214565b90506020020160208101906108099190613243565b73ffffffffffffffffffffffffffffffffffffffff1614155b15610859576040517f7b2cbbb400000000000000000000000000000000000000000000000000000000815260040160405180910390fd5b3089898381811061086c5761086c613214565b90506020020160208101906108819190613243565b73ffffffffffffffffffffffffffffffffffffffff16036108d95783156108d4576040517fee21708000000000000000000000000000000000000000000000000000000000815260040160405180910390fd5b600191505b6109628989838181106108ee576108ee613214565b90506020020160208101906109039190613243565b8689898581811061091657610916613214565b90506020028101906109289190613265565b8080601f01602080910402602001604051908101604052809392919081815260200183838082843760009201919091525061174f92505050565b610998576040517fac3d341600000000000000000000000000000000000000000000000000000000815260040160405180910390fd5b60010161075d565b50801580156109ad575082155b156109e4576040517f6d21730400000000000000000000000000000000000000000000000000000000815260040160405180910390fd5b7f19a78b668040d166f9eab1e050eacb85cec34faf6ccf7ddbc201b33f8bb1f9bf80546fffffffffffffffffffffffffffffffff808216600101167fffffffffffffffffffffffffffffffff00000000000000000000000000000000909116179055610a6a610a538a8c6130aa565b6000604051806020016040528060008152506117ca565b50505050505050505050565b6000805260036020527f3617319a054d772f909f7c479a2cebe5066e836a939412e32403c99029b92eff5467ffffffffffffffff908116429091161015610b19576040517f08c379a000000000000000000000000000000000000000000000000000000000815260206004820152600e60248201527f4163636f756e74204c6f636b65640000000000000000000000000000000000006044820152606401610360565b610b2161195f565b610b2e6105c885876130aa565b600080527fec37c9d3f62cbc43363a007dfdea31702a2aae2ada4d4d880588e00ded24d6086020527f9d17c72553b2484e633bd2ba080be8cdbe1716b54e87f338837ad775aee316b75415610baf576040517fa788861700000000000000000000000000000000000000000000000000000000815260040160405180910390fd5b73ffffffffffffffffffffffffffffffffffffffff831615610bfd576040517f871cb76100000000000000000000000000000000000000000000000000000000815260040160405180910390fd5b7f19a78b668040d166f9eab1e050eacb85cec34faf6ccf7ddbc201b33f8bb1f9be5b600190810180547fffffffffffffffffffffffffffffffff0000000000000000000000000000000081166fffffffffffffffffffffffffffffffff91821690930116919091179055610c74610a5385876130aa565b5050505050565b6000610c878230610e4c565b92915050565b6000805260036020527f3617319a054d772f909f7c479a2cebe5066e836a939412e32403c99029b92eff5467ffffffffffffffff908116429091161015610d30576040517f08c379a000000000000000000000000000000000000000000000000000000000815260206004820152600e60248201527f4163636f756e74204c6f636b65640000000000000000000000000000000000006044820152606401610360565b610d3861195f565b7fffffffff00000000000000000000000000000000000000000000000000000000821660008181527f183cde5d4f6bb7b445b8fc2f7f15d0fd1d162275aded24183babbffee7cd4922602090815260409182902080547fffffffffffffffffffffffffffffffffffffffffffffffffffffffffffffff001685151590811790915582519384529083015280517f4e6bd17989efa6d6a9607ccaac1bba27b29f99622bc830d99a3a9883b21a19c79281900390910190a15050565b600080610dfd6119ca565b805190915060005b81811015610e4457610e3085848381518110610e2357610e23613214565b6020026020010151610e4c565b15610e3c578360010193505b600101610e05565b505050919050565b60008281527f653b0501de88979dae3f7a0c0d7d06b6188ed90f72b20793f210fd368861e5d36020818152604080842073ffffffffffffffffffffffffffffffffffffffff8616855290915282205460ff168015610ee5575060008481526020828152604080832073ffffffffffffffffffffffffffffffffffffffff87168452909152902054610100900467ffffffffffffffff1642105b949350505050565b6000610ef76119ca565b805183519192509060005b82811015610fd957610f2086858381518110610e2357610e23613214565b15610fd15760005b82811015610fcf57848281518110610f4257610f42613214565b602002602001015173ffffffffffffffffffffffffffffffffffffffff16868281518110610f7257610f72613214565b602002602001015173ffffffffffffffffffffffffffffffffffffffff1603610fc7576040517f50f5729f00000000000000000000000000000000000000000000000000000000815260040160405180910390fd5b600101610f28565b505b600101610f02565b505050505050565b3360009081527f9d17c72553b2484e633bd2ba080be8cdbe1716b54e87f338837ad775aee316b8602052604090205460ff161580156110205750303314155b15611057576040517f6238ee3400000000000000000000000000000000000000000000000000000000815260040160405180910390fd5b6000805260036020527f3617319a054d772f909f7c479a2cebe5066e836a939412e32403c99029b92eff5467ffffffffffffffff9081164290911610156110fa576040517f08c379a000000000000000000000000000000000000000000000000000000000815260206004820152600e60248201527f4163636f756e74204c6f636b65640000000000000000000000000000000000006044820152606401610360565b600080527fec37c9d3f62cbc43363a007dfdea31702a2aae2ada4d4d880588e00ded24d6086020527f9d17c72553b2484e633bd2ba080be8cdbe1716b54e87f338837ad775aee316b75460000361117d576040517f3a76e1f300000000000000000000000000000000000000000000000000000000815260040160405180910390fd5b600080527f19a78b668040d166f9eab1e050eacb85cec34faf6ccf7ddbc201b33f8bb1f9be6020527f653b0501de88979dae3f7a0c0d7d06b6188ed90f72b20793f210fd368861e5d36111d36105c883856130aa565b60006111df848461130e565b905060006111eb611af4565b6111f59042613201565b6040805180820182526001815267ffffffffffffffff838116602080840191825260008881528982528581203382529091528490209251835491517fffffffffffffffffffffffffffffffffffffffffffffff0000000000000000009092169015157fffffffffffffffffffffffffffffffffffffffffffffff0000000000000000ff16176101009190921602179055519091507f6248ff757895beed7d43d135bccf59a26b7fbdf0fe8233487c44e82c0f266ba3906112b89087908790612f54565b60405180910390a16112c86116d0565b6112d183610df2565b101580156112e357506112e382610c7b565b15610c74577f19a78b668040d166f9eab1e050eacb85cec34faf6ccf7ddbc201b33f8bb1f9be610c1f565b60008282604051602001611323929190612f54565b6040516020818303038152906040528051906020012030466113627f19a78b668040d166f9eab1e050eacb85cec34faf6ccf7ddbc201b33f8bb1f9be90565b6001015460408051602081019590955273ffffffffffffffffffffffffffffffffffffffff9093169284019290925260608301526fffffffffffffffffffffffffffffffff16608082015260a001604080517fffffffffffffffffffffffffffffffffffffffffffffffffffffffffffffffe08184030181529082905280516020918201207f19457468657265756d205369676e6564204d6573736167653a0a33320000000091830191909152603c820152605c0160405160208183030381529060405280519060200120905092915050565b805160005b818110156115ae57600083828151811061145657611456613214565b602002602001015160200151600281111561147357611473612e8a565b14806114ad5750600183828151811061148e5761148e613214565b60200260200101516020015160028111156114ab576114ab612e8a565b145b156115a657600254835173ffffffffffffffffffffffffffffffffffffffff9091169063df871f72908590849081106114e8576114e8613214565b60200260200101516000015185848151811061150657611506613214565b6020026020010151604001516040518363ffffffff1660e01b815260040161152f92919061331c565b602060405180830381865afa15801561154c573d6000803e3d6000fd5b505050506040513d601f19601f82011682018060405250810190611570919061334b565b6115a6576040517ff41a931c00000000000000000000000000000000000000000000000000000000815260040160405180910390fd5b60010161143a565b505050565b80516000908082036115f1576040517f3aee2eec00000000000000000000000000000000000000000000000000000000815260040160405180910390fd5b60005b6115ff600183613368565b8110156116c6576000611613826001613201565b90505b828110156116bd5784818151811061163057611630613214565b602002602001015173ffffffffffffffffffffffffffffffffffffffff1685838151811061166057611660613214565b602002602001015173ffffffffffffffffffffffffffffffffffffffff16036116b5576040517f8dd19e7d00000000000000000000000000000000000000000000000000000000815260040160405180910390fd5b600101611616565b506001016115f4565b5060009392505050565b600080611723600080527fec37c9d3f62cbc43363a007dfdea31702a2aae2ada4d4d880588e00ded24d6086020527f9d17c72553b2484e633bd2ba080be8cdbe1716b54e87f338837ad775aee316b75490565b905080156117465761173660028261337b565b611741906001613201565b611749565b60005b91505090565b600080600061175e8585611bf6565b9092509050600081600481111561177757611777612e8a565b1480156117af57508573ffffffffffffffffffffffffffffffffffffffff168273ffffffffffffffffffffffffffffffffffffffff16145b806117c057506117c0868686611c3b565b9695505050505050565b7f183cde5d4f6bb7b445b8fc2f7f15d0fd1d162275aded24183babbffee7cd4921547f183cde5d4f6bb7b445b8fc2f7f15d0fd1d162275aded24183babbffee7cd491f9061ffff8116908190600090600716156118395750600381901c60009081526001840160205260409020545b60005b87518110156118b6576118a983838a848151811061185c5761185c613214565b6020026020010151600001518b858151811061187a5761187a613214565b6020026020010151602001518c868151811061189857611898613214565b602002602001015160400151611d98565b909350915060010161183c565b508282146118ef576002840180547fffffffffffffffffffffffffffffffffffffffffffffffffffffffffffff00001661ffff84161790555b600782161561191157600382901c600090815260018501602052604090208190555b7f8faa70878671ccd212d20771b795c50af8fd3ff6cf27f4bde57e5d4de0aeb67387878760405161194493929190613424565b60405180910390a16119568686612829565b50505050505050565b3330146119c8576040517f08c379a000000000000000000000000000000000000000000000000000000000815260206004820152601b60248201527f4c69624469616d6f6e643a2043616c6c6572206e6f742073656c6600000000006044820152606401610360565b565b60008080527fec37c9d3f62cbc43363a007dfdea31702a2aae2ada4d4d880588e00ded24d6086020527f9d17c72553b2484e633bd2ba080be8cdbe1716b54e87f338837ad775aee316b780546060929067ffffffffffffffff811115611a3257611a32612d07565b604051908082528060200260200182016040528015611a5b578160200160208202803683370190505b50825490915060005b81811015611aeb57836000018181548110611a8157611a81613214565b9060005260206000200160009054906101000a900473ffffffffffffffffffffffffffffffffffffffff16838281518110611abe57611abe613214565b73ffffffffffffffffffffffffffffffffffffffff90921660209283029190910190910152600101611a64565b50909392505050565b6040517f52430c8d0000000000000000000000000000000000000000000000000000000081523060048201526000907f000000000000000000000000000000000000000000000000000000000000000073ffffffffffffffffffffffffffffffffffffffff16906352430c8d90602401602060405180830381865afa158015611b81573d6000803e3d6000fd5b505050506040513d601f19601f82011682018060405250810190611ba59190613510565b6fffffffffffffffffffffffffffffffff16905060008111611bf3576040517fdac5ec8b00000000000000000000000000000000000000000000000000000000815260040160405180910390fd5b90565b6000808251604103611c2c5760208301516040840151606085015160001a611c2087828585612928565b94509450505050611c34565b506000905060025b9250929050565b60008060008573ffffffffffffffffffffffffffffffffffffffff16631626ba7e60e01b8686604051602401611c72929190613542565b604080517fffffffffffffffffffffffffffffffffffffffffffffffffffffffffffffffe08184030181529181526020820180517bffffffffffffffffffffffffffffffffffffffffffffffffffffffff167fffffffff00000000000000000000000000000000000000000000000000000000909416939093179092529051611cfb919061355b565b600060405180830381855afa9150503d8060008114611d36576040519150601f19603f3d011682016040523d82523d6000602084013e611d3b565b606091505b5091509150818015611d4f57506020815110155b80156117c0575080517f1626ba7e0000000000000000000000000000000000000000000000000000000090611d8d9083016020908101908401613577565b149695505050505050565b600080807f183cde5d4f6bb7b445b8fc2f7f15d0fd1d162275aded24183babbffee7cd491f90506000845111611e50576040517f08c379a000000000000000000000000000000000000000000000000000000000815260206004820152602b60248201527f4c69624469616d6f6e644375743a204e6f2073656c6563746f727320696e206660448201527f6163657420746f206375740000000000000000000000000000000000000000006064820152608401610360565b6000856002811115611e6457611e64612e8a565b0361203457611e8b8660405180606001604052806024815260200161365760249139612a17565b60005b845181101561202e576000858281518110611eab57611eab613214565b6020908102919091018101517fffffffff000000000000000000000000000000000000000000000000000000008116600090815291859052604090912054909150606081901c15611f7e576040517f08c379a000000000000000000000000000000000000000000000000000000000815260206004820152603560248201527f4c69624469616d6f6e644375743a2043616e2774206164642066756e6374696f60448201527f6e207468617420616c72656164792065786973747300000000000000000000006064820152608401610360565b7fffffffff0000000000000000000000000000000000000000000000000000000080831660008181526020879052604090207fffffffffffffffffffffffffffffffffffffffff00000000000000000000000060608d901b168e17905560e060058e901b811692831c199c909c1690821c179a8190036120125760038c901c600090815260018601602052604081209b909b555b8b61201c81613590565b9c505060019093019250611e8e915050565b5061281d565b600185600281111561204857612048612e8a565b036123385761206f866040518060600160405280602881526020016136a360289139612a17565b60005b845181101561202e57600085828151811061208f5761208f613214565b6020908102919091018101517fffffffff000000000000000000000000000000000000000000000000000000008116600090815291859052604090912054909150606081901c308103612164576040517f08c379a000000000000000000000000000000000000000000000000000000000815260206004820152602f60248201527f4c69624469616d6f6e644375743a2043616e2774207265706c61636520696d6d60448201527f757461626c652066756e6374696f6e00000000000000000000000000000000006064820152608401610360565b8973ffffffffffffffffffffffffffffffffffffffff168173ffffffffffffffffffffffffffffffffffffffff160361221f576040517f08c379a000000000000000000000000000000000000000000000000000000000815260206004820152603860248201527f4c69624469616d6f6e644375743a2043616e2774207265706c6163652066756e60448201527f6374696f6e20776974682073616d652066756e6374696f6e00000000000000006064820152608401610360565b73ffffffffffffffffffffffffffffffffffffffff81166122c2576040517f08c379a000000000000000000000000000000000000000000000000000000000815260206004820152603860248201527f4c69624469616d6f6e644375743a2043616e2774207265706c6163652066756e60448201527f6374696f6e207468617420646f65736e277420657869737400000000000000006064820152608401610360565b507fffffffff0000000000000000000000000000000000000000000000000000000090911660009081526020849052604090206bffffffffffffffffffffffff919091167fffffffffffffffffffffffffffffffffffffffff00000000000000000000000060608a901b16179055600101612072565b600285600281111561234c5761234c612e8a565b036127955773ffffffffffffffffffffffffffffffffffffffff8616156123f5576040517f08c379a000000000000000000000000000000000000000000000000000000000815260206004820152603660248201527f4c69624469616d6f6e644375743a2052656d6f7665206661636574206164647260448201527f657373206d7573742062652061646472657373283029000000000000000000006064820152608401610360565b600388901c6007891660005b86518110156127755760008a900361243d578261241d816135c8565b60008181526001870160205260409020549b5093506007925061244b9050565b81612447816135c8565b9250505b6000806000808a858151811061246357612463613214565b6020908102919091018101517fffffffff0000000000000000000000000000000000000000000000000000000081166000908152918a9052604090912054909150606081901c612535576040517f08c379a000000000000000000000000000000000000000000000000000000000815260206004820152603760248201527f4c69624469616d6f6e644375743a2043616e27742072656d6f76652066756e6360448201527f74696f6e207468617420646f65736e27742065786973740000000000000000006064820152608401610360565b30606082901c036125c8576040517f08c379a000000000000000000000000000000000000000000000000000000000815260206004820152602e60248201527f4c69624469616d6f6e644375743a2043616e27742072656d6f766520696d6d7560448201527f7461626c652066756e6374696f6e0000000000000000000000000000000000006064820152608401610360565b600587901b8f901b94507fffffffff0000000000000000000000000000000000000000000000000000000080861690831614612666577fffffffff000000000000000000000000000000000000000000000000000000008516600090815260208a90526040902080547fffffffffffffffffffffffffffffffffffffffff000000000000000000000000166bffffffffffffffffffffffff83161790555b7fffffffff0000000000000000000000000000000000000000000000000000000091909116600090815260208990526040812055600381901c611fff16925060051b60e01690508582146126fb576000828152600188016020526040902080547fffffffff0000000000000000000000000000000000000000000000000000000080841c19909116908516831c17905561274c565b80837bffffffffffffffffffffffffffffffffffffffffffffffffffffffff1916901c817fffffffff0000000000000000000000000000000000000000000000000000000060001b901c198e16179c505b8460000361276a57600086815260018801602052604081208190559c505b505050600101612401565b50806127828360086135fd565b61278c9190613201565b9950505061281d565b6040517f08c379a000000000000000000000000000000000000000000000000000000000815260206004820152602760248201527f4c69624469616d6f6e644375743a20496e636f7272656374204661636574437560448201527f74416374696f6e000000000000000000000000000000000000000000000000006064820152608401610360565b50959694955050505050565b73ffffffffffffffffffffffffffffffffffffffff8216612848575050565b61286a8260405180606001604052806028815260200161367b60289139612a17565b6000808373ffffffffffffffffffffffffffffffffffffffff1683604051612892919061355b565b600060405180830381855af49150503d80600081146128cd576040519150601f19603f3d011682016040523d82523d6000602084013e6128d2565b606091505b509150915081612922578051156128ec5780518082602001fd5b83836040517f192105d7000000000000000000000000000000000000000000000000000000008152600401610360929190613614565b50505050565b6000807f7fffffffffffffffffffffffffffffff5d576e7357a4501ddfe92f46681b20a083111561295f5750600090506003612a0e565b6040805160008082526020820180845289905260ff881692820192909252606081018690526080810185905260019060a0016020604051602081039080840390855afa1580156129b3573d6000803e3d6000fd5b50506040517fffffffffffffffffffffffffffffffffffffffffffffffffffffffffffffffe0015191505073ffffffffffffffffffffffffffffffffffffffff8116612a0757600060019250925050612a0e565b9150600090505b94509492505050565b813b8181612922576040517f08c379a00000000000000000000000000000000000000000000000000000000081526004016103609190613643565b60008083601f840112612a6457600080fd5b50813567ffffffffffffffff811115612a7c57600080fd5b6020830191508360208260051b8501011115611c3457600080fd5b60008060208385031215612aaa57600080fd5b823567ffffffffffffffff811115612ac157600080fd5b612acd85828601612a52565b90969095509350505050565b60008060008060008060608789031215612af257600080fd5b863567ffffffffffffffff80821115612b0a57600080fd5b612b168a838b01612a52565b90985096506020890135915080821115612b2f57600080fd5b612b3b8a838b01612a52565b90965094506040890135915080821115612b5457600080fd5b50612b6189828a01612a52565b979a9699509497509295939492505050565b803573ffffffffffffffffffffffffffffffffffffffff81168114612b9757600080fd5b919050565b600080600080600060608688031215612bb457600080fd5b853567ffffffffffffffff80821115612bcc57600080fd5b612bd889838a01612a52565b9097509550859150612bec60208901612b73565b94506040880135915080821115612c0257600080fd5b818801915088601f830112612c1657600080fd5b813581811115612c2557600080fd5b896020828501011115612c3757600080fd5b9699959850939650602001949392505050565b600060208284031215612c5c57600080fd5b5035919050565b80357fffffffff0000000000000000000000000000000000000000000000000000000081168114612b9757600080fd5b8015158114612ca157600080fd5b50565b60008060408385031215612cb757600080fd5b612cc083612c63565b91506020830135612cd081612c93565b809150509250929050565b60008060408385031215612cee57600080fd5b82359150612cfe60208401612b73565b90509250929050565b7f4e487b7100000000000000000000000000000000000000000000000000000000600052604160045260246000fd5b6040516060810167ffffffffffffffff81118282101715612d5957612d59612d07565b60405290565b604051601f82017fffffffffffffffffffffffffffffffffffffffffffffffffffffffffffffffe016810167ffffffffffffffff81118282101715612da657612da6612d07565b604052919050565b600067ffffffffffffffff821115612dc857612dc8612d07565b5060051b60200190565b60008060408385031215612de557600080fd5b8235915060208084013567ffffffffffffffff811115612e0457600080fd5b8401601f81018613612e1557600080fd5b8035612e28612e2382612dae565b612d5f565b81815260059190911b82018301908381019088831115612e4757600080fd5b928401925b82841015612e6c57612e5d84612b73565b82529284019290840190612e4c565b80955050505050509250929050565b803560038110612b9757600080fd5b7f4e487b7100000000000000000000000000000000000000000000000000000000600052602160045260246000fd5b60038110612ef0577f4e487b7100000000000000000000000000000000000000000000000000000000600052602160045260246000fd5b9052565b8183526000602080850194508260005b85811015612f49577fffffffff00000000000000000000000000000000000000000000000000000000612f3683612c63565b1687529582019590820190600101612f04565b509495945050505050565b60208082528181018390526000906040808401600586811b8601830188865b8981101561309b577fffffffffffffffffffffffffffffffffffffffffffffffffffffffffffffffc089840301855281357fffffffffffffffffffffffffffffffffffffffffffffffffffffffffffffffa18c3603018112612fd457600080fd5b8b01606073ffffffffffffffffffffffffffffffffffffffff612ff683612b73565b168552613004898301612e7b565b6130108a870182612eb9565b50878201357fffffffffffffffffffffffffffffffffffffffffffffffffffffffffffffffe183360301811261304557600080fd5b90910188810191903567ffffffffffffffff81111561306357600080fd5b80871b360383131561307457600080fd5b81898701526130868287018285612ef4565b978a0197955050509187019150600101612f73565b50909998505050505050505050565b60006130b8612e2384612dae565b83815260208082019190600586811b8601368111156130d657600080fd5b865b818110156131c557803567ffffffffffffffff808211156130f95760008081fd5b818a0191506060823603121561310f5760008081fd5b613117612d36565b61312083612b73565b815261312d878401612e7b565b87820152604080840135838111156131455760008081fd5b939093019236601f85011261315c57600092508283fd5b8335925061316c612e2384612dae565b83815292871b840188019288810190368511156131895760008081fd5b948901945b848610156131ae5761319f86612c63565b8252948901949089019061318e565b9183019190915250885250509483019483016130d8565b5092979650505050505050565b7f4e487b7100000000000000000000000000000000000000000000000000000000600052601160045260246000fd5b80820180821115610c8757610c876131d2565b7f4e487b7100000000000000000000000000000000000000000000000000000000600052603260045260246000fd5b60006020828403121561325557600080fd5b61325e82612b73565b9392505050565b60008083357fffffffffffffffffffffffffffffffffffffffffffffffffffffffffffffffe184360301811261329a57600080fd5b83018035915067ffffffffffffffff8211156132b557600080fd5b602001915036819003821315611c3457600080fd5b600081518084526020808501945080840160005b83811015612f495781517fffffffff0000000000000000000000000000000000000000000000000000000016875295820195908201906001016132de565b73ffffffffffffffffffffffffffffffffffffffff83168152604060208201526000610ee560408301846132ca565b60006020828403121561335d57600080fd5b815161325e81612c93565b81810381811115610c8757610c876131d2565b6000826133b1577f4e487b7100000000000000000000000000000000000000000000000000000000600052601260045260246000fd5b500490565b60005b838110156133d15781810151838201526020016133b9565b50506000910152565b600081518084526133f28160208601602086016133b6565b601f017fffffffffffffffffffffffffffffffffffffffffffffffffffffffffffffffe0169290920160200192915050565b6000606080830181845280875180835260808601915060808160051b87010192506020808a0160005b838110156134d4577fffffffffffffffffffffffffffffffffffffffffffffffffffffffffffffff80898703018552815173ffffffffffffffffffffffffffffffffffffffff8151168752838101516134a885890182612eb9565b506040908101519087018890526134c1878901826132ca565b965050938201939082019060010161344d565b505073ffffffffffffffffffffffffffffffffffffffff8916908701525050838103604085015261350581866133da565b979650505050505050565b60006020828403121561352257600080fd5b81516fffffffffffffffffffffffffffffffff8116811461325e57600080fd5b828152604060208201526000610ee560408301846133da565b6000825161356d8184602087016133b6565b9190910192915050565b60006020828403121561358957600080fd5b5051919050565b60007fffffffffffffffffffffffffffffffffffffffffffffffffffffffffffffffff82036135c1576135c16131d2565b5060010190565b6000816135d7576135d76131d2565b507fffffffffffffffffffffffffffffffffffffffffffffffffffffffffffffffff0190565b8082028115828204841417610c8757610c876131d2565b73ffffffffffffffffffffffffffffffffffffffff83168152604060208201526000610ee560408301846133da565b60208152600061325e60208301846133da56fe4c69624469616d6f6e644375743a2041646420666163657420686173206e6f20636f64654c69624469616d6f6e644375743a205f696e6974206164647265737320686173206e6f20636f64654c69624469616d6f6e644375743a205265706c61636520666163657420686173206e6f20636f6465a2646970667358221220c5a8c10b22f20cde3fe0431ff57305237423677a60888f5b349fc6751336ae1464736f6c63430008150033",
  "devdoc": {
    "author": "David Yongjun Kim (@Powerstream3604)",
    "details": "Responsible for adding/removing/replace facets in Barz",
    "kind": "dev",
    "methods": {
      "_checkDuplicateOnChainApprover(bytes32,address[])": {
        "params": {
          "_approvers": "List of approver addresses",
          "_diamondCutHash": "Hash of diamondCut information including the facet addresses and function selectors"
        }
      },
      "approveDiamondCut((address,uint8,bytes4[])[])": {
        "params": {
          "_diamondCut": "Contains the facet addresses and function selectors"
        }
      },
      "constructor": {
        "params": {
          "_securityManager": "Security Manager contract that holds the security related variables for all wallets"
        }
      },
      "diamondCut((address,uint8,bytes4[])[],address,bytes)": {
        "params": {
          "_diamondCut": "Contains the facet addresses and function selectors",
          "_init": "The address of the contract or facet to execute _calldata. It's prohibited in Barz"
        }
      },
      "diamondCutWithGuardian((address,uint8,bytes4[])[],address[],bytes[])": {
        "params": {
          "_approvers": "Guardian or owner address that approves the diamond cut",
          "_diamondCut": "Contains the facet addresses and function selectors",
          "_signatures": "Signature of Guardians or owner that approves the diamond cut"
        }
      },
      "getDiamondCutApprovalCountWithTimeValidity(bytes32)": {
        "params": {
          "_diamondCutHash": "Hash of diamondCut information including the facet addresses and function selectors"
        }
      },
      "getDiamondCutHash((address,uint8,bytes4[])[])": {
        "params": {
          "_diamondCut": "Contains the facet addresses and function selectors"
        },
        "returns": {
          "cutHash": "Diamond Cut Hash"
        }
      },
      "getDiamondCutNonce()": {
        "details": "This method fetches the nonce from diamond cut storage",
        "returns": {
          "cutNonce": "Nonce of diamond cut to protect from reply attacks"
        }
      },
      "getOwnerCutApprovalWithTimeValidity(bytes32)": {
        "params": {
          "_diamondCutHash": "Hash of diamondCut information including the facet addresses and function selectors"
        },
        "returns": {
          "isApprovedByOwner": "Bool value showing if the owner approved the cut"
        }
      },
      "isCutApproved(bytes32,address)": {
        "params": {
          "_approver": "Address of approver",
          "_diamondCutHash": "Hash of diamondCut information including the facet addresses and function selectors"
        },
        "returns": {
          "isApproved": "Bool value showing if the approver approved the cut"
        }
      },
      "revokeDiamondCutApproval((address,uint8,bytes4[])[])": {
        "params": {
          "_diamondCut": "Contains the facet addresses and function selectors"
        }
      },
      "updateSupportsInterface(bytes4,bool)": {
        "params": {
          "_flag": "Bool value to update the mapping of the given interface ID",
          "_interfaceId": "InterfaceID to update the mapping"
        }
      }
    },
    "title": "DiamondCut Facet",
    "version": 1
  },
  "userdoc": {
    "kind": "user",
    "methods": {
      "_checkDuplicateOnChainApprover(bytes32,address[])": {
        "notice": "Checks if their is duplicate approver is included in off-chain approval verification and on-chain approval         Approvers who approved on-chain should not be included in the off-chain approval"
      },
      "approveDiamondCut((address,uint8,bytes4[])[])": {
        "notice": "Approves diamond cut. This can only be called directly from guardian or owner"
      },
      "constructor": {
        "notice": "This constructor sets the Security Manager address which is an immutable variable.         Immutable variables do not impact the storage of diamond"
      },
      "diamondCut((address,uint8,bytes4[])[],address,bytes)": {
        "notice": "Add/replace/remove any number of functions and optionally execute         a function with delegatecall when guardians don't exist"
      },
      "diamondCutWithGuardian((address,uint8,bytes4[])[],address[],bytes[])": {
        "notice": "Add/replace/remove any number of functions and optionally execute         a function with delegatecall when guardians exist"
      },
      "getDiamondCutApprovalCountWithTimeValidity(bytes32)": {
        "notice": "Gets the number of approvals of diamond cut from guardians"
      },
      "getDiamondCutHash((address,uint8,bytes4[])[])": {
        "notice": "Returns the diamond cut hash. This function ensures that this hash is safe from replay attack by including         salt, address, chainId, and nonce, etc."
      },
      "getDiamondCutNonce()": {
        "notice": "Returns the diamond cut nonce of this wallet"
      },
      "getOwnerCutApprovalWithTimeValidity(bytes32)": {
        "notice": "Returns if the owner has approved the diamond cut"
      },
      "isCutApproved(bytes32,address)": {
        "notice": "Returns if the given approver has approved the diamond cut"
      },
      "revokeDiamondCutApproval((address,uint8,bytes4[])[])": {
        "notice": "Revokes the approval of diamond cut. This can only be called directly from guardian or owner"
      },
      "updateSupportsInterface(bytes4,bool)": {
        "notice": "Updates the flag for the interfaceId"
      }
    },
    "version": 1
  },
  "storageLayout": {
    "storage": [
      {
        "astId": 27866,
        "contract": "contracts/facets/base/DiamondCutFacet.sol:DiamondCutFacet",
        "label": "s",
        "offset": 0,
        "slot": "0",
        "type": "t_struct(AppStorage)27613_storage"
      }
    ],
    "types": {
      "t_bytes4": {
        "encoding": "inplace",
        "label": "bytes4",
        "numberOfBytes": "4"
      },
      "t_contract(IEntryPoint)12286": {
        "encoding": "inplace",
        "label": "contract IEntryPoint",
        "numberOfBytes": "20"
      },
      "t_contract(IFacetRegistry)26148": {
        "encoding": "inplace",
        "label": "contract IFacetRegistry",
        "numberOfBytes": "20"
      },
      "t_mapping(t_uint256,t_struct(InitializersStorage)27592_storage)": {
        "encoding": "mapping",
        "key": "t_uint256",
        "label": "mapping(uint256 => struct InitializersStorage)",
        "numberOfBytes": "32",
        "value": "t_struct(InitializersStorage)27592_storage"
      },
      "t_mapping(t_uint256,t_struct(Lock)27585_storage)": {
        "encoding": "mapping",
        "key": "t_uint256",
        "label": "mapping(uint256 => struct Lock)",
        "numberOfBytes": "32",
        "value": "t_struct(Lock)27585_storage"
      },
      "t_struct(AppStorage)27613_storage": {
        "encoding": "inplace",
        "label": "struct AppStorage",
        "members": [
          {
            "astId": 27597,
            "contract": "contracts/facets/base/DiamondCutFacet.sol:DiamondCutFacet",
            "label": "initStorage",
            "offset": 0,
            "slot": "0",
            "type": "t_mapping(t_uint256,t_struct(InitializersStorage)27592_storage)"
          },
          {
            "astId": 27599,
            "contract": "contracts/facets/base/DiamondCutFacet.sol:DiamondCutFacet",
            "label": "signerMigration",
            "offset": 0,
            "slot": "1",
            "type": "t_uint8"
          },
          {
            "astId": 27601,
            "contract": "contracts/facets/base/DiamondCutFacet.sol:DiamondCutFacet",
            "label": "validateOwnerSignatureSelector",
            "offset": 1,
            "slot": "1",
            "type": "t_bytes4"
          },
          {
            "astId": 27604,
            "contract": "contracts/facets/base/DiamondCutFacet.sol:DiamondCutFacet",
            "label": "entryPoint",
            "offset": 5,
            "slot": "1",
            "type": "t_contract(IEntryPoint)12286"
          },
          {
            "astId": 27607,
            "contract": "contracts/facets/base/DiamondCutFacet.sol:DiamondCutFacet",
            "label": "facetRegistry",
            "offset": 0,
            "slot": "2",
            "type": "t_contract(IFacetRegistry)26148"
          },
          {
            "astId": 27612,
            "contract": "contracts/facets/base/DiamondCutFacet.sol:DiamondCutFacet",
            "label": "locks",
            "offset": 0,
            "slot": "3",
            "type": "t_mapping(t_uint256,t_struct(Lock)27585_storage)"
          }
        ],
        "numberOfBytes": "128"
      },
      "t_struct(InitializersStorage)27592_storage": {
        "encoding": "inplace",
        "label": "struct InitializersStorage",
        "members": [
          {
            "astId": 27587,
            "contract": "contracts/facets/base/DiamondCutFacet.sol:DiamondCutFacet",
            "label": "signerInitialized",
            "offset": 0,
            "slot": "0",
            "type": "t_uint8"
          },
          {
            "astId": 27589,
            "contract": "contracts/facets/base/DiamondCutFacet.sol:DiamondCutFacet",
            "label": "accountInitialized",
            "offset": 1,
            "slot": "0",
            "type": "t_uint8"
          },
          {
            "astId": 27591,
            "contract": "contracts/facets/base/DiamondCutFacet.sol:DiamondCutFacet",
            "label": "restrictionsInitialized",
            "offset": 2,
            "slot": "0",
            "type": "t_uint8"
          }
        ],
        "numberOfBytes": "32"
      },
      "t_struct(Lock)27585_storage": {
        "encoding": "inplace",
        "label": "struct Lock",
        "members": [
          {
            "astId": 27582,
            "contract": "contracts/facets/base/DiamondCutFacet.sol:DiamondCutFacet",
            "label": "release",
            "offset": 0,
            "slot": "0",
            "type": "t_uint64"
          },
          {
            "astId": 27584,
            "contract": "contracts/facets/base/DiamondCutFacet.sol:DiamondCutFacet",
            "label": "locker",
            "offset": 8,
            "slot": "0",
            "type": "t_bytes4"
          }
        ],
        "numberOfBytes": "32"
      },
      "t_uint256": {
        "encoding": "inplace",
        "label": "uint256",
        "numberOfBytes": "32"
      },
      "t_uint64": {
        "encoding": "inplace",
        "label": "uint64",
        "numberOfBytes": "8"
      },
      "t_uint8": {
        "encoding": "inplace",
        "label": "uint8",
        "numberOfBytes": "1"
      }
    }
  }
}